:040000000200B83210
:01000B0032C2
:0100130032BA
:01001B0032B2
:0100230032AA
:01002B0032A2
:01003300329A
:01003B003292
:0300430002014770
:100048000000E2FBEAF2802C0000E0FBEAF08024EA
:10005800E6B50202EBF62200E2B50202EBF222005C
:10006800E0B50202EBF02230F6E0A88220F5D3EAF0
:10007800C6F582228B822230F6E6A88220F5D98046
:01008800CFA8
:030144000200892D
:0500890012126680FE6A
:10014700C021C0E0C0F0C082C083C007C006C005A0
:10015700C004C003C002C001C000C0D075D00012E7
:100167001C10D0D0D000D001D002D003D004D005CD
:10017700D006D007D083D082D0F0D0E0D0210200C3
:100187008EAF827585C0EF2FF58475868E858E823A
:1001970022AF82BF800040012275A15575A1AA43F5
:1001A700B10475A1007585C0EF2FF58490017AE041
:1001B700F58EE58630E60375869A75A15575A1AA71
:1001C70053B1FB75A10022AF82E554242BF98706B2
:1001D700E554242EF9E7FD601E8E047410C39DFDBF
:1001E7003395E0FBED24EEF582EB341EF583E493C3
:1001F7008CF0A4ABF08B067D0074012EF519E43D5D
:10020700F51A7E008F828E83121EB1AF838F8222F2
:10021700C2AF7F008FF005F07D017E008006ED2DD7
:10022700FDEE33FED5F0F7AB337C00EB5205EC5215
:1002370006ED4E60127508FF7509FF7582FFC0074E
:10024700121417D0078053EF75F003A42422FEF988
:1002570087828F54C007C0061201CEAD82D006D068
:1002670007EE04F987828F54C007C006C005120144
:10027700CEAC82D005D006D00774022EF987828FC4
:1002870054C007C005C0041201CE858209D004D02E
:10029700058C088D82121417D0070FBF0300500377
:1002A70002021BD2AF7F00EF242EF9E7FE6003EEB8
:1002B70014F70FBF030040EF22E58275F012A42464
:1002C70000FE740135F0FFE51975F012A42400F55E
:1002D7001B740135F0F51C751A00E51A75F003A4B7
:1002E700FA2EF8E43FF9C006C00788038907EA2514
:1002F7001BFAE4351CFE8A828E83E08B828F83F0A3
:10030700740128FDE439FF8A828E83A3E08D828FF2
:1003170083F0740228F8E439F98A828E83A3A3E074
:1003270088828983F0051AC3E51A9406D007D00698
:1003370040A8227F00EF75F012A42400FD74013558
:10034700F0FE7C00EC75F003A42DFAE43EFB8A82F4
:100357008B83E4F08A828B83A3F08A828B83A3A3A7
:10036700F00CBC060040DD0FBF050040C89001023D
:100377007468F090010504F090010804F090010AF8
:100387007401F090010B74E2F090010D7401F0908C
:10039700010E74E9F09001107401F090011174EAF4
:1003A700F0900114746BF090011704F090011A0497
:1003B700F090011C7401F090011D74CDF090011FA5
:1003C7007401F090012074B5F09001227401F0904F
:1003D700012374B6F07F027519018F82C0071202DC
:1003E700C0D0070FBF050040EE752200752350757A
:1003F70024FF7525007526FF7527507528FF752979
:1004070014752A007F00EF242BF876A00FBF030096
:1004170040F475310775320022AF827E04C3EE9532
:100427005550158E82C007C006120188AD82D006CE
:10043700D007ED62070E80E58F8222AE82AF830E72
:10044700BE00010F8E828F83E024FD50068E828FBF
:1004570083E4F0227582021201888582587401B5FF
:10046700580474018001E4FE60047D20801D74023D
:10047700B558047D2280147403B558047D23800B7E
:100487007404B558047D3680027D6C758200C00601
:10049700C005120188AC82D005D006BC4D437582D9
:1004A70001C006C005120188AC82D005D006BC5039
:1004B7003074FF2558502AE55824FA4024758203E2
:1004C700C006C005120188AC82D0058D55855882BB
:1004D700C004120420AD82D004D006ECB50502801A
:1004E7000302033A755600C006E55675F003A424C7
:1004F70000FBE43401FC8B028C07E55675F003A47E
:10050700FD2404F582C007C005C004C003C0021261
:100517000188AE82D002D003D004D005D0078A82EA
:100527008F83EEF074012BFEE43CFF74052DF582FA
:10053700C007C006C005C004C003120188AA82D044
:1005470003D004D005D006D0078E828F83EAF074DB
:10055700022BFEE43CFF74062DF582C007C006C0DF
:1005670004C003120188AD82D003D004D006D0079F
:100577008E828F83EDF08B828C83C006120442D06B
:10058700060556C3E5569406D00650030204EE74DA
:10059700FB25584003020707755701E55775F01209
:1005A700A42400FC740135F0FD755600E55675F07E
:1005B70003A42CFAE43DFFC004C0058A598F5AE50D
:1005C7005775F012A4FC2404FDE55675F003A4F555
:1005D7005B2DF582C007C004C002120188AD82D02E
:1005E70002D004D007855982855A83EDF074012A19
:1005F700F559E43FF55A74052C255BF582C007C011
:1006070004C002120188AD82D002D004D0078559F8
:1006170082855A83EDF074022AFBE43FFD74062CB1
:10062700255BF582C007C005C003C002120188AC74
:1006370082D002D003D005D0078B828D83ECF08A5D
:10064700828F83C005C004120442D004D00505562A
:10065700C3E5569406D005D00450030205B30557E9
:1006670074FB255740030205A27F00EF75F003A432
:100677002422FBF98F02EA75F003A4FA245EF582BF
:10068700C007C003C002C001120188E582D001D0B3
:1006970002D003F7EB04F9745F2AF582C003C002A6
:1006A700C001120188E582D001D002D003F774029D
:1006B7002BF974602AF582C001120188E582D00106
:1006C700D007F70FBF030040A2758267120188E5C4
:1006D70082F52B758268120188E582F52C7582698F
:1006E700120188E582F52D75826A120188E5825428
:1006F70007F53175826B120188E582540FF53222B6
:1007070074FC25584003020845755600E55675F0F8
:1007170003A42412F559E43401F55A85595C855A26
:100727005DE55675F003A4FA2416F582C00212019E
:1007370088AF82D002855C82855D83EFF0740125E6
:1007470059F55CE4355AF55D74172AF582C0021233
:100757000188AF82D002855C82855D83EFF07402E9
:100767002559FBE4355AFF74182AF582C007C003E0
:10077700120188AA82D003D0078B828F83EAF08583
:100787005982855A83120442055674FA2556400346
:100797000207137F027519018F82C0071202C0D0AA
:1007A700070FBF050040EE7F00EF75F003A424227A
:1007B700FBF98F02EA75F003A4FA2428F582C00733
:1007C700C003C002C001120188E582D001D002D067
:1007D70003F7EB04F974292AF582C003C002C001AC
:1007E700120188E582D001D002D003F774022BF9F9
:1007F700742A2AF582C001120188E582D001D00748
:10080700F70FBF030040A2758231120188E582F518
:100817002B758232120188E582F52C75823312011D
:1008270088E582F52D758234120188E5825407F533
:1008370031758235120188E582540FF53222751918
:1008470000758201C0061202C0D0067F0275190129
:100857008F82C007C0061202C0D006D0070FBF059F
:100867000040EA7F00EF75F003A42422FBF98F0212
:10087700EA75F003A4FA2416F582C007C006C00380
:10088700C002C001120188E582D001D002D003F76F
:10089700EB04F974172AF582C003C002C0011201E4
:1008A70088E582D001D002D003F774022BF97418BF
:1008B7002AF582C001120188E582D001D006D0074F
:1008C700F70FBF0300409E75821FC006120188E51F
:1008D70082D006F52BEE6004AF2B800C758220C00A
:1008E70006120188AF82D0068F2CEE6004AF2B80F2
:1008F70008758221120188AF828F2D74FD2558500B
:100907000D758222120188AF8253070780027F0785
:100917008F317532002275600590017A744DF0753C
:10092700820012019890017A7450F07582011201C9
:100937009890017A7405F0758202120198755F002C
:10094700E55F75F012A42400FC740135F0FD755EB7
:1009570000E55F75F012A4FA2404FFE55E75F00365
:10096700A4FE2FF561E55E75F003A42CFBE43DFFC3
:100977008B828F83C004C005E0FD90017AF085610A
:1009870082C007C006C005C004C003C00212019898
:10099700D002D003D004D005D006D00774052A2E84
:1009A700FD8B828F83A3E0FC90017AF08D82C007D4
:1009B700C006C005C004C003C002120198D002D00F
:1009C70003D004D005D006D00774062A2EFE8B82EA
:1009D7008F83A3A3E090017AF08E82C005C0041232
:1009E7000198D004D005055EC3E55E9406D005D016
:1009F700045003020958055F74FB255F4003020991
:100A0700477F008F06EE75F003A4FE245EFBEF75AB
:100A1700F003A42422FAF990017AE7F08B82C00749
:100A2700C006C002120198D002D006745F2EFBEAFE
:100A370004F990017AE7F08B82C006C00212019890
:100A4700D002D00674602EFE74022AF990017AE76C
:100A5700F08E82120198D0070FBF030040A57F00D8
:100A67008F0674672EFEEF242BF990017AE7F08E3C
:100A770082C007120198D0070FBF030040E2E5319B
:100A870090017A5407F075826A120198E532900155
:100A97007A540FF075826B1201987F048F82C0071A
:100AA700120188AE82D007EE62600FBF6C0040EC87
:100AB70090017AE560F07582030201987F007E005D
:100AC7008EF005F07C017D008006EC2CFCED33FDFB
:100AD700D5F0F7AA337B00EA5204EB5205EC4D60E0
:100AE700068F050D8D82220E8E07BE040040D1753C
:100AF700820022AE82AF83A3E0FD70148E828F83C3
:100B0700E0FC8E828F83A3A3E0F50B8C820215E6AF
:100B1700BD01118E828F83A3A3E0FD7C008D828CA3
:100B2700830216888E828F83A3A3E0F5820217A81B
:100B3700AE82AF83A3E0FD70148E828F83E0FC8EBC
:100B4700828F83A3A3E0F50C8C82021637BD0111B7
:100B57008E828F83A3A3E0FD7C008D828C83021796
:100B6700188E828F83A3A3E0F582021804AE82AFAA
:100B770083A3E0FD70148E828F83E0FC8E828F83C7
:100B8700A3A3E0F50D8C82021674BD01118E828F2E
:100B970083A3A3E0FD7C008D828C830217798E826C
:100BA7008F83A3A3E0F582021848E582FF2434F976
:100BB7008706BF040050218FF005F07C017D00807F
:100BC70006EC2CFCED33FDD5F0F7AA327B00EA5298
:100BD70004EB5205EC4D7004C2008002D200A20063
:100BE700E433F564E5627003020C82EE6003020CE5
:100BF7008274FD256340378563F005F07B017C0037
:100C07008006EB2BFBEC33FCD5F0F7AA317D00EB2C
:100C17005202EC5205EA4D6015AA337D00EA5203F1
:100C2700ED5204EB4C7007E563242EF87610E5646B
:100C3700600FEF2446F87600EF244AF87600020D9D
:100C470062EF244EF8C007C001C000120AC3AD828C
:100C5700D000D001D007A605ED75F012A42400FC42
:100C6700740135F0FDEF75F003A42CF582E43DF532
:100C770083C001120AFAD001020D62E5626052EEEA
:100C8700604FE5647003020D62EF244AF8E66003E3
:100C9700020D62EF2446FDC000A8058604D000BC03
:100CA700FF005009EC04C000A805F6D000C000A85A
:100CB700058605D000BD28005003020D6276018F1E
:100CC700F005F07401800225E0D5F0FB4233020DF8
:100CD70062E5626003020D62EE7003020D62E56475
:100CE7006055EF244AF8E660128FF005F074018032
:100CF7000225E0D5F0FBF45233802EEF2446FEC0E8
:100D070000A8068606D000BE0400401DEF75F0035C
:100D1700A42400F582E43401F583C007C001C000B4
:100D2700120B74D000D001D007EF2446C000F8762C
:100D370000D00076008024EF244EF8E675F012A468
:100D47002400FD740135F0FEEF75F003A42DF58244
:100D5700E43EF583C001120B37D001A76222E5827A
:100D6700FF243AF9E7B565028009A765EF2440F843
:100D7700760022EF2440F98706BE020050090EA72D
:100D870006BE02005001228565628566638F820276
:100D97000BB1AF827E00EE245AF582E43401F5836D
:100DA700E4F00EBE200040EE43078090015AEFF0BA
:100DB70090015BE519F022E58275F012A42400FE8C
:100DC700740135F0FF751A00E51A75F003A4FCAB42
:100DD700192BF93395E0FAE9245AF9EA3401FAE5CF
:100DE7001A75F003A42EF8E43FFD88828D83C006B0
:100DF700C007E089828A83F0EB042CFF3395E0FE7D
:100E0700EF245AFFEE3401FE88828D83A3E08F82A0
:100E17008E83F074022B2CFC3395E0FFEC245AFCF4
:100E2700EF3401FF88828D83A3A3E08C828F83F048
:100E3700051AC3E51A9406D007D006408B22E5822F
:100E470075F012A42400FE740135F0FF751A00E551
:100E57001A75F003A42EFBE43FFC8B018C02E51A04
:100E670075F003A4F885191B251BFDC006C007ED07
:100E77003395E0FFED245AF582EF3401F583E089DD
:100E8700828A83F074012BF51CE43CF51DE51B04F5
:100E970028FF3395E0FEEF245AF582EE3401F583FF
:100EA700E0FFC374029FD007D00650047D00801571
:100EB700E51B0428F83395E0FCE8245AF582EC3466
:100EC70001F583E0FD851C82851D83EDF0E51A752C
:100ED700F003A42EFCE43FFD74022CFCE43DFD74FA
:100EE70002251BFBE51A75F003A42BFB3395E0FAEB
:100EF700EB245AF582EA3401F583E08C828D83F086
:100F0700051A74FA251A4003020E5622121E11E51D
:100F170082FF7001227E00C3EE9F502BBE2000503F
:100F270026EE245AFCE43401FDC007C006C005C004
:100F370004121E2CAB82D004D005D006D0078C82B9
:100F47008D83EBF00E80D0C007121E1FD0079001D3
:100F57005AE0FEBE016CBF0A00500F7519028E825F
:100F6700C006120D99D0060212447D00ED75F003FC
:100F7700A42422FCF98D03EB75F003A4FB04245A87
:100F8700F582E43401F583E0F7EC04F974022B24CD
:100F97005AF582E43401F583E0F774022CF90B0B60
:100FA7000BEB245AF582E43401F583E0F70DBD031A
:100FB7000040B97519008E82C006120D99D006023D
:100FC7001244BE0556BF0200500F7519028E82C02B
:100FD70006120D99D006021244BF0400401D7D0081
:100FE700ED242BF98D040CEC245AF582E43401F539
:100FF70083E0F70DBD030040E780117D00ED242B52
:10100700F990015BE0F70DBD030040F17519008E03
:1010170082C006120D99D006021244BE0348BF14BF
:1010270000500F7519028E82C006120D99D0060264
:10103700124490015BE0FDBD0500400F7519018E5C
:1010470082C006120D99D0060212447519028D82CC
:10105700C006120E45D0067519008E82C006120D05
:1010670099D006021244BE0A4DBF0200500F7519EF
:10107700028E82C006120D99D00602124490015BBF
:10108700E0FDBD0500400F7519018E82C006120DE7
:1010970099D0060212447519008E82C006C0051247
:1010A7000D99D00590015CEDF07519038D82120D35
:1010B700BED006021244BE0B2DBF0200500F751999
:1010C700028E82C006120D99D00602124490015B6F
:1010D700E0FD740F5DF5327519008E82C006120DA2
:1010E70099D006021244BE0416C00612091DD00686
:1010F7007519008E82C006120D99D006021244BEE1
:10110700026F7519008E82C006120D9990015C74EA
:1011170003F0E532540F90015DF0751904758200F4
:10112700120DBED0067D008D04EC75F003A4FC24DF
:1011370016245AF582E43401F583ED75F003A424EF
:1011470022FBF9E7F074172C245AF582E43401F5F1
:1011570083EB04F9E7F074182C245AF582E4340180
:10116700F58374022BF9E7F00DBD030040B90212B5
:1011770044BE08737519008E82C006120D99D006F9
:101187007D008D040C0CEC245AF582E43401F583C0
:10119700ED242BF9E7F08D04EC75F003A4FC24058E
:1011A700245AF582E43401F583ED75F003A4242273
:1011B700FBF9E7F074062C245AF582E43401F58331
:1011C700EB04F9E7F074072C245AF582E43401F5AF
:1011D7008374022BF9E7F00DBD030040A5E53154F8
:1011E70007900168F08056BE092BBF0200500E75AC
:1011F70019028E82C006120D99D006804090015BBD
:10120700E0FF74075FF5317519008E82C006120D75
:1012170099D0068028BE07028003BE061475190000
:101227008E82C006120D99D00690015C7403F0807F
:101237000C7519018E82C006120D99D006751920FA
:1012470090015AC006121CFDD006BE06119000324E
:101257001213D975E200C2AF75890012380022C295
:10126700B45396EF43971020911F9001191213BAA8
:101277007F097582FFC007121401D007DFF475E2FA
:1012870000C2AF75890012380075A15575A1AA5320
:10129700B9F843B90575A1009000051213D9121CBE
:1012A700AC75FF0075A15575A1AA43B10175A100E1
:1012B70012033A12045B7533007F00EF2434F8768B
:1012C70000EF243AF87600EF2440F87600EF244E3A
:1012D700F876000FBF060040E27F00EF2446F8765D
:1012E70000EF244AF876000FBF040040EE7F00EFBE
:1012F700242EF876000FBF030040F4A291B39201A9
:10130700E433F565756600758200120D65A297B323
:101317009201E433F565756601758201120D65A2C8
:1013270096B39201E433F565756602758202120D74
:1013370065A2B3B39201E433F5657566FF75820361
:10134700120D657E007F0020B14C120AC3AD8230BA
:10135700B016ED75F012A42400FB740135F0FC748F
:101367000C2BFBE43CFC8014ED75F012A42400FA6E
:10137700740135F0FD740F2AFBE43DFC8B068C07E6
:1013870090000AC007C0061213D9D006D00720B1B3
:101397000575FF0080F8EE4F60078E828F83120B72
:1013A70074120F131202179000051213D975FF005C
:0313B7000213021C
:101EEE00C88C645A647D9BB4C8DAE8F2F8FCFEFF35
:1013BA00AE82AF83EE4F6016E5A104F5A1E5A10464
:1013CA00F5A1E5A104F5A11EBEFF011F80E622AE2C
:1013DA0082AF83EE4F60159003E8C007C006121370
:0D13EA00BAD006D0071EBEFF011F80E7220B
:1013F800C007AF82DFFED007227F08C58233D2B490
:1014080092B4000000000000C2B40000DFEF22AF79
:1014180082E508901EFE93F582C007121401D007DA
:10142800EF901EFE93F582121401E509901EFE93BB
:10143800F582021401E582FF23235403FE743F5F03
:10144800850AF005F0800225E0D5F0FBFF850AF05B
:1014580005F0743F800225E0D5F0FB8F04C39CFDA6
:10146800EE600ABE0102800FBE022080148F08754C
:1014780009008D820214178D088F097582000214E5
:0C148800177508008D098F8202141722CE
:101EFE0000000000000000000000000000000000D4
:101F0E0000000000000000000000000001010101BF
:101F1E00010101010101010101020202020202029C
:101F2E000203030303030303040404040405050569
:101F3E000506060606070707070808080909090A1D
:101F4E000A0A0B0B0B0C0C0D0D0D0E0E0F0F1010B5
:101F5E001111121213131414151516161718181929
:101F6E00191A1B1B1C1D1D1E1F202021222323247A
:101F7E002526272728292A2B2C2D2E2F3031323299
:101F8E003334363738393A3B3C3D3E3F404243448A
:101F9E00454648494A4B4D4E4F5152535556575947
:101FAE005A5C5D5F606263656668696B6D6E7072C8
:101FBE00737577787A7C7E7F81838587898A8C8E0C
:101FCE0090929496989A9C9EA0A2A4A7A9ABADAF0E
:101FDE00B1B4B6B8BABDBFC1C4C6C8CBCDD0D2D5C8
:101FEE00D7DADCDFE1E4E7E9ECEFF1F4F7F9FCFF37
:1000CB0090017B7401F090017CE4F090017DF09045
:1000DB00017EF090017FF0900180F0900181F09013
:1000EB000182F0900183F09001847402F0900185FD
:1000FB00E4F0900186F0900187F0900188F0900178
:10010B0089F090018AF090018BF090018CF09001B6
:10011B008D7403F090018EE4F090018FF0900190BC
:05012B00F0900191F0CD
:10149400AF82BF880040088F06EE2478FE803EBFEE
:1014A4008000402290017CE0FD8F04EC2480F5F064
:1014B40005F07401800225E0D5F0FB420590017C23
:1014C400EDF07E008017EF901FFE93FE700122EE78
:1014D40030E70A90017CE04402F053067F7F03EF7B
:1014E400247BF582E43401F583E0B50601220FBFC5
:1014F400090040EB7F03EF247BFCE43401FD8C8284
:101504008D83E0700F8C828D83EEF0751909900144
:101514007B021CB30FBF090040DC22AF82BF8800EE
:1015240040088F06EE2478FE803FBF800040239061
:10153400017CE0FD8F04EC2480F5F005F07401805B
:101544000225E0D5F0FBF4520590017CEDF07E001D
:101554008017EF901FFE93FE700122EE30E70A9091
:10156400017CE054FDF053067F7F03EF247BFCE411
:101574003401FD8C828D83E0B506068C828D83E474
:10158400F00FBF090040E475190990017B021CB3F8
:10159400AF82C007121494D0078F8202151F7F08F0
:1015A400EF247BF582E43401F583E4F0DFF275196E
:1015B4000990017B021CB3AD82AE83AFF08D828EA5
:1015C400838FF0121ECEFC60188C820DBD00010EBC
:1015D400C007C006C005121594D005D006D00780F8
:1015E400DC22AF82E50B70012290017CE04207907F
:1015F400017CEFF07F03EF247BF582E43401F58373
:10160400E0B50B01220FBF090040EB7F03EF247B01
:10161400FDE43401FE8D828E83E070108D828E8312
:10162400E50BF075190990017B021CB30FBF09008B
:1016340040DB22AF82E50C70012290017CE0FE7455
:10164400FF6F520690017CEEF07F03EF247BFDE4F4
:101654003401FE8D828E83E0B50C068D828E83E488
:10166400F00FBF090040E475190990017B021CB317
:10167400AF82850D0BC0071215E6D007850D0C8FC0
:1016840082021637AE82AF837D018F037C00ED2486
:1016940084F582E43401F583E07A00B5061CEAB5EA
:1016A40007188D020AEA2484F582E43401F583E004
:1016B4007A00B50305EAB50401228D0274022AFDFD
:1016C400BD090040C97D01ED2484FBE43401FC8B99
:1016D400828C83E070328D02EA042484F8E43401BD
:1016E400F988828983E070208E018B828C83E9F0F3
:1016F4000AEA2484F582E43401F5838F04ECF0755E
:101704001909900184021CB38D0474022CFDBD09D7
:101714000040B42285820E85830F7D01AB0F7C00CF
:10172400ED2484F9E43401FA89828A83E07F00B5E8
:101734000E2FEFB50F2B8D07EF042484F582E434CC
:1017440001F583E0F87E00B50317EEB50413898232
:101754008A83E4F00FEF2484F582E43401F583E412
:10176400F08D0774022FFDBD090040B4751909906E
:101774000184021CB3AE82AF83C007C00612168870
:10178400D006D0078E828F830217187F08EF248437
:10179400F582E43401F583E4F0DFF2751909900170
:1017A40084021CB3AF82E4BF100104FE7003BF11B6
:1017B4002490018EE4F090018FF0900190F0EE609F
:1017C400047E0180027EFF900191EEF07519059070
:1017D400018D021CB3EF5407602590018EE0FE7466
:1017E400075F420690018EEEF090018FE4F09001C5
:1017F40090F0900191F075190590018D021CB322AF
:10180400AF82BF10028003BF110E900191E4F07506
:10181400190590018D021CB3EF5407602690018EC8
:10182400E0FE74075FF4520690018EEEF090018F93
:10183400E4F0900190F0900191F075190590018DFC
:10184400021CB322AF82C0071217A8D0078F8202EE
:10185400180490018EE4F090018FF0900190F090C4
:101864000191F075190590018D021CB3900053E0AD
:03187400F58222D8
:101FFE0000000000000000002A2B28000000000056
:10200E0000000000000000000000000000000000C2
:10201E002C9EB4A0A1A2A434A6A7A5AE362D373807
:10202E00271E1F20212223242526B333B62EB7B810
:10203E009F8485868788898A8B8C8D8E8F909192CE
:10204E00939495969798999A9B9C9D2F3130A3AD1A
:10205E00350405060708090A0B0C0D0E0F10111298
:10206E00131415161718191A1B1C1DAFB1B0B50095
:10207E001201100100000040891190880002010237
:10208E00030109024900020100801909040000023F
:10209E000301010409211001210122950007058188
:1020AE000310000A0705010310000A0904010002CB
:1020BE0003000000092110012101221D0007050265
:1020CE000320000A0705820320000A05010906A164
:1020DE00018501050719E029E71500250195087509
:1020EE000181029501750881039506750815002674
:1020FE00FF000507190029E78100050819012905C8
:10210E001500250195057501910295017503910341
:10211E00C0050C0901A1018502150026FF03190057
:10212E002AFF03950475108100C005010902A10163
:10213E0085030901A10005091901290315002501CF
:10214E00950375018102950175058103050109301D
:10215E00093109381581257F750895038106C0C0A0
:10216E00950660FF0961A1010962150026FF009521
:10217E002075088102096391020964B102C01D0431
:10218E000309041A034F00700065006E004D0061D4
:10219E0000630072006F005000610064002603436C
:1021AE000048003500350032002000520047004242
:1021BE000020004D006100630072006F005000614E
:1021CE0000640014034300480035003500320078E7
:1021DE00004800490044001A034800490044002DFD
:1021EE00004B006500790062006F006100720064B0
:0121FE0000E0
:10187700C007AF8205A290000015A28514828515C6
:1018870083E493A3A5DFFAD00722AFDBBF0802806A
:1018970003021B8C900007E0FE7F00900006E0FD2E
:1018A7007C004FF510EC4EF511900001E0F5129019
:1018B7000000E0FE54606008121D4BAF82021B8ED1
:1018C700E51224F45003021B88E512240B83F582EA
:1018D700E512241083F583E4736A2D88B088FDF838
:1018E7008809248E8E1B1A1B1A1B19181B1A1A1B00
:1018F7001B900003E0FEBE01028012BE02028018A8
:10190700BE0302801EBE2202806B0219AA75147ED6
:101917007515207F120219AC7514907515207F4933
:101927000219AC900002E0FE24FB4038EE2E90191D
:1019370039738008800E8014801A802075148D7585
:1019470015218026751491751521801E7514AB75A8
:10195700152180167514D1751521800E7514E5753E
:10196700152180067514D175152185148285158377
:10197700E493FF8030900004E0700E7514D975155C
:10198700209020A9E493FF801C900004E0FEBE0194
:101997000E75146F7515219020C9E493FF80067F9B
:1019A700FF80027FFFBFFF03021B8E8F057E00C3F0
:1019B700ED9510EE951150048D108E11AD10AE11EE
:1019C700C3ED9440EE940040047D408002AD108D3D
:1019D700078F821218778F057E00AB10AC11EBC30F
:1019E7009DFBEC9EFC8B108C11EF2514F514E43550
:1019F70015F515021B8E900002E0F5107511000217
:101A07001B8E900000E513F0AD10AE11C3ED9401ED
:101A1700EE94005003021B8E7F01021B8E90000282
:101A2700E0F513021B8E900000E0541F702D90000C
:101A370003E0FD7E00900002E07B004206EB4205DA
:101A4700BE0113BD0010902097E49330E503021BFD
:101A57008E7FFF021B8E7FFF021B8E900000E0FE31
:101A670053061FBE023E900004E0FEBE010280291D
:101A7700BE02028013BE81028014BE822274BC554E
:101A8700D44402F5D4021B8E53D473021B8E74BC4C
:101A970055D24402F5D2021B8E53D273021B8E7F9E
:101AA700FF021B8E7FFF021B8E900000E0541F7009
:101AB7002D900003E0FD7E00900002E07B004206CF
:101AC700EB4205BE0113BD0010902097E49330E56B
:101AD70003021B8E7FFF021B8E7FFF021B8E90006F
:101AE70000E0FE53061FBE0276900003E0FD7E0075
:101AF700900002E07B004206EB4205EE4D705C90E1
:101B07000005E0FD7E00900004E07B004206EB420A
:101B170005BE0105BD00028034BE0205BD0002807E
:101B270018BE8105BD0002801ABE822BBD00287435
:101B3700BF55D44403F5D4804E747F55D4440CF577
:101B4700D4804474BF55D24403F5D2803A747F558C
:101B5700D2440CF5D280307FFF802C7FFF80287F16
:101B6700FF8024900000E4F0900001F0AD10AE116A
:101B7700C3ED9402EE940040047F02800AAF108008
:101B8700067FFF80027FFFBFFF077512FF75DCCF5F
:101B970022EF24BF40068FDD75DCC02275DD00759E
:101BA700DCC0227405B5120280407406B51249AE36
:101BB70010AF11C3EE9440EF940040047E408002C2
:101BC700AE108E821218778E057F00AB10AC11EB2A
:101BD700C39DFBEC9FFC8B108C11EE2514F514E4D0
:101BE7003515F5158EDD63DC4022E5E35480FFE50E
:101BF700104FF5E375DC022275DD0075DC02221259
:101C07001DC675DD0043DC022230D95BE5D9540FD0
:101C1700FFE5D95430FE600FBE10028048BE200297
:101C27008021BE30408038EF600ABF0102800ABFC2
:101C37000233800A121C06802C121E728027121E85
:101C4700868022EF600ABF0102800ABF0217800A5E
:101C5700121BAA8010121E64800B121EA38006EFAF
:101C67007003121891C2D930D80F75DC02121E59B1
:101C770075E300C2DAC2D9C2D810DA0122E5DA2048
:101C8700E20375D8FF2275E22975D181E4F5ECF5F9
:101C9700ED75DC02121CE443E10743D81FD2EAD2F8
:051CA700AF75DD002215
:10013000751800C202C203900192E4F0900193F09E
:04014000900194F0A6
:101CAC00121C8D75D30022AE82AF832002FD7D0005
:101CBC00C3ED95195019ED2480FBE43400FCED2E96
:101CCC00F582E43FF583E08B828C83F00D80E18517
:101CDC0019D3D20253D2FC2275EE4075EF0075E495
:101CEC005275E50075D21275D41275EAC075EB0CFD
:101CFC0022AE82AF832003FDE51924DF5003751952
:101D0C00207D00C3ED9519502DED2452FBE43400D9
:101D1C00FCED2EF9E43FFA89828A83E08B828C8376
:101D2C00F0ED2495FBE43401FC89828A83E08B82FC
:101D3C008C83F00D80CD8519D5D20353D4FC22753C
:101D4C001800900001E0FFBF090B900004E004F5BF
:101D5C001875820022900001E0FFBF0A02800890F3
:101D6C000001E0FFBF0B0475820022900001E0FF30
:101D7C00BF0128900004E0FFBF01207F008F057E8B
:101D8C0000EF2495F582E43401F583E08D828E8397
:101D9C00F00FBF200040E675822022900001E0FF8A
:101DAC00BF02028008900001E0FFBF030990000011
:101DBC00E4F0758201227582FF227402B51831E5B8
:101DCC00DB24DF402B7F00C3EF95DB5016EF245252
:101DDC00FDE43400FE8F82758300E08D828E83F0EB
:101DEC000F80E4900192E5DBF0900194E4F0801117
:101DFC007401B5180CE5DB6008900000E0900193CD
:101E0C00F075180022900192E0F58222900193E087
:101E1C00F58222900192E4F0900194F053D4F322D5
:101E2C00900192E07003F58222900194E02452F527
:101E3C0082E43400F583E0FF900194E004F090011B
:101E4C0092E014F0E0700353D4F38F822275D21217
:101E5C0075D412C202C2032275D30074FC55D2444D
:101E6C0002F5D2C2022230DE10900040E0FFBF012A
:101E7C0008900041E0900193F02230DE199001921D
:101E8C00E5DBF0900194E4F0900192E0600874F3CB
:101E9C0055D44408F5D42275D50074FC55D44402AD
:051EAC00F5D4C2032281
:0600C500E478FFF6D8FD0F
:10008E00C000A88118C0D0B6001B18B64800401595
:10009E00B66F005010C0E0E65407B406005004E6F8
:0A00AE0054F8F6D0E0D0D0D00032B4
:101EB100E5828519F0A4C582C0F0851AF0A4D0F09E
:0D1EC10025F0C5838519F0A42583F5832243
:0D00B800758166121EEAE582600302008970
:101ECE0020F71430F6148883A88220F507E6A8833D
:101EDE0075830022E280F7E49322E02275820022CD
:00000001FF
