:040000000200B83210
:01000B0032C2
:0100130032BA
:01001B0032B2
:0100230032AA
:01002B0032A2
:01003300329A
:01003B003292
:0300430002014770
:100048000000E2FBEAF2802C0000E0FBEAF08024EA
:10005800E6B50202EBF62200E2B50202EBF222005C
:10006800E0B50202EBF02230F6E0A88220F5D3EAF0
:10007800C6F582228B822230F6E6A88220F5D98046
:01008800CFA8
:030144000200892D
:0500890012151B80FEB2
:10014700C021C0E0C0F0C082C083C007C006C005A0
:10015700C004C003C002C001C000C0D075D00012E7
:1001670031A0D0D0D000D001D002D003D004D00528
:10017700D006D007D083D082D0F0D0E0D0210200C3
:100187008E7E007F008E05ED75F003A4FDC2AF7C67
:10019700008C03EB75F055A48D022AFBBB80005041
:1001A70005EB2BFA800774FFC39B25E0FA8A03EB64
:1001B70075F0CDA4ABF08B01743229F5647565FF3A
:1001C7008A82C007C006C005C0041229B1D004D076
:1001D70005D006D0070CBC030040B6D2AF90000C88
:1001E700C007C006121653D006D00775FF000EBE13
:1001F70000010F8E048F05C3EC94F0ED9400408549
:1002070022AF827585C0EF2FF58475868E858E8225
:1002170022AF82BF800040012275A15575A1AA4374
:10022700B10475A1007585C0EF2FF584900120E01A
:10023700F58EE58630E60375869A75A15575A1AAF0
:1002470053B1FB75A100227F00EF75F012A42421A2
:10025700FD740135F0FE7C00EC75F003A42DFAE483
:100267003EFB8A828B83E4F08A828B83A3F08A82A7
:100277008B83A3A3F00CBC060040DD0FBF05004035
:10028700C89001237468F090012604F090012904B6
:10029700F090012B7401F090012C74E2F090012E84
:1002A7007401F090012F74E9F09001317401F0901E
:1002B700013274EAF0900135746BF090013804F064
:1002C70090013B04F090013D7401F090013E74CD24
:1002D700F09001407401F090014174B5F090014332
:1002E7007401F090014474B6F07F027575018F8236
:1002F700C00712167BD0070FBF050040EE7F00EF47
:1003070075F003A4247BFD740135F0FE8D828E8386
:10031700E4F08D828E83A3F08D828E83A3A3F00FEA
:10032700BF060040DA7522007523507524FF752536
:10033700007526FF7527507528FF752914752A0043
:100347007F00EF242BF876A00FBF030040F4752E33
:1003570007751900753900753A0922AF827E04C303
:10036700EE950850158E82C007C006120208AD82AE
:10037700D006D007ED62070E80E58F8222758202D4
:1003870012020885820B7401B50B0474018001E425
:10039700FE60047D2080387402B50B047D22802F17
:1003A7007403B50B047D2380267404B50B047D36D6
:1003B700801D7405B50B047D6C80147406B50B04A1
:1003C7007D7E800B7407B50B047D8080027D807570
:1003D7008200C006C005120208AC82D005D006BC58
:1003E7004D43758201C006C005120208AC82D005D4
:1003F700D006BC503074FF250B502AE50B24F7407C
:1004070024758203C006C005120208AC82D0058D90
:1004170008850B82C004120362AD82D004D006ECBB
:10042700B50502800302024E750900C006E509758D
:10043700F003A42421FBE43401FC8B028C07E509BB
:1004470075F003A4FD2404F582C007C005C004C0ED
:1004570003C002120208AE82D002D003D004D00536
:10046700D0078A828F83EEF074012BFEE43CFF7481
:10047700052DF582C007C006C005C004C0031202DF
:1004870008AA82D003D004D005D006D0078E828F69
:1004970083EAF074022BFEE43CFF74062DF582C05C
:1004A70007C006C004C003120208AD82D003D004FF
:1004B700D006D0078E828F83EDF08B828C83C006A7
:1004C7001216F5D006E50975F003A4247BFE740126
:1004D70035F0FF8E828F83E4F08E828F83A3F08EB8
:1004E700828F83A3A3F00509C3E5099406D00650BC
:1004F7000302043274FA250B40030207077509004B
:10050700E50975F003A4247BFC740135F0FD8C0C20
:100517008D0DE50975F003A4FF2416F582C007C009
:1005270005C004120208AB82D004D005D007850CA1
:1005370082850D83EBF074012CF50CE43DF50D7409
:10054700172FF582C007C005C004120208AB82D07E
:1005570004D005D007850C82850D83EBF074022C3F
:10056700FAE43DFB74182FF582C005C004C003C030
:1005770002120208AF82D002D003D004D0058A82CB
:100587008B83EFF08C828D831216F5050974FA259B
:10059700094003020507750A01E50A75F012A4244C
:1005A70021FC740135F0FD750900E50975F003A418
:1005B7002CFAE43DFFC004C0058A0C8F0DE50A75CF
:1005C700F012A4FC2416FDE50975F003A4F50E2D21
:1005D700F582C007C004C002120208AD82D002D063
:1005E70004D007850C82850D83EDF074012AF50C84
:1005F700E43FF50D74172C250EF582C007C004C023
:1006070002120208AD82D002D004D007850C828581
:100617000D83EDF074022AFBE43FFD74182C250EC0
:10062700F582C007C005C003C002120208AC82D021
:1006370002D003D005D0078B828D83ECF08A828F9E
:1006470083C005C0041216F5D004D0050509C3E51B
:10065700099406D005D00450030205B1050A74FBBE
:10066700250A40030205A07F00EF75F003A42422AA
:10067700FBF98F02EA75F003A4FA2470F582C0072C
:10068700C003C002C001120208E582D001D002D027
:1006970003F7EB04F974712AF582C003C002C001A5
:1006A700120208E582D001D002D003F774022BF9B9
:1006B70074722AF582C001120208E582D001D007C0
:1006C700F70FBF030040A2758279120208E582F591
:1006D7002B75827A120208E582F52C75827B12024D
:1006E70008E582F52D75827C120208E5825407F52C
:1006F7002E75827D120208E582540FF519020A76DB
:1007070074FB250B400302085F750A01E50A75F0C3
:1007170012A42421F50C740135F0F50D750900E5D7
:100727000975F003A4250CF50FE4350DF510850FB9
:1007370011851012E50A75F012A4FB2404FFE509E0
:1007470075F003A4F50E2FF582C003120208AF82DD
:10075700D003851182851283EFF07401250FF511FF
:10076700E43510F51274052B250EF582C00312022D
:1007770008AF82D003851182851283EFF0740225BA
:100787000FFAE43510FF74062B250EF582C007C05B
:1007970002120208AB82D002D0078A828F83EBF065
:1007A700850F828510831216F5050974FA2509400D
:1007B70003020726050A74FB250A40030207137F75
:1007C70000EF75F003A42422FBF98F02EA75F0030A
:1007D700A4FA245EF582C007C003C002C00112025A
:1007E70008E582D001D002D003F7EB04F9745F2A41
:1007F700F582C003C002C001120208E582D001D011
:1008070002D003F774022BF974602AF582C0011233
:100817000208E582D001D007F70FBF030040A27599
:100827008267120208E582F52B758268120208E5D5
:1008370082F52C758269120208E582F52D75826AA8
:10084700120208E5825407F52E75826B120208E53D
:1008570082540FF519020A7674FC250B400302092E
:100867009F750900E50975F003A42433F511E434F5
:1008770001F51285110F851210E50975F003A4FA29
:100887002416F582C002120208AF82D002850F82B9
:10089700851083EFF074012511F50FE43512F5107B
:1008A70074172AF582C002120208AF82D002850FA0
:1008B70082851083EFF074022511FBE43512FF7473
:1008C700182AF582C007C003120208AA82D003D0F3
:1008D700078B828F83EAF08511828512831216F5C2
:1008E700050974FA2509400302086B7F0275750133
:1008F7008F82C00712167BD0070FBF050040EE7F1F
:1009070000EF75F003A42422FBF98F02EA75F003C8
:10091700A4FA2428F582C007C003C002C00112024E
:1009270008E582D001D002D003F7EB04F974292A35
:10093700F582C003C002C001120208E582D001D0CF
:1009470002D003F774022BF9742A2AF582C0011228
:100957000208E582D001D007F70FBF030040A27558
:100967008231120208E582F52B758232120208E500
:1009770082F52C758233120208E582F52D758234D3
:10098700120208E5825407F52E758235120208E532
:1009970082540FF519020A76757500758201C00633
:1009A70012167BD0067F027575018F82C007C006BD
:1009B70012167BD006D0070FBF050040EA7F00EF75
:1009C70075F003A42422FBF98F02EA75F003A4FA59
:1009D7002416F582C007C006C003C002C001120278
:1009E70008E582D001D002D003F7EB04F974172A87
:1009F700F582C003C002C001120208E582D001D00F
:100A070002D003F774022BF974182AF582C0011279
:100A17000208E582D001D006D007F70FBF030040D8
:100A27009E75821FC006120208E582D006F52BEEDE
:100A37006004AF2B800C758220C006120208AF82BB
:100A4700D0068F2CEE6004AF2B800875822112022E
:100A570008AF828F2D74FD250B500D75822212026F
:100A670008AF8253070780027F078F2E751900741E
:100A7700F8250B501E75827E120208E5825401F597
:100A87003975827F120208E582F53A24DE50367501
:100A97003A212274F9250B502675827E120208E549
:100AA700825401F53975827F120208E58275F00AD2
:100AB700A4FFAEF08F828E83121C4185823A227585
:100AC7003900753A0922751508900120744DF075A3
:100AD70082001202189001207450F07582011202F0
:100AE700189001207408F07582021202187E008E99
:100AF70005ED75F003A4FD2404FCEE75F003A424B2
:100B070021FAE43401FB8A828B83E0900120F08C88
:100B170082C006C005C003C002120218D002D0036B
:100B2700D00574052DFF8A828B83A3E0900120F006
:100B37008F82C005C003C002120218D002D003D0B2
:100B47000574062DFF8A828B83A3A3E0900120F012
:100B57008F82C005120218D005D00674162DFFEE3D
:100B670075F003A4247BFB740135F0FC8B828C8326
:100B7700E0900120F08F82C006C005C004C00312B8
:100B87000218D003D004D00574172DFF8B828C83F5
:100B9700A3E0900120F08F82C005C004C0031202B9
:100BA70018D003D004D00574182DFD8B828C83A335
:100BB700A3E0900120F08D82120218D0060EBE0627
:100BC700005003020AF6751401E51475F012A42407
:100BD70021FD740135F0FE751300E51475F012A4BC
:100BE700FB2416FAE51375F003A4FF2AF516E5139F
:100BF70075F003A42DFAE43EFC8A828C83C005C0FD
:100C070006E0FE900120F0851682C007C006C005E9
:100C1700C004C003C002120218D002D003D004D00F
:100C270005D006D00774172B2FFE8A828C83A3E08A
:100C3700FD900120F08E82C007C006C005C004C029
:100C470003C002120218D002D003D004D005D00688
:100C5700D00774182B2FFF8A828C83A3A3E0FE9002
:100C67000120F08F82C006C005120218D005D006F9
:100C77000513C3E5139406D006D0055003020BE114
:100C8700051474FB25144003020BD07F008F04EC7E
:100C970075F003A4FC2470FBEF75F003A42422FA7B
:100CA700F9900120E7F08B82C007C004C00212024E
:100CB70018D002D00474712CFBEA04F9900120E7E4
:100CC700F08B82C004C002120218D002D0047472E2
:100CD7002CFC74022AF9900120E7F08C821202188A
:100CE700D0070FBF030040A5900120E52BF07582C8
:100CF70079120218900120E52CF075827A120218F9
:100D0700900120E52DF075827B120218E52E9001E7
:100D1700205407F075827C120218E51990012054BF
:100D27000FF075827D120218E5399001205401F009
:100D370075827E120218E53A24DE50047F21800472
:100D4700AC3A8C07900120EFF075827F1202187F72
:100D5700048F82C007120208AC82D007EC62150F1D
:100D6700BF800040EC900120E515F0758203020278
:100D770018AF827E00EE2400F582E43401F583E4A7
:100D8700F00EBE200040EE430780900100EFF09088
:100D97000101E575F0228582777401B57504740148
:100DA7008001E4FEE57775F012A42421FC74013577
:100DB700F0FD757800E5777015EE6012E57875F04F
:100DC70003A4247BF579740135F0F57A800DE57875
:100DD70075F003A42CF579E43DF57AE57875F00311
:100DE700A4F8AF762FF93395E0FAE92400F9EA344D
:100DF70001FA857982857A83E089828A83F0EF0414
:100E070028FB3395E0FAEB2400FBEA3401FA8579F5
:100E170082857A83A3E08B828A83F074022F28F875
:100E27003395E0FFE82400F8EF3401FF85798285E8
:100E37007A83A3A3E088828F83F0057874FA2578F4
:100E47004003020DBC228582777401B575047401D5
:100E57008001E4FEE57775F012A42421FC740135C6
:100E6700F0FD757800E5777015EE6012E57875F09E
:100E770003A4247BF579740135F0F57A800DE578C4
:100E870075F003A42CF579E43DF57AC006A879AF8F
:100E97007AE57875F003A4FAA97629FB3395E0FE85
:100EA700EB2400F582EE3401F583E088828F83F02E
:100EB70074012579F57BE4357AF57CE9042AFF335B
:100EC70095E0FEEF2400F582EE3401F583E0FFC3E1
:100ED70074029FD00650047F008014E9042AFA3375
:100EE70095E0FBEA2400F582EB3401F583E0FF850A
:100EF7007B82857C83EFF074022579FBE4357AFFEA
:100F07000909E57875F003A429F93395E0FAE9248E
:100F170000F582EA3401F583E08B828F83F0057850
:100F270074FA25784003020E6C221233A1E582FF82
:100F37007001227E00C3EE9F502BBE20005026EE8C
:100F47002400FCE43401FDC007C006C005C004123C
:100F570033BCAB82D004D005D006D0078C828D83FA
:100F6700EBF00E80D0C0071233AFD007900100E03E
:100F7700FEBE010280028079BF0A00500F7575021C
:100F87008E82C006120D78D0060214F97D008D04FA
:100F9700EC75F003A4FC042400F582E43401F58326
:100FA700E0F57574022C2400F582E43401F583E042
:100FB700F5760C0C0CEC2400F582E43401F583E0A3
:100FC700F5778D82C006C005122924D005D0060DFD
:100FD700BD030040B9755C01758201C0061228E89F
:100FE700D0067575008E82C006120D78D0060214E1
:100FF700F9BE0569BF0200500F7575028E82C006E3
:10100700120D78D0060214F9BF040040277D008D29
:10101700040CEC2400F582E43401F583E0F5758DCA
:1010270082C006C005122943D005D0060DBD0300B6
:1010370040DD800D900101E0F582C006122952D0F3
:1010470006755C01758201C0061228E8D006757521
:10105700008E82C006120D78D0060214F9BE0D600C
:10106700BF0500500F7575028E82C006120D78D02D
:10107700060214F9900101E0FDBD0300400F7575EC
:10108700018E82C006120D78D0060214F990010273
:10109700E0F575900103E0F576900104E0F5778DB2
:1010A70082C006122924755C017582011228E8D0D6
:1010B700067575008E82C006120D78D0060214F9E7
:1010C700BE0E54BF0300500F7575028E82C0061204
:1010D7000D78D0060214F9900101E0FDBD03004030
:1010E7000F7575018E82C006120D78D0060214F9AD
:1010F700900102E0F5758D82C006122943755C01E7
:101107007582011228E8D0067575008E82C0061216
:101117000D78D0060214F9BE100280030211AC90BC
:101127000103E0FD7C00900104E0FAE44205EA4295
:1011370004BF0600500F7575028E82C006120D7827
:10114700D0060214F9900101E0FBBB030050238D88
:10115700178C18C3E51794F4E5189401401474B874
:101167009517740B9518400A900105E0FABA02002A
:10117700500F7575018E82C006120D78D0060214C5
:10118700F9900102E0F54C8D4D8C4E8A4F8B82C051
:1011970006122321D0067575008E82C006120D78BF
:1011A700D0060214F9BE03028002807B7D007C0218
:1011B700BF15004007900102E0FD7C038C03741209
:1011C7002BFB8F02C3EA9B500F7575028E82C006F8
:1011D700120D78D0060214F9900101E0FBBB05005F
:1011E700400F7575018E82C006120D78D006021465
:1011F700F9BD02005006ED6012EB600F7575018EA8
:1012070082C006120D78D0060214F98D758C768B84
:1012170082C006120E4DD0067575008E82C006126A
:101227000D78D0060214F9BE0A0280030212B6BF77
:1012370003004007900102E0FD80027D00BF02002D
:10124700500F7575028E82C006120D78D0060214F3
:10125700F9900101E0FCBC0500400F7575018E8215
:10126700C006120D78D0060214F9BD02005006ED33
:101277006012EC600F7575018E82C006120D78D072
:10128700060214F97575008E82C006C005C00412E7
:101297000D78D004D005900102ECF0900103EDF039
:1012A7008D757576048C82120D9DD0060214F9BED9
:1012B7000B2DBF0200500F7575028E82C006120DEE
:1012C70078D0060214F9900101E0FD740F5DF5195D
:1012D7007575008E82C006120D78D0060214F9BE0D
:1012E7000416C006120ACDD0067575008E82C00698
:1012F700120D78D0060214F9BE02727575008E823F
:10130700C006120D789001027407F0E519540F908A
:101317000103F0757500757604758200120D9DD076
:10132700067D008D04EC75F003A4FC24162400F55B
:1013370082E43401F583ED75F003A42422FBF9E779
:10134700F074172C2400F582E43401F583EB04F9DB
:10135700E7F074182C2400F582E43401F583740255
:101367002BF9E7F00DBD030040B90214F9BE0802DE
:10137700800302145C7575008E82C006120D78D04A
:10138700067D008D040C0CEC2400F582E43401F595
:1013970083ED242BF9E7F08D04EC75F003A4FC240E
:1013A700052400F582E43401F583ED75F003A424E8
:1013B70022FBF9E7F074062C2400F582E43401F5EA
:1013C70083EB04F9E7F074072C2400F582E4340179
:1013D700F58374022BF9E7F00DBD030040A5E52E58
:1013E700540790010EF0E539540190010FF0E53AEA
:1013F70024DE50047D218004AC3A8C05900110ED69
:10140700F0E52F5407900111F07D008D04EC2CFCC2
:1014170024122400F582E43401F583ED2D2430F9FC
:10142700E7F074132C2400F582E43401F583870375
:10143700098704198C03EBF08D0474182C2400F52C
:1014470082E43401F583ED2436F9E7F00DBD03009E
:1014570040B90214F9BE0935BF0200500F75750275
:101467008E82C006120D78D0060214F9900101E0B1
:10147700F55E755D01758203C0061228FCD00675FE
:1014870075008E82C006120D78D0068065BE0C3AB4
:10149700BF0300500E7575028E82C006120D78D0FC
:1014A70006804F900101E0F560900102E0F561755B
:1014B7005F01758204C006122915D0067575008E66
:1014C70082C006120D78D0068028BE07028003BEB0
:1014D70006147575008E82C006120D78D00690012D
:1014E700027407F0800C7575018E82C006120D78A4
:1014F700D006757520900100C00612328DD006BE49
:10150700061190003212165375E200C2AF758900BA
:1015170012380022C2B45396EF43971020911F90C0
:1015270001191216347F097582FFC00712297BD073
:1015370007DFF475E200C2AF75890012380075A1A4
:101547005575A1AA53B9F843B90575A100900005CF
:1015570012165375FF0075A15575A1AA43B1017500
:10156700A10012018812323C12024E120384121B90
:10157700CC1227F7755C027582001228E8A291B396
:101587009200E433F51E751F00758200121B03A23B
:1015970097B39200E433F51E751F01758201121B84
:1015A70003A296B39200E433F51E751F02758202FB
:1015B700121B03A2B3B39200E433F51E751FFF7528
:1015C7008203121B0320B153755C00758200122839
:1015D700E8121851AF8230B0047E0480027E059075
:1015E700000AC007C006121653D006D00720B1055F
:1015F70075FF0080F8EF70078E821217FB801CEFD3
:1016070075F012A42421FD740135F0FFEE75F00387
:10161700A42DF582E43FF583121788120F311229A2
:101627006390000512165375FF00021584AE82AF52
:1016370083EE4F6016E5A104F5A1E5A104F5A1E548
:10164700A104F5A11EBEFF011F80E622AE82AF8373
:10165700EE4F60159003E8C007C006121634D00697
:0A166700D0071EBEFF011F80E7221E
:10167200C007AF82DFFED00722E58275F012A424F4
:1016820021FE740135F0FFE57575F012A42421F5F1
:1016920077740135F0F578757600E57675F003A478
:1016A200FA2EF8E43FF9C006C00788038907EA2545
:1016B20077FAE43578FE8A828E83E08B828F83F01C
:1016C200740128FDE439FF8A828E83A3E08D828F24
:1016D20083F0740228F8E439F98A828E83A3A3E0A6
:1016E20088828983F00576C3E5769406D007D00612
:1016F20040A822AE82AF830EBE00010F8E828F837E
:10170200E024FD50068E828F83E4F022AE82AF8306
:10171200A3E0FD70148E828F83E0FC8E828F83A300
:10172200A3E0F5678C82022B76BD01118E828F8336
:10173200A3A3E0FD7C008D828C83022C188E828F05
:1017420083A3A3E0F582022D38AE82AF83A3E0FD2E
:1017520070148E828F83E0FC8E828F83A3A3E0F5C8
:10176200688C82022BC7BD01118E828F83A3A3E0F6
:10177200FD7C008D828C83022CA88E828F83A3A392
:10178200E0F582022D94AE82AF83A3E0FD70148E49
:10179200828F83E0FC8E828F83A3A3E0F5698C8223
:1017A200022C04BD01118E828F83A3A3E0FD7C0075
:1017B2008D828C83022D098E828F83A3A3E0F58212
:1017C200022DD8AE82AF8374022EFCE43FFD8C82E0
:1017D2008D83E0701B8E048F058C828D83E07010E8
:1017E2000EBE00010F8E828F83E07004C201800260
:1017F200D201A201E433F58222E582FF75F003A44F
:101802002421F582E43401F583C007121788D0073A
:10181200EF75F003A4FEAFF0247BF582EF3401F5FF
:1018220083C007C0061217C5E582D006D007601E26
:10183200900028C007C006121653D006D00775FFC5
:1018420000EE247BF582EF3401F583021788227FB4
:10185200007E008EF005F07C017D008006EC2CFC01
:10186200ED33FDD5F0F7AA1A7B00EA5204EB5205DC
:10187200EC4D60068F050D8D82220E8E07BE040090
:1018820040D175820022900193E0701A900194E099
:101892007014900195E0700E900196E07008E51AC0
:1018A2007004C2028002D202A202E433F5822285CF
:1018B200821C74FA251C500122E51C248DFDE4349F
:1018C20001FE8D828E83E0FC74FC251C4022851C67
:1018D200F005F07A017B008006EA2AFAEB33FBD5A9
:1018E200F0F7A8197900E85202E95203EA4B7004B2
:1018F200C2038002D203A203E433FBEC6003021AA8
:1019020005E51B6003021A05E51C24B5F582E434E3
:1019120001F583E0FA755C00758200C006C005C05F
:1019220003C0021228E8D002755D008A5E75820249
:101932001228FCD003D005D006EB601DE51C24A5BF
:10194200F582E43401F583E4F0E51C24AFF582E48A
:101952003401F583E4F00219FDE51C24A9F9E4340D
:1019620001FAC006C005C002C001121851A882D0F7
:1019720001D002D005D00689828A83E8F0E870455A
:10198200E51C75F003A4247BF582740135F0F58320
:10199200C006C005C002C0011217C5E582D001D041
:1019A20002D005D006601E851C82C006C005121733
:1019B200FBD005D006E51C24AFF582E43401F583A3
:1019C2007401F0803689828A83E075F012A42421A2
:1019D200F9740135F0FAE51C75F003A429F582E4E7
:1019E2003AF583C006C00512170ED005D006E51CD5
:1019F20024AFF582E43401F583E4F08D828E8374A2
:101A020001F022BC0103EC8001E4FA60487402B5E3
:101A12001B43EB603FE51C24A5F8E43401F98882FE
:101A22008983E0F51DC394FF5008E51D048882896F
:101A320083F088828983E0F8B828004017851CF07B
:101A420005F07401800225E0D5F0FB421A8D828EEA
:101A5200837402F022EA7006BC0202800122740141
:101A6200B51B02800122EB6045BC0213851CF00508
:101A7200F07401800225E0D5F0FBF4521A8020E5D3
:101A82001C24A5F582E43401F583E0FFBF04004085
:101A92000E851C82C006C0051217FBD005D006E5D4
:101AA2001C24A5F582E43401F583E4F08040E51CB2
:101AB20024AFFCE43401FF8C828F83E07030E51C9C
:101AC20024A9F582E43401F583E075F012A42421FF
:101AD200FC740135F0FFE51C75F003A42CF582E4DB
:101AE2003FF583C006C00512174BD005D006E51C92
:101AF20024AFF582E43401F583E4F08D828E83F025
:101B020022AF82BF0600400122EF24B5F582E43401
:101B120001F583E51FF0EF2499FDE43401FE8D8287
:101B22008E83E0B51E0280148D828E83E51EF0EF57
:101B3200249FF582E43401F583E4F022EF249FFD33
:101B4200E43401FE8D828E83E0FCBC0200500D0C59
:101B52008D828E83ECF0BC0200500122E51E601CD7
:101B6200EF2493FDE43401FE8D828E83E0700DF547
:101B72001B8F82C0071218B1D0078040E51E601D7E
:101B8200EF2493FDE43401FE8D828E83E0600E75B6
:101B92001B028F82C0071218B1D007801FE51E708A
:101BA2001BEF2493FDE43401FE8D828E83E0600CF2
:101BB200751B018F82C0071218B1D007EF2493F56D
:101BC20082E43401F583E51EF022751A007F00EFEE
:101BD200248DF582E43401F583E4F0EF2493F58259
:101BE200E43401F583E4F0EF2499F582E43401F55D
:101BF20083E4F0EF249FF582E43401F583E4F0EF0F
:101C020024A9F582E43401F583E4F0EF24AFF582F0
:101C1200E43401F583E4F0EF24B5F582E43401F510
:101C22008374FFF00FBF060040A57F00EF24A5F5E7
:101C320082E43401F583E4F00FBF040040EE22AEEB
:101C420082AF837D007C00EC75F002A424B7F5829C
:101C5200743435F0F583E493FAA3E493FBC3EA9E6C
:101C6200EB9F40038D82220C8C05BC220040D8756C
:101C7200822122E52C452BFFE52D4FF58222E582BC
:101C8200FF75F003A424EEF582740135F0F583EFBD
:101C920075F003A42422F9E7F0EF75F003A424EE13
:101CA200FD740135F0FE8D828E83A3EF75F003A4DF
:101CB200242204F9E7F0EF75F003A424EEFD740189
:101CC20035F0FE8D828E83A3A3EF75F003A4242248
:101CD2002402F9E7F0EF24F7F582E43401F583EF0B
:101CE200242BF9E7F0227F008F82C007121C80D0DC
:101CF200070FBF030040F122AF82C3E5759F500773
:101D0200EFC39575FE8005E575C39FFE8E8222E5C1
:101D120082FF24F7F582E43401F583E0FEEF242B01
:101D2200F987758E82C007121CFAAE82D007EF7552
:101D3200F003A424EEF582740135F0F583E0FDEFA3
:101D420075F003A42422F987758D82C007C006129C
:101D52001CFAAD82D006D007C3EE9D50028D06EF6D
:101D620075F003A424EEFC740135F0FD8C828D83A2
:101D7200A3E0FDEF75F003A4242204F987758D8298
:101D8200C007C006121CFAAD82D006D007C3EE9D72
:101D920050028D06EF75F003A424EEFC740135F0B9
:101DA200FD8C828D83A3A3E0FDEF75F003A42422B2
:101DB2002402F987758D82C006121CFAAF82D00602
:101DC200C3EE9F50028F068E8222E582FF24D6FD4B
:101DD200E43401FE8D828E83E0B5401EEF24DFFBEA
:101DE200E43401FC8B828C83E0700EEF24D3F58205
:101DF200E43401F583E0B54001228D828E83E54013
:101E0200F0EF24D3F582E43401F583E0FEB5400D12
:101E1200EF24DFF582E43401F583E4F022EF24E2DB
:101E2200FCE43401FD8C828D83EEF0EF24E5F58233
:101E3200E43401F583E540F08C828D83E0FC85403B
:101E4200758C82C007121CFAAE82D007EF24EBFC1D
:101E5200E43401FDEE75F03CA4FEABF08E828B8380
:101E62007575FF757600C007C005C004123441AB1A
:101E720082D004D005D0078C828D83EBF0EB700703
:101E82008C828D837401F0EF24E8F582E43401F54D
:101E920083E4F0EF24DFF582E43401F5837401F08A
:101EA20022AF827E008EF005F07C017D008006EC80
:101EB2002CFCED33FDD5F0F7AA3D7B00EA5204EB92
:101EC2005205EC4D701EEE24DFFCE43401FD8C82E1
:101ED2008D83E0700F8F408E82C007C006121DCC2A
:101EE200D006D0070EBE030040BB22AF82C007124D
:101EF2001C80D0078FF005F07401800225E0D5F038
:101F0200FBF4523DEF24DCF582E43401F583E0F585
:101F1200408F82021DCCAF82E54124F7F582E43482
:101F220001F583E0FE7D0074012EF575E43DF57642
:101F32007E008F828E8312346AAF838F8222AF82B9
:101F4200E54224D3F582E43401F583E0FE7003F523
:101F52008222BEFF038F82227D0074012EF575E47A
:101F62003DF5767E008F828E8312346AAF838F8234
:101F720022757505757600123441AE82AF838E7577
:101F82008F7690FFFF023441AF828FF074FF84FF9F
:101F920074FFC39FFFE4C3CF13CF13CFFE747E2F12
:101FA200F582E43EF58375757F757600023441AFA4
:101FB20082BF800050048F06800574FFC39FFE8E8F
:101FC2000774FFC39E8FF0A4FFE5F0A2E7CF33CFE3
:101FD20033CF54018F757576008543828544831211
:101FE200346AAE82AF8374402EFEE43FA2E7CE3362
:101FF200CE33CE540174FFC39EF58222AF8274FFAA
:10200200B545038F8222AD457E0074012DF575E43E
:102012003EF5768F828E8312346AAF838F82227569
:102022004600E54624DFFDE43401FE8D828E83E026
:10203200700302212FE54624E8FBE43401FC8B8285
:102042008C83E0FA0A8B828C83EAF0E54624EBF576
:1020520082E43401F583E0F9C3EA994023E546249A
:10206200D3F8E43401FAE54624E5F582E43401F5D7
:1020720083E088828A83F08D828E83E4F002212FAE
:10208200E54624E5F582E43401F583E0FFE54624E4
:10209200E2F582E43401F583E0FEC3EF9E404BE5B6
:1020A2004624D3F547E43401F5488F49754A008E3A
:1020B200027D00E549C39AFAE54A9DFD8B828C8335
:1020C200E0F5757576008A828D83C006C0011234F0
:1020D2006AD0018975757600123441AA82D006EA67
:1020E2002E854782854883F08043E54624D3F5490F
:1020F200E43401F54A8E00E4FDFAE8C39FF8ED9A54
:10210200FD8B828C83E0F5758A7688828D83C0068A
:10211200C00112346AD0018975757600123441AD5E
:1021220082D006EEC39D854982854A83F08546F0BA
:1021320005F07E017F008006EE2EFEEF33FFD5F024
:10214200F7AC3D7D00EC5206ED5207EE4F6034E5F0
:102152004624DFFEE43401FF8E828F83E07024E5A3
:102162004624D3F582E43401F583E0FFE54624D921
:10217200F582E43401F583E0FEEFB506068546827A
:10218200121EED054674FD2546400302202422E47A
:10219200F53BF53C121C75E58260067582FF021E56
:1021A200A3758200021EA3E4F53BF53CFF8F82C0BB
:1021B20007121D11E582D00770308FF005F07D0106
:1021C2007E008006ED2DFDEE33FED5F0F7AB3D7CB3
:1021D20000EB5205EC5206ED4E60030222A08F8204
:1021E200C007121C80D0070222A08FF005F07401F4
:1021F200800225E0D5F0FB423DEF242BF9E7701A6F
:10220200EF24D9F582E43401F583E4F0EF24DCF520
:1022120082E43401F583E4F08045EF24D3F582E4CF
:102222003401F583E0FE701BEF24D9F582E434011A
:10223200F583E4F0EF24DCF582E43401F58374FFE6
:10224200F0801CEF24DCF582E43401F583EEF0EF3C
:1022520024D9F582E43401F58375F003EE84F0EFBE
:1022620024D9FDE43401FE8D828E83E0F5408F8215
:10227200C007C006C005121DCCD005D006D007EF9E
:1022820024D3F582E43401F583E0FC8D828E83E071
:10229200FDECB505098F82C007121EEDD0070FBFF6
:1022A200030050030221AF22AF82BF030050498FC7
:1022B200F005F07D017E008006ED2DFDEE33FED5AA
:1022C200F0F7AB2E7C00ED5203EE5204EB4C60288B
:1022D200AB2F7C00ED5203EE5204EB4C701AAB1A9A
:1022E200FCEB5205EC5206ED4E700DEF24BBF5826D
:1022F200E43401F5837410F022AF8274075FF52E87
:1023020022AF82530701E54BFE24DE50027E21EF0D
:10231200B53905EEB53A01228F398E3A022191E59F
:1023220082F55025E02430F8A64D08A64EE550244B
:1023320036F8A64FE55075F002A4FDAEF024C7FBB7
:10234200EE3401FC854D82854E83C006C005C00473
:10235200C003121F73AA82AF83D003D004D005D06A
:10236200068B828C83EAF0EFA3F0ED24CDFCEE34F1
:1023720001FF854F82C007C006C005C004121F8A34
:10238200AA82AB83D004D005D006D0078C828F837B
:10239200EAF0EBA3F08550F005F07401800225E02D
:1023A200D5F0FBFFE54C6036EF552F7031E5502438
:1023B200BEF582E43401F583E550242BF9E7F0EF12
:1023C200422FE55024BBF582E43401F583E4F0EDBD
:1023D20024C1F582EE3401F583E4F0A3F022E54C4A
:1023E200703DEF552F603874FF6F522FE55024BBBC
:1023F200F582E43401F583E4F0ED24C1F582EE3494
:1024020001F583E4F0A3F0E550242BF9E55024BE56
:10241200F582E43401F583E0F7753E01753F02224F
:10242200121C75E5827005F582021EA3E52F600B72
:10243200E4F53BF53C7582FF021EA3E5397069FFA6
:102442008FF005F07D017E008006ED2DFDEE33FE5E
:10245200D5F0F7AB3D7C00EB5205EC5206ED4E7029
:1024620040EF24DFFDE43401FE8D828E83E0703183
:10247200EF242BF9E7602AEF24D3FDE43401FE8D2B
:10248200828E83E0701BEF24D6FDE43401FE8D8240
:102492008E83E0700C7540FF8F82C007121DCCD076
:1024A200070FBF0300409922121888E582600BE4EF
:1024B200F53BF53C7582FF021EA37F008FF005F00D
:1024C2007D017E008006ED2DFDEE33FED5F0F7ABEB
:1024D2003D7C00EB5205EC5206ED4E701EEF24DF00
:1024E200FDE43401FE8D828E83E0700FEF24D6FD71
:1024F200E43401FE8D828E83E070060FBF0300403C
:10250200BBBF0300400122E53A24DE50067E217F54
:10251200008004AE3A7F00EE2EFEEF33FFEE24B7CA
:10252200F582EF3434F583E493FEA3E493FF8E0443
:102532008F05EE4F7005F582021EA38C758D769085
:1025420000C812346AAE82AF83C3E53B94FFE53C18
:1025520094FF5008053BE4B53B02053CC3E53B9EB6
:10256200E53C9F4006758200021EA3227F00EF24F5
:10257200D3FDE43401FE8D828E83E07015EF245288
:10258200F87600EF2455F87600EF2458F87600022A
:1025920027438FF005F07D017E008006ED2DFDEED4
:1025A20033FED5F0F7AB1A7C00ED5203EE5204EB8A
:1025B2004C60268F427582FFC007121F401229917C
:1025C200AC82D007EF2452F8A604EF2455F8A604F3
:1025D200EF2458F8A604022743AB2F7C00EB5205E8
:1025E200EC5206ED4E6033EF75F002A4FDAEF0241E
:1025F200C1F582EE3401F583E0A3E0FBED24CDF5D5
:1026020082EE3401F583E0F543A3E0F5448B82C00A
:1026120007121FB1AE82D0078028EF24BBF582E4F7
:102622003401F583E0FD60187410C39DFD3395E01D
:10263200FCED24A7F582EC3434F583E493FE8002AA
:102642007EFFEF2452F9EF75F003A424EEFC74012F
:1026520035F0FD8C828D83E0FB8F418B82C007C0F9
:1026620006C005C004C001121F18D001D004D00555
:10267200D006D0078F42C007C006C005C004C00103
:10268200121F40122991D001D004D005D0068E45E8
:10269200C006C005C004C001121FFEE582D001D0F1
:1026A20004D005D006D007F7EF2455F98C828D832C
:1026B200A3E0FB8F418B82C007C006C005C004C0E7
:1026C20001121F18D001D004D005D006D0078F42C6
:1026D200C007C006C005C004C001121F40122991E4
:1026E200D001D004D005D0068E45C006C005C00476
:1026F200C001121FFEE582D001D004D005D006D061
:1027020007F7EF2458F98C828D83A3A3E0FD8F4154
:102712008D82C007C006C001121F18D001D006D09A
:10272200078F42C007C006C001121F40122991D074
:1027320001D0068E45C001121FFEE582D001D007EE
:10274200F70FBF03005003022570C2AF7F00EF24D2
:1027520052F98782EF2455F98762EF2458F987638B
:10276200C00712299AD0070FBF030040E1D2AF7F02
:1027720000EF24BBFDE43401FE8D828E83E0FC6019
:10278200071C8D828E83ECF00FBF030040E375516E
:10279200008551F005F07D017E008006ED2DFDEEF5
:1027A20033FED5F0F7AB2F7C00EB5205EC5206ED71
:1027B2004E6037E55175F002A4FDAEF024C1FBEE88
:1027C2003401FC8B828C83E0FAA3E0FFED24C7F591
:1027D20082EE3401F583E0FDA3E0FEED2AFAEE3F3E
:1027E200FF8B828C83EAF0EFA3F0055174FD255133
:1027F200509F022021755B00E55B24BBF582E43427
:1028020001F583E4F0E55B24BEF582E43401F5834F
:10281200E4F0E55B75F002A4FDAEF024C1F582EEB2
:102822003401F583E4F0A3F0E55B255B2430F87610
:10283200F4087601E55B2436F87614ED24C7FBEE46
:102842003401FC9001F4C006C005C004C003121F8D
:1028520073AA82AF83D003D004D005D0068B828CBA
:1028620083EAF0EFA3F0ED24CDFDEE3401FE758294
:1028720014C006C005121F8AAC82AF83D005D006F1
:102882008D828E83ECF0EFA3F0E55B24D3F582E436
:102892003401F583E4F0E55B24D6F582E43401F5F6
:1028A20083E4F0E55B24D9F582E43401F583E4F0B6
:1028B200E55B24DCF582E43401F583E4F0E55B2496
:1028C200DFF582E43401F583E4F0055B74FD255BFA
:1028D20040030227FA121CE8E4F53DF53EF53FF508
:1028E2003BF53CF52F22E582FF6005BF010B80031B
:1028F200022191753E01753F0222AF82BF02028022
:1029020005BF030E8006855E820222AA855E8202D0
:1029120022FB22AF82BF040985614B8560820223BC
:102922000322AF82BF0300400122EF75F003A4240B
:1029320022FFF9A775EF04F8A67674022FF8A6779E
:1029420022AF82BF0300400122EF242BF8A675229A
:10295200AF827E00EE242BF8A6070EBE030040F4E1
:1029620022122422E53E600EE53F6004153F8006F8
:09297200753E001221A902256E38
:1034A700C88C645A647D9BB4C8DAE8F2F8FCFEFF66
:1034B70000000100030005000A0014001E00280098
:1034C70032003C00460050005A0064006E0078004D
:1034D70082008C009600A000AA00B400BE00C800BD
:1034E700D200DC00E600F000FA0004010E0118012A
:0434F70022012C0181
:10297B007F08C58233D2B492B4000000000000C2BD
:10298B00B40000DFEF22E5829034FB93F58222AF97
:10299B0082856282C00712297BD0078F8212297B26
:1029AB0085638202297BE5829034FB93FFE564907B
:1029BB0034FB93F562E5659034FB93F5638F8202EC
:1029CB00299AE582FF23235403FE743F5F8566F04B
:1029DB0005F0800225E0D5F0FBFF8566F005F0746D
:1029EB003F800225E0D5F0FB8F04C39CFDEE600A0F
:1029FB00BE0102800FBE022080148F647565008DAE
:102A0B00820229B18D648F657582000229B17564CC
:092A1B00008D658F820229B122B1
:1034FB0000000000000000000000000000000000C1
:10350B0000000000000000000000000001010101AC
:10351B000101010101010101010202020202020289
:10352B000203030303030303040404040405050556
:10353B000506060606070707070808080909090A0A
:10354B000A0A0B0B0B0C0C0D0D0D0E0E0F0F1010A2
:10355B001111121213131414151516161718181916
:10356B00191A1B1B1C1D1D1E1F2020212223232467
:10357B002526272728292A2B2C2D2E2F3031323286
:10358B003334363738393A3B3C3D3E3F4042434477
:10359B00454648494A4B4D4E4F5152535556575934
:1035AB005A5C5D5F606263656668696B6D6E7072B5
:1035BB00737577787A7C7E7F81838587898A8C8EF9
:1035CB0090929496989A9C9EA0A2A4A7A9ABADAFFB
:1035DB00B1B4B6B8BABDBFC1C4C6C8CBCDD0D2D5B5
:1035EB00D7DADCDFE1E4E7E9ECEFF1F4F7F9FCFF24
:1000CB009001FA7401F09001FBE4F09001FCF090C8
:1000DB0001FDF09001FEF09001FFF0900200F09016
:1000EB000201F0900202F09002037402F0900204FD
:1000FB00E4F0900205F0900206F0900207F09002F7
:10010B0008F0900209F090020AF090020BF09002B6
:10011B000C7403F090020DE4F090020EF090020FBD
:05012B00F0900210F04D
:102A2400AF82BF880040088F06EE2478FE803EBF48
:102A3400800040229001FBE0FD8F04EC2480F5F03F
:102A440005F07401800225E0D5F0FB42059001FBFE
:102A5400EDF07E008017EF9035FB93FE700122EEBF
:102A640030E70A9001FBE04402F053067F7F03EF56
:102A740024FAF582E43401F583E0B50601220FBFA0
:102A8400090040EB7F03EF24FAFCE43401FD8C825F
:102A94008D83E0700F8C828D83EEF0757509900143
:102AA400FA0232430FBF090040DC22AF82BF880024
:102AB40040088F06EE2478FE803FBF8000402390BC
:102AC40001FBE0FD8F04EC2480F5F005F074018037
:102AD4000225E0D5F0FBF452059001FBEDF07E00F9
:102AE4008017EF9035FB93FE700122EE30E70A90D9
:102AF40001FBE054FDF053067F7F03EF24FAFCE46E
:102B04003401FD8C828D83E0B506068C828D83E4CE
:102B1400F00FBF090040E47575099001FA023243D1
:102B2400AF82C007122A24D0078F82022AAF7F08FF
:102B3400EF24FAF582E43401F583E4F0DFF27575ED
:102B4400099001FA023243AD82AE83AFF08D828EDA
:102B5400838FF0123487FC60188C820DBD00010E47
:102B6400C007C006C005122B24D005D006D00780AC
:102B7400DC22AF82E5677001229001FBE0420790FE
:102B840001FBEFF07F03EF24FAF582E43401F583CF
:102B9400E0B56701220FBF090040EB7F03EF24FA81
:102BA400FDE43401FE8D828E83E070108D828E836D
:102BB400E567F07575099001FA0232430FBF090009
:102BC40040DB22AF82E5687001229001FBE0FE74D5
:102BD400FF6F52069001FBEEF07F03EF24FAFDE451
:102BE4003401FE8D828E83E0B568068D828E83E487
:102BF400F00FBF090040E47575099001FA023243F1
:102C0400AF82856967C007122B76D0078569688F04
:102C140082022BC7AE82AF837D018F037C00ED243B
:102C240003F582E43402F583E07A00B5061CEAB5C4
:102C340007188D020AEA2403F582E43402F583E0DE
:102C44007A00B50305EAB50401228D0274022AFD57
:102C5400BD090040C97D01ED2403FBE43402FC8B73
:102C6400828C83E070328D02EA042403F8E4340297
:102C7400F988828983E070208E018B828C83E9F04D
:102C84000AEA2403F582E43402F5838F04ECF07538
:102C940075099002030232438D0474022CFDBD09B0
:102CA4000040B42285826A85836B7D01AB6B7C0016
:102CB400ED2403F9E43402FA89828A83E07F00B5C3
:102CC4006A2FEFB56B2B8D07EF042403F582E434F0
:102CD40002F583E0F87E00B50317EEB5041389828C
:102CE4008A83E4F00FEF2403F582E43402F583E4ED
:102CF400F08D0774022FFDBD090040B4757509906D
:102D04000203023243AE82AF83C007C006122C18FE
:102D1400D006D0078E828F83022CA87F08EF24036D
:102D2400F582E43402F583E4F0DFF275750990026C
:102D340003023243AF82E4BF100104FE7003BF11EB
:102D44002490020DE4F090020EF090020FF0EE6079
:102D5400047E0180027EFF900210EEF075750590EE
:102D6400020C023243EF5407602590020DE0FE741A
:102D7400075F420690020DEEF090020EE4F090021E
:102D84000FF0900210F075750590020C0232432288
:102D9400AF82BF10028003BF110E900210E4F075E1
:102DA400750590020C023243EF5407602690020D21
:102DB400E0FE74075FF4520690020DEEF090020EEE
:102DC400E4F090020FF0900210F075750590020C7B
:102DD40002324322AF82C007122D38D0078F8202FD
:102DE4002D9490020DE4F090020EF090020FF090FA
:102DF4000210F075750590020C023243900053E006
:032E0400F5822232
:1035FB0000000000000000002A2B28000000000043
:10360B0000000000000000000000000000000000AF
:10361B002C9EB4A0A1A2A434A6A7A5AE362D3738F4
:10362B00271E1F20212223242526B333B62EB7B8FD
:10363B009F8485868788898A8B8C8D8E8F909192BB
:10364B00939495969798999A9B9C9D2F3130A3AD07
:10365B00350405060708090A0B0C0D0E0F10111285
:10366B00131415161718191A1B1C1DAFB1B0B50082
:10367B001201100100000040891190880002010224
:10368B00030109024900020100801909040000022C
:10369B000301010409211001210122950007058175
:1036AB000310000A0705010310000A0904010002B8
:1036BB0003000000092110012101221D0007050252
:1036CB000320000A0705820320000A05010906A151
:1036DB00018501050719E029E715002501950875F6
:1036EB000181029501750881039506750815002661
:1036FB00FF000507190029E78100050819012905B5
:10370B00150025019505750191029501750391032E
:10371B00C0050C0901A1018502150026FF03190044
:10372B002AFF03950475108100C005010902A10150
:10373B0085030901A10005091901290315002501BC
:10374B00950375018102950175058103050109300A
:10375B00093109381581257F750895038106C0C08D
:10376B00950660FF0961A1010962150026FF00950E
:10377B002075088102096391020964B102C01D041E
:10378B000309041A034F00700065006E004D0061C1
:10379B0000630072006F0050006100640026034359
:1037AB00004800350035003200200052004700422F
:1037BB000020004D006100630072006F005000613B
:1037CB0000640014034300480035003500320078D4
:1037DB00004800490044001A034800490044002DEA
:1037EB00004B006500790062006F0061007200649D
:0137FB0000CD
:102E0700C007AF8205A290000015A2857082857168
:102E170083E493A3A5DFFAD00722AFDBBF080280C4
:102E27000302311C900007E0FE7F00900006E0FDE2
:102E37007C004FF56CEC4EF56D900001E0F56E905F
:102E47000000E0FE546060081232DBAF8202311EE0
:102E5700E56E24F45003023118E56E240B83F582E6
:102E6700E56E241083F583E473FABD1840188D8846
:102E77001899B41E1E302F3130312F2E312F2F319C
:102E870031900003E0FEBE01028012BE02028018EC
:102E9700BE0302801EBE2202806B022F3A75707B32
:102EA7007571367F12022F3C75708D7571367F49AB
:102EB700022F3C900002E0FE24FB4038EE2E902EBD
:102EC700C9738008800E8014801A802075708A75F7
:102ED7007137802675708E757137801E7570A8756D
:102EE700713780167570CE757137800E7570E27503
:102EF700713780067570CE757137857082857183DD
:102F0700E493FF8030900004E0700E7570D6757101
:102F1700369036A6E493FF801C900004E0FEBE01C5
:102F27000E75706C7571379036C6E493FF80067F17
:102F3700FF80027FFFBFFF0302311E8F057E00C3A4
:102F4700ED956CEE956D50048D6C8E6DAD6CAE6D20
:102F5700C3ED9440EE940040047D408002AD6C8D3B
:102F6700078F82122E078F057E00AB6CAC6DEBC30B
:102F77009DFBEC9EFC8B6C8C6DEF2570F570E4353A
:102F870071F57102311E900002E0F56C756D00025B
:102F9700311E900000E56FF0AD6CAE6DC3ED94018E
:102FA700EE9400500302311E7F0102311E90000291
:102FB700E0F56F02311E900000E0541F702D900065
:102FC70003E0FD7E00900002E07B004206EB420535
:102FD700BE0113BD0010903694E49330E50302312F
:102FE7001E7FFF02311E7FFF02311E900000E0FEB0
:102FF70053061FBE023E900004E0FEBE0102802978
:10300700BE02028013BE81028014BE822274BC55A8
:10301700D44402F5D402311E53D47302311E74BC5A
:1030270055D24402F5D202311E53D27302311E7FAC
:10303700FF02311E7FFF02311E900000E0541F7017
:103047002D900003E0FD7E00900002E07B00420629
:10305700EB4205BE0113BD0010903694E49330E5B2
:103067000302311E7FFF02311E7FFF02311E9000D7
:1030770000E0FE53061FBE0276900003E0FD7E00CF
:10308700900002E07B004206EB4205EE4D705C903B
:103097000005E0FD7E00900004E07B004206EB4265
:1030A70005BE0105BD00028034BE0205BD000280D9
:1030B70018BE8105BD0002801ABE822BBD00287490
:1030C700BF55D44403F5D4804E747F55D4440CF5D2
:1030D700D4804474BF55D24403F5D2803A747F55E7
:1030E700D2440CF5D280307FFF802C7FFF80287F71
:1030F700FF8024900000E4F0900001F0AD6CAE6D0D
:10310700C3ED9402EE940040047F02800AAF6C8006
:10311700067FFF80027FFFBFFF07756EFF75DCCF5D
:1031270022EF24BF40068FDD75DCC02275DD0075F8
:10313700DCC0227405B56E0280407406B56E49AED8
:103147006CAF6DC3EE9440EF940040047E40800264
:10315700AE6C8E82122E078E057F00AB6CAC6DEBCA
:10316700C39DFBEC9FFC8B6C8C6DEE2570F570E4BA
:103177003571F5718EDD63DC4022E5E35480FFE5B0
:103187006C4FF5E375DC022275DD0075DC02221257
:10319700335675DD0043DC022230D95BE5D9540F85
:1031A700FFE5D95430FE600FBE10028048BE2002F2
:1031B7008021BE30408038EF600ABF0102800ABF1D
:1031C7000233800A123196802C123402802712347F
:1031D700168022EF600ABF0102800ABF0217800A29
:1031E70012313A80101233F4800B1234338006EF19
:1031F7007003122E21C2D930D80F75DC021233E9C1
:1032070075E300C2DAC2D9C2D810DA0122E5DA20A2
:10321700E20375D8FF2275E22975D181E4F5ECF553
:10322700ED75DC0212327443E10743D81FD2EAD2AC
:05323700AF75DD00226F
:10013000757400C204C205900211E4F0900212F03E
:04014000900213F026
:10323C0012321D75D30022AE82AF832004FD7D00B7
:10324C00C3ED95755019ED2480FBE43400FCED2E94
:10325C00F582E43FF583E08B828C83F00D80E18571
:10326C0075D3D20453D2FC2275EE4075EF0075E491
:10327C005275E50075D21275D41275EAC075EB0C57
:10328C0022AE82AF832005FDE57524DF50037575F2
:10329C00207D00C3ED9575502DED2452FBE43400D8
:1032AC00FCED2EF9E43FFA89828A83E08B828C83D1
:1032BC00F0ED2414FBE43402FC89828A83E08B82D7
:1032CC008C83F00D80CD8575D5D20553D4FC227539
:1032DC007400900001E0FFBF090B900004E004F5BE
:1032EC007475820022900001E0FFBF0A02800890F2
:1032FC000001E0FFBF0B0475820022900001E0FF8B
:10330C00BF0128900004E0FFBF01207F008F057EE5
:10331C0000EF2414F582E43402F583E08D828E8371
:10332C00F00FBF200040E675822022900001E0FFE4
:10333C00BF02028008900001E0FFBF03099000006B
:10334C00E4F0758201227582FF227402B57431E5B6
:10335C00DB24DF402B7F00C3EF95DB5016EF2452AC
:10336C00FDE43400FE8F82758300E08D828E83F045
:10337C000F80E4900211E5DBF0900213E4F0801171
:10338C007401B5740CE5DB6008900000E09002124B
:10339C00F075740022900211E0F58222900212E086
:1033AC00F58222900211E4F0900213F053D4F32230
:1033BC00900211E07003F58222900213E02452F582
:1033CC0082E43400F583E0FF900213E004F09002F5
:1033DC0011E014F0E0700353D4F38F822275D212F3
:1033EC0075D412C204C2052275D30074FC55D244A4
:1033FC0002F5D2C2042230DE10900040E0FFBF0183
:10340C0008900041E0900212F02230DE1990021177
:10341C00E5DBF0900213E4F0900211E0600874F325
:10342C0055D44408F5D42275D50074FC55D4440207
:10343C00F5D4C205227A10E4FBFCE58225E0F58286
:10344C00E58333F583EB33FBEC33FCEB9575F5F04F
:0E345C00EC95764006FCABF0438201DADD22EF
:0600C500E478FFF6D8FD0F
:10008E00C000A88118C0D0B6001B18B64800401595
:10009E00B66F005010C0E0E65407B406005004E6F8
:0A00AE0054F8F6D0E0D0D0D00032B4
:10346A00E5828575F0A4C582C0F08576F0A4D0F017
:0D347A0025F0C5838575F0A42583F5832218
:0D00B80075817C1234A3E58260030200898B
:1034870020F71430F6148883A88220F507E6A8836E
:1034970075830022E280F7E49322E02275820022FE
:00000001FF
