:040000000200B83210
:01000B0032C2
:0100130032BA
:01001B0032B2
:0100230032AA
:01002B0032A2
:01003300329A
:01003B003292
:0300430002014770
:100048000000E2FBEAF2802C0000E0FBEAF08024EA
:10005800E6B50202EBF62200E2B50202EBF222005C
:10006800E0B50202EBF02230F6E0A88220F5D3EAF0
:10007800C6F582228B822230F6E6A88220F5D98046
:01008800CFA8
:030144000200892D
:05008900120EC680FE0E
:10014700C021C0E0C0F0C082C083C007C006C005A0
:10015700C004C003C002C001C000C0D075D00012E7
:100167002929D0D0D000D001D002D003D004D005A7
:10017700D006D007D083D082D0F0D0E0D0210200C3
:100187008E7E007F008E05ED75F003A4FDC2AF7C67
:10019700008C03EB75F055A48D022AFBBB80005041
:1001A70005EB2BFA800774FFC39B25E0FA8A03EB64
:1001B70075F0CDA4ABF08B01743229F5657566FF38
:1001C7008A82C007C006C005C00412231DD004D010
:1001D70005D006D0070CBC030040B6D2AF90000C88
:1001E700C007C006120FFED006D00775FF000EBE6F
:1001F70000010F8E048F05C3EC94F0ED9400408549
:1002070022AF827585C0EF2FF58475868E858E8225
:1002170022AF82BF800040012275A15575A1AA4374
:10022700B10475A1007585C0EF2FF584900120E01A
:10023700F58EE58630E60375869A75A15575A1AAF0
:1002470053B1FB75A100227F00EF75F012A42421A2
:10025700FD740135F0FE7C00EC75F003A42DFAE483
:100267003EFB8A828B83E4F08A828B83A3F08A82A7
:100277008B83A3A3F00CBC060040DD0FBF05004035
:10028700C89001237468F090012604F090012904B6
:10029700F090012B7401F090012C74E2F090012E84
:1002A7007401F090012F74E9F09001317401F0901E
:1002B700013274EAF0900135746BF090013804F064
:1002C70090013B04F090013D7401F090013E74CD24
:1002D700F09001407401F090014174B5F090014332
:1002E7007401F090014474B6F07F027572018F8239
:1002F700C007121026D0070FBF050040EE7F00EFA2
:1003070075F003A4247BFD740135F0FE8D828E8386
:10031700E4F08D828E83A3F08D828E83A3A3F00FEA
:10032700BF060040DA7522007523507524FF752536
:10033700007526FF7527507528FF752914752A0043
:100347007F00EF242BF876A00FBF030040F4752E33
:1003570007751700753900753A09227F087E048EE4
:1003670082C007C006120208AD82D006D007ED6230
:10037700070EBE800040E88F8222AE82AF838E04D4
:100387008F05850882C007C006C005C00412020891
:10039700AB82D004D005D006D0078C828D83EBF0DA
:1003A70074012EFCE43FFDE508FB04F582C007C09D
:1003B70006C005C004C003120208AA82D003D004F5
:1003C700D005D006D0078C828D83EAF074022EFC0C
:1003D700E43FFD0B0B8B82C007C006C005C00412AB
:1003E7000208AB82D004D005D006D0078C828D835B
:1003F700EBF08E828F830210A0E58275F012A424A1
:1004070021FE740135F0FF7D00ED75F003A42EF594
:1004170082E43FF5838D04EC75F003A4AB092BF55B
:1004270008C007C006C005120381D005D006D00753
:100437000DBD060040D322AE82AF83E0900120F0CD
:10044700850A82C007C006120218D006D007E50A3F
:10045700FD04FC8E828F83A3E0900120F08C82C084
:1004670007C006C005120218D005D006D0070D0D2B
:100477008E828F83A3A3E0900120F08D8202021861
:10048700758200120208AF82BF4D2D7582011202DC
:1004970008AF82BF5022758202120208AF82BF08DE
:1004A70017758203120208AF82C007120362AE8279
:1004B700D007EFB50602800302024E750904758264
:1004C700001204007F00EF75F003A4247BF582740B
:1004D7000135F0F5838F06EE75F003A42416F508B1
:1004E700C007120381D0070FBF060040D97F018FD5
:1004F70006EE75F012A42416F5098F82C0071204C0
:1005070000D0070FBF050040E67F00EF75F003A49A
:100517002422FEF98F05ED75F003A4FD2470F58202
:10052700C007C006C005C001120208E582D001D08D
:1005370005D006F7EE04F974712DF582C006C005E3
:10054700C001120208E582D001D005D006F7740277
:100557002EF974722DF582C001120208E582D001CE
:10056700D007F70FBF030040A2758279120208E592
:1005770082F52B75827A120208E582F52C75827B4B
:10058700120208E582F52D75827C120208E5825475
:1005970007F52E75827D120208E582540FF517754F
:1005A700827E120208E5825401F53975827F1202B4
:1005B70008E582F53A24DE5003753A21229001209E
:1005C700744DF07582001202189001207450F07576
:1005D70082011202189001207408F075820212023B
:1005E700187F00EF75F003A42421F582E43401F5A8
:1005F700838F06EE75F003A4FE2404F50AC007C036
:100607000612043ED006D007EF75F003A4247BF54D
:1006170082740135F0F58374162EF50AC0071204AB
:100627003ED0070FBF060040BA7F01EF75F012A456
:100637002421FD740135F0FE7C00EC75F003A42D38
:10064700F582E43EF5838F03EB75F012A42416FBC5
:100657008C02EA75F003A42BF50AC007C006C00593
:10066700C00412043ED004D005D006D0070CBC0647
:100677000040C70FBF050040B27F008F06EE75F040
:1006870003A4FE2470FDEF75F003A42422FCF99067
:100697000120E7F08D82C007C006C004120218D0FF
:1006A70004D00674712EFDEC04F9900120E7F08D5B
:1006B70082C006C004120218D004D00674722EFE3F
:1006C70074022CF9900120E7F08E82120218D007ED
:1006D7000FBF030040A5900120E52BF0758279122A
:1006E7000218900120E52CF075827A120218900109
:1006F70020E52DF075827B120218E52E900120541B
:1007070007F075827C120218E517900120540FF04C
:1007170075827D120218E5399001205401F0758227
:100727007E120218E53A24DE50047F218004AE3A97
:100737008E07900120EFF075827F12021812036274
:10074700E582900120F0758203020218AF827E00D5
:10075700EE2400F582E43401F583E4F00EBE2000B8
:1007670040EE430780900100EFF0900101E572F041
:1007770022AF82C3E50B950C500C7572028F821263
:1007870007537582002275820122AF82755D01755C
:100797008201C007122254D0077572008F820207A8
:1007A70053E582FF70167401B57211E57375F00396
:1007B700A4247BF582740135F0F58322EF75F012DE
:1007C700A42421FE740135F0FFE57375F003A42E10
:1007D700F582E43FF5832285820F7E00850D728EB8
:1007E70073850F82C0061207A8AC82AD83D0068E30
:1007F70003EB75F003A4FBAA0E2AF83395E0F9E89A
:100807002400F8E93401F98C828D83E0888289839A
:10081700F0EA042BF93395E0FFE92400F9EF3401FE
:10082700FF8C828D83A3E089828F83F074022A2B49
:10083700FB3395E0FFEB2400FBEF3401FF8C828D47
:1008470083A3A3E08B828F83F00EBE0600408D2228
:100857008582127E008510728E73851282C0061201
:1008670007A8858213858314D006AA13AB148E01BB
:10087700E975F003A4F9A81128FD3395E0FFED24ED
:1008870000F582EF3401F583E08A828B83F07401EF
:100897002513FDE43514FFE80429FC3395E0FBEC50
:1008A7002400F582EB3401F583E024FD50047C003D
:1008B7008014E80429F93395E0FBE92400F582EB7D
:1008C7003401F583E0FC8D828F83ECF074022513ED
:1008D700FDE43514FF08088E04EC75F003A428F82E
:1008E7003395E0FCE82400F582EC3401F583E08DD4
:1008F700828F83F00EBE0600500302085C22122B83
:100907002AE582FF7001227E00C3EE9F502BBE2096
:10091700005026EE2400FCE43401FDC007C006C0E9
:1009270005C004122B3EAB82D004D005D006D007F9
:100937008C828D83EBF00E80D0C007122B31D0074D
:10094700900100E0FE24EE5003020E98EE240A8385
:10095700F582EE241683F583E4739885A57A8FEFE5
:10096700666617F7EB612D4DA298EB7A0E090C0B13
:100977000C090E0E0D0D0B0C0E0A0A0E0A0E8F0B2C
:10098700750C0A8E82C006120778E582D0067003BE
:10099700020EA47D008D04EC75F003A4FC04240072
:1009A700F582E43401F583E0F57274022C2400F536
:1009B70082E43401F583E0F5730C0C0CEC2400F5AC
:1009C70082E43401F583E0F5748D82C006C0051218
:1009D7002290D005D0060DBD030040B98E82C00617
:1009E700120791D006020EA48F0B750C028E82C0DF
:1009F70007C006120778E582D006D0077003020EFB
:100A0700A4BF040040277D008D040CEC2400F58270
:100A1700E43401F583E0F5728D82C006C005122229
:100A2700AFD005D0060DBD030040DD800D9001015C
:100A3700E0F582C0061222BED0068E82C0061207DB
:100A470091D006020EA48F0B750C058E82C006127C
:100A57000778E582D0067003020EA4900101E0FD3D
:100A6700BD0300400F7572018E82C006120753D076
:100A770006020EA4900102E0F572900103E0F573FF
:100A8700900104E0F5748D82C006122290D0068E84
:100A970082C006120791D006020EA48F0B750C03B5
:100AA7008E82C006120778E582D0067003020EA474
:100AB700900101E0FDBD0300400F7572018E82C0F9
:100AC70006120753D006020EA4900102E0F5728DBC
:100AD70082C0061222AFD0068E82C006120791D0BE
:100AE70006020EA4900103E0FD7C00900104E0FAE9
:100AF700E44205EA42048F0B750C068E82C006C0DD
:100B070005C004120778E582D004D005D00670032B
:100B1700020EA4900101E0FBBB030050238D158C4E
:100B270016C3E51594F4E5169401401474B89515A9
:100B3700740B9516400A900105E0FABA0200500FAF
:100B47007572018E82C006120753D006020EA4905A
:100B57000102E0F54D8D4E8C4F8A508B82C00612F4
:100B67001CAAD0067572008E82C006120753D006E3
:100B7700020EA47D007C02BF15004007900102E031
:100B8700FD7C038C0374122BF50C8F0B8E82C00631
:100B9700C005C004120778E582D004D005D00670DE
:100BA70003020EA4900101E0FBBB0500500BBD0240
:100BB700005006ED6012EB600F7572018E82C00661
:100BC700120753D006020EA48D108C118B82C0061B
:100BD700120857D0067572008E82C006120753D0CE
:100BE70006020EA4BF03004007900102E0FD800249
:100BF7007D008F0B750C028E82C006C00512077828
:100C0700E582D005D0067003020EA4900101E0FC36
:100C1700BC0500500BBD02005006ED6012EC600FE2
:100C27007572018E82C006120753D006020EA47594
:100C370072008E82C006C005C004120753D004D0CC
:100C470005900102ECF0900103EDF08D0D750E0497
:100C57008C821207DED006020EA48F0B750C028E53
:100C670082C006120778E582D0067003020EA490B0
:100C77000101E0FD740F5DF5177572008E82C006E5
:100C8700120753D006020EA4C0061205C4D006757B
:100C970072008E82C006120753D006020EA4757228
:100CA700008E82C0061207539001027407F0E51701
:100CB700540F900103F0750D00750E047582001234
:100CC70007DED0067D008D04EC75F003A4FC241626
:100CD7002400F582E43401F583ED75F003A42422A2
:100CE700FBF9E7F074172C2400F582E43401F5834F
:100CF700EB04F9E7F074182C2400F582E43401F5CD
:100D07008374022BF9E7F00DBD030040B9020EA46E
:100D17007572008E82C006120753D0067D008D04BF
:100D27000C0CEC2400F582E43401F583ED242BF957
:100D3700E7F08D04EC75F003A4FC24052400F5828C
:100D4700E43401F583ED75F003A42422FBF9E7F001
:100D570074062C2400F582E43401F583EB04F9E7EB
:100D6700F074072C2400F582E43401F58374022B18
:100D7700F9E7F00DBD030040A5E52E540790010EDD
:100D8700F0E539540190010FF0E53A24DE50047D77
:100D9700218004AC3A8C05900110EDF0E52F540743
:100DA700900111F07D008D04EC2CFC24122400F539
:100DB70082E43401F583ED2D2430F9E7F074132C28
:100DC7002400F582E43401F5838703098704198C2D
:100DD70003EBF08D0474182C2400F582E43401F53C
:100DE70083ED2436F9E7F00DBD030040B9020EA4E8
:100DF7008F0B750C028E82C006120778E582D0062B
:100E07007003020EA4900101E0F55F755E01758223
:100E170003C006122268D0067572008E82C00612C1
:100E27000753D00680778F0B750C038E82C006128E
:100E37000778E582D0066065900101E0F5619001D1
:100E470002E0F562756001758204C006122281D046
:100E5700067572008E82C006120753D006803E7553
:100E670072008E82C006120753D0069001027407E3
:100E7700F0802A7572008E82C006120753D0069042
:100E870001027401F0900103E4F090010404F08082
:100E97000C7572018E82C006120753D00675722038
:100EA700900100C006122A16D006BE061190003225
:100EB700120FFE75E200C2AF75890012380022C218
:100EC700B45396EF43971020911F900119120FDF2B
:100ED7007F097582FFC0071222E7D007DFF475E2AA
:100EE70000C2AF75890012380075A15575A1AA53C4
:100EF700B9F843B90575A100900005120FFE75FFFB
:100F07000075A15575A1AA43B10175A10012018809
:100F17001229C512024E1204871215771221637522
:100F27005D02758200122254A291B39200E433F558
:100F37001C751D007582001214AEA297B39200E4CF
:100F470033F51C751D017582011214AEA296B3927A
:100F570000E433F51C751D027582021214AEA2B3AC
:100F6700B39200E433F51C751DFF7582031214AEAE
:100F770020B153755D007582001222541211FCAF27
:100F87008230B0047E0480027E0590000AC007C04C
:100F970006120FFED006D00720B10575FF0080F8B6
:100FA700EF70078E821211A6801CEF75F012A42431
:100FB70021FD740135F0FFEE75F003A42DF582E4F1
:100FC7003FF5831211331209051222CF9000051243
:100FD7000FFE75FF00020F2FAE82AF83EE4F601634
:100FE700E5A104F5A1E5A104F5A1E5A104F5A11E7C
:100FF700BEFF011F80E622AE82AF83EE4F601590E1
:1010070003E8C007C006120FDFD006D0071EBEFFD9
:05101700011F80E7222B
:10101D00C007AF82DFFED00722E58275F012A4244F
:10102D0021FE740135F0FFE57275F012A42421F54F
:10103D0074740135F0F575757300E57375F003A4DF
:10104D00FA2EF8E43FF9C006C00788038907EA25A0
:10105D0074FAE43575FE8A828E83E08B828F83F07D
:10106D00740128FDE439FF8A828E83A3E08D828F7F
:10107D0083F0740228F8E439F98A828E83A3A3E001
:10108D0088828983F00573C3E5739406D007D00673
:10109D0040A822AE82AF830EBE00010F8E828F83D9
:1010AD00E024FD50068E828F83E4F022AE82AF8362
:1010BD00A3E0FD70148E828F83E0FC8E828F83A35C
:1010CD00A3E0F5678C82022339BD01118E828F83D7
:1010DD00A3A3E0FD7C008D828C830223DB8E828FA7
:1010ED0083A3A3E0F5820224E2AE82AF83A3E0FDE9
:1010FD0070148E828F83E0FC8E828F83A3A3E0F524
:10110D00688C8202238ABD01118E828F83A3A3E096
:10111D00FD7C008D828C8302246B8E828F83A3A332
:10112D00E0F58202253EAE82AF83A3E0FD70148E02
:10113D00828F83E0FC8E828F83A3A3E0F5698C827E
:10114D000223C7BD01118E828F83A3A3E0FD7C0016
:10115D008D828C830224CC8E828F83A3A3E0F582B3
:10116D00022582AE82AF8374022EFCE43FFD8C8299
:10117D008D83E0701B8E048F058C828D83E0701043
:10118D000EBE00010F8E828F83E07004C2018002BB
:10119D00D201A201E433F58222E582FF75F003A4AA
:1011AD002421F582E43401F583C007121133D007F1
:1011BD00EF75F003A4FEAFF0247BF582EF3401F55B
:1011CD0083C007C006121170E582D006D007601EDD
:1011DD00900028C007C006120FFED006D00775FF7D
:1011ED0000EE247BF582EF3401F583021133227F6B
:1011FD00007E008EF005F07C017D008006EC2CFC5D
:10120D00ED33FDD5F0F7AA187B00EA5204EB520539
:10121D00EC4D60068F050D8D82220E8E07BE0400EB
:10122D0040D175820022900193E0701A900194E0F4
:10123D007014900195E0700E900196E07008E5181D
:10124D007004C2028002D202A202E433F58222852A
:10125D00821A74FA251A500122E51A248DFDE43400
:10126D0001FE8D828E83E0FC74FC251A4022851AC6
:10127D00F005F07A017B008006EA2AFAEB33FBD504
:10128D00F0F7A8177900E85202E95203EA4B70040F
:10129D00C2038002D203A203E433FBEC600302130A
:1012AD00B0E51960030213B0E51A24B5F582E434F4
:1012BD0001F583E0FA755D00758200C006C005C0BA
:1012CD0003C002122254D002755E008A5F7582023D
:1012DD00122268D003D005D006EB601DE51A24A5B7
:1012ED00F582E43401F583E4F0E51A24AFF582E4E8
:1012FD003401F583E4F00213A8E51A24A9F9E434C6
:10130D0001FAC006C005C002C0011211FCA882D0AE
:10131D0001D002D005D00689828A83E8F0E87045B5
:10132D00E51A75F003A4247BF582740135F0F5837D
:10133D00C006C005C002C001121170E582D001D0F7
:10134D0002D005D006601E851A82C006C005121196
:10135D00A6D005D006E51A24AFF582E43401F58355
:10136D007401F0803689828A83E075F012A42421FD
:10137D00F9740135F0FAE51A75F003A429F582E444
:10138D003AF583C006C0051210B9D005D006E51A8E
:10139D0024AFF582E43401F583E4F08D828E8374FD
:1013AD0001F022BC0103EC8001E4FA60487402B53F
:1013BD001943EB603FE51A24A5F8E43401F988825E
:1013CD008983E0F51BC394FF5008E51B04888289CF
:1013DD0083F088828983E0F8B828004017851AF0D9
:1013ED0005F07401800225E0D5F0FB42188D828E48
:1013FD00837402F022EA7006BC020280012274019D
:10140D00B51902800122EB6045BC0213851AF00567
:10141D00F07401800225E0D5F0FBF452188020E530
:10142D001A24A5F582E43401F583E0FFBF040040E2
:10143D000E851A82C006C0051211A6D005D006E58C
:10144D001A24A5F582E43401F583E4F08040E51A11
:10145D0024AFFCE43401FF8C828F83E07030E51AF9
:10146D0024A9F582E43401F583E075F012A424215A
:10147D00FC740135F0FFE51A75F003A42CF582E438
:10148D003FF583C006C0051210F6D005D006E51A4B
:10149D0024AFF582E43401F583E4F08D828E83F080
:1014AD0022AF82BF0600400122EF24B5F582E4345D
:1014BD0001F583E51DF0EF2499FDE43401FE8D82E5
:1014CD008E83E0B51C0280148D828E83E51CF0EFB7
:1014DD00249FF582E43401F583E4F022EF249FFD8F
:1014ED00E43401FE8D828E83E0FCBC0200500D0CB5
:1014FD008D828E83ECF0BC0200500122E51C601C35
:10150D00EF2493FDE43401FE8D828E83E0700DF5A2
:10151D00198F82C00712125CD0078040E51C601D38
:10152D00EF2493FDE43401FE8D828E83E0600E7511
:10153D0019028F82C00712125CD007801FE51C7044
:10154D001BEF2493FDE43401FE8D828E83E0600C4D
:10155D007519018F82C00712125CD007EF2493F525
:10156D0082E43401F583E51CF0227518007F00EF4D
:10157D00248DF582E43401F583E4F0EF2493F582B4
:10158D00E43401F583E4F0EF2499F582E43401F5B8
:10159D0083E4F0EF249FF582E43401F583E4F0EF6A
:1015AD0024A9F582E43401F583E4F0EF24AFF5824C
:1015BD00E43401F583E4F0EF24B5F582E43401F56C
:1015CD008374FFF00FBF060040A57F00EF24A5F543
:1015DD0082E43401F583E4F00FBF040040EE22E510
:1015ED0082FF24DE50027F21BF040040128F061EB1
:1015FD001E1EEE75F00AA4FEADF08E828D8322EFD5
:10160D00700490000022BF010490000122BF02046B
:10161D009000032290000522E52C452BFFE52D4F70
:10162D00F58222E582FF75F003A424EEF5827401A4
:10163D0035F0F583EF75F003A42422F9E7F0EF758B
:10164D00F003A424EEFD740135F0FE8D828E83A38C
:10165D00EF75F003A4242204F9E7F0EF75F003A46D
:10166D0024EEFD740135F0FE8D828E83A3A3EF75FC
:10167D00F003A424222402F9E7F0EF24F7F582E425
:10168D003401F583EF242BF9E7F0227F008F82C020
:10169D0007121630D0070FBF030040F122AF82C3EF
:1016AD00E5729F5007EFC39572FE8005E572C39FEB
:1016BD00FE8E8222E582FF24F7F582E43401F58364
:1016CD00E0FEEF242BF987728E82C0071216AAAEA8
:1016DD0082D007EF75F003A424EEF582740135F086
:1016ED00F583E0FDEF75F003A42422F987728D8256
:1016FD00C007C0061216AAAD82D006D007C3EE9D54
:10170D0050028D06EF75F003A424EEFC740135F044
:10171D00FD8C828D83A3E0FDEF75F003A4242204DC
:10172D00F987728D82C007C0061216AAAD82D00647
:10173D00D007C3EE9D50028D06EF75F003A424EE85
:10174D00FC740135F0FD8C828D83A3A3E0FDEF7554
:10175D00F003A424222402F987728D82C00612168A
:10176D00AAAF82D006C3EE9F50028F068E8222E56D
:10177D0082FF24D6FDE43401FE8D828E83E0B540D8
:10178D001EEF24DFFBE43401FC8B828C83E0700EB2
:10179D00EF24D3F582E43401F583E0B54001228DC9
:1017AD00828E83E540F0EF24D3F582E43401F58396
:1017BD00E0FEB5400DEF24DFF582E43401F583E45E
:1017CD00F022EF24E2FCE43401FD8C828D83EEF0F7
:1017DD00EF24E5F582E43401F583E540F08C828D4C
:1017ED0083E0FC8540728C82C0071216AAAE82D0AF
:1017FD0007EF24EBFCE43401FDEE75F03CA4FEABE9
:10180D00F08E828B837572FF757300C007C005C0A3
:10181D0004122BC3AB82D004D005D0078C828D83EC
:10182D00EBF0EB70078C828D837401F0EF24E8F5FB
:10183D0082E43401F583E4F0EF24DFF582E4340132
:10184D00F5837401F022AF827E008EF005F07C01ED
:10185D007D008006EC2CFCED33FDD5F0F7AA3D7B29
:10186D0000EA5204EB5205EC4D701EEE24DFFCE451
:10187D003401FD8C828D83E0700F8F408E82C00706
:10188D00C00612177CD006D0070EBE030040BB2247
:10189D00AF82C007121630D0078FF005F0740180AB
:1018AD000225E0D5F0FBF4523DEF24DCF582E43463
:1018BD0001F583E0F5408F8202177CAF82AD417E4A
:1018CD000074012DF572E43EF5738F828E83122B19
:1018DD00ECAF838F8222AF82E54224F7F582E434A8
:1018ED0001F583E0F5418F820218C8AF82E54324EC
:1018FD00D3F582E43401F583E0F5418F820218C8F7
:10190D00757205757300122BC3AE82AF838E728F05
:10191D007390FFFF022BC3AF828FF074FF84FF74AF
:10192D00FFC39FFFE4C3CF13CF13CFFE747E2FF5FC
:10193D0082E43EF58375727F757300022BC3AF820F
:10194D00BF800050048F06800574FFC39FFE8E0775
:10195D0074FFC39E8FF0A4FFE5F0A2E7CF33CF3322
:10196D00CF54018F72757300854482854583122B88
:10197D00ECAE82AF8374402EFEE43FA2E7CE33CEB1
:10198D0033CE540174FFC39EF58222AF8274FFB52E
:10199D0046038F82228546418F820218C875470003
:1019AD00E54724DFFDE43401FE8D828E83E0700374
:1019BD00021AB8E54724E8FBE43401FC8B828C83E2
:1019CD00E0FA0A8B828C83EAF0E54724EBF582E49A
:1019DD003401F583E0F9C3EA994023E54724D3F8B0
:1019ED00E43401FAE54724E5F582E43401F583E0BA
:1019FD0088828A83F08D828E83E4F0021AB8E547DF
:101A0D0024E5F582E43401F583E0FFE54724E2F5B2
:101A1D0082E43401F583E0FEC3EF9E404BE547249D
:101A2D00D3F548E43401F5498F4A754B008E027D9C
:101A3D0000E54AC39AFAE54B9DFD8B828C83E0F558
:101A4D00727573008A828D83C006C001122BECD093
:101A5D00018972757300122BC3AA82D006EA2E85F6
:101A6D004882854983F08043E54724D3F54AE43421
:101A7D0001F54B8E00E4FDFAE8C39FF8ED9AFD8B5E
:101A8D00828C83E0F5728A7388828D83C006C001D3
:101A9D00122BECD0018972757300122BC3AD82D05D
:101AAD0006EEC39D854A82854B83F08547F005F090
:101ABD007E017F008006EE2EFEEF33FFD5F0F7ACF2
:101ACD003D7D00EC5206ED5207EE4F6034E54724A4
:101ADD00DFFEE43401FF8E828F83E07024E547241E
:101AED00D3F582E43401F583E0FFE54724D9F5828F
:101AFD00E43401F583E0FEEFB50606854782121842
:101B0D009D054774FD254740030219AD22E4F53BC1
:101B1D00F53C121625E58260067582FF0218537595
:101B2D008200021853E4F53BF53CFF8F82C007128B
:101B3D0016C1E582D00770308FF005F07D017E0073
:101B4D008006ED2DFDEE33FED5F0F7AB3D7C00EBC1
:101B5D005205EC5206ED4E6003021C298F82C00720
:101B6D00121630D007021C298FF005F07401800287
:101B7D0025E0D5F0FB423DEF242BF9E7701AEF2459
:101B8D00D9F582E43401F583E4F0EF24DCF582E449
:101B9D003401F583E4F08045EF24D3F582E434017C
:101BAD00F583E0FE701BEF24D9F582E43401F58353
:101BBD00E4F0EF24DCF582E43401F58374FFF0806A
:101BCD001CEF24DCF582E43401F583EEF0EF24D92B
:101BDD00F582E43401F58375F003EE84F0EF24D93A
:101BED00FDE43401FE8D828E83E0F5408F82C007C7
:101BFD00C006C00512177CD005D006D007EF24D340
:101C0D00F582E43401F583E0FC8D828E83E0FDECFA
:101C1D00B505098F82C00712189DD0070FBF0300AD
:101C2D005003021B3822AF82BF030050498FF005CD
:101C3D00F07D017E008006ED2DFDEE33FED5F0F733
:101C4D00AB2E7C00ED5203EE5204EB4C6028AB2F13
:101C5D007C00ED5203EE5204EB4C701AAB18FCEB0A
:101C6D005205EC5206ED4E700DEF24BBF582E434B7
:101C7D0001F5837410F022AF8274075FF52E22AF49
:101C8D0082530701E54CFE24DE50027E21EFB5396B
:101C9D0005EEB53A01228F398E3A021B1AE582F50F
:101CAD005125E02430F8A64E08A64FE5512436F80C
:101CBD00A650E55175F002A4FDAEF024C7FBEE343D
:101CCD0001FC854E82854F83C006C005C004C0034C
:101CDD0012190DAA82AF83D003D004D005D0068B84
:101CED00828C83EAF0EFA3F0ED24CDFCEE3401FFFE
:101CFD00855082C007C006C005C004121924AA82EF
:101D0D00AB83D004D005D006D0078C828F83EAF048
:101D1D00EBA3F08551F005F07401800225E0D5F0BC
:101D2D00FBFFE54D6036EF552F7031E55124BEF5C3
:101D3D0082E43401F583E551242BF9E7F0EF422FCE
:101D4D00E55124BBF582E43401F583E4F0ED24C1C3
:101D5D00F582EE3401F583E4F0A3F022E54D703DFC
:101D6D00EF552F603874FF6F522FE55124BBF5826C
:101D7D00E43401F583E4F0ED24C1F582EE3401F590
:101D8D0083E4F0A3F0E551242BF9E55124BEF5824F
:101D9D00E43401F583E0F7753E01753F022212161A
:101DAD0025E5827005F582021853E52F600BE4F5E9
:101DBD003BF53C7582FF021853E5397069FF8FF0D2
:101DCD0005F07D017E008006ED2DFDEE33FED5F094
:101DDD00F7AB3D7C00EB5205EC5206ED4E7040EF3B
:101DED0024DFFDE43401FE8D828E83E07031EF241B
:101DFD002BF9E7602AEF24D3FDE43401FE8D828EAA
:101E0D0083E0701BEF24D6FDE43401FE8D828E83BA
:101E1D00E0700C7540FF8F82C00712177CD0070F42
:101E2D00BF0300409922121233E582600BE4F53BAB
:101E3D00F53C7582FF0218537F008FF005F07D0190
:101E4D007E008006ED2DFDEE33FED5F0F7AB3D7C2B
:101E5D0000EB5205EC5206ED4E701EEF24DFFDE453
:101E6D003401FE8D828E83E0700FEF24D6FDE434B5
:101E7D0001FE8D828E83E070060FBF030040BBBF55
:101E8D000300400122853A821215ECAE82AF838E9B
:101E9D00048F05EE4F7005F5820218538C728D7309
:101EAD009000C8122BECAE82AF83C3E53B94FFE5E7
:101EBD003C94FF5008053BE4B53B02053CC3E53BB4
:101ECD009EE53C9F4006758200021853227F00EF6D
:101EDD0024D3FDE43401FE8D828E83E07015EF2452
:101EED0053F87600EF2456F87600EF2459F8760073
:101EFD000220AF8FF005F07D017E008006ED2DFDF7
:101F0D00EE33FED5F0F7AB187C00ED5203EE520424
:101F1D00EB4C60268F437582FFC0071218F8122212
:101F2D00FDAC82D007EF2453F8A604EF2456F8A693
:101F3D0004EF2459F8A6040220AFAB2F7C00EB521E
:101F4D0005EC5206ED4E6033EF75F002A4FDAEF0D8
:101F5D0024C1F582EE3401F583E0A3E0FBED24CD41
:101F6D00F582EE3401F583E0F544A3E0F5458B826F
:101F7D00C00712194BAE82D0078028EF24BBF58223
:101F8D00E43401F583E0FD60187410C39DFD3395B5
:101F9D00E0FCED240DF582EC342CF583E493FE800A
:101FAD00027EFFEF2453F9EF75F003A424EEFC74C9
:101FBD000135F0FD8C828D83E0FB8F428B82C00753
:101FCD00C006C005C004C0011218E3D001D004D072
:101FDD0005D006D0078F43C007C006C005C004C09A
:101FED00011218F81222FDD001D004D005D0068EB2
:101FFD0046C006C005C004C001121998E582D00183
:10200D00D004D005D006D007F7EF2456F98C828D79
:10201D0083A3E0FB8F428B82C007C006C005C004BE
:10202D00C0011218E3D001D004D005D006D0078F1F
:10203D0043C007C006C005C004C0011218F8122223
:10204D00FDD001D004D005D0068E46C006C005C017
:10205D0004C001121998E582D001D004D005D00634
:10206D00D007F7EF2459F98C828D83A3A3E0FD8F60
:10207D00428D82C007C006C0011218E3D001D00600
:10208D00D0078F43C007C006C0011218F81222FDF9
:10209D00D001D0068E46C001121998E582D001D02C
:1020AD0007F70FBF03005003021EDCC2AF7F00EF26
:1020BD002453F98782EF2456F98763EF2459F98762
:1020CD0064C007122306D0070FBF030040E1D2AF53
:1020DD007F00EF24BBFDE43401FE8D828E83E0FC96
:1020ED0060071C8D828E83ECF00FBF030040E375FB
:1020FD0052008552F005F07D017E008006ED2DFD2C
:10210D00EE33FED5F0F7AB2F7C00EB5205EC52060B
:10211D00ED4E6037E55275F002A4FDAEF024C1FB23
:10212D00EE3401FC8B828C83E0FAA3E0FFED24C733
:10213D00F582EE3401F583E0FDA3E0FEED2AFAEE23
:10214D003FFF8B828C83EAF0EFA3F0055274FD25DF
:10215D0052509F0219AA755C00E55C24BBF582E420
:10216D003401F583E4F0E55C24BEF582E43401F539
:10217D0083E4F0E55C75F002A4FDAEF024C1F582B8
:10218D00EE3401F583E4F0A3F0E55C255C2430F832
:10219D0076F4087601E55C2436F87614ED24C7FB59
:1021AD00EE3401FC9001F4C006C005C004C003125A
:1021BD00190DAA82AF83D003D004D005D0068B822F
:1021CD008C83EAF0EFA3F0ED24CDFDEE3401FE7526
:1021DD008214C006C005121924AC82AF83D005D07D
:1021ED00068D828E83ECF0EFA3F0E55C24D3F582AF
:1021FD00E43401F583E4F0E55C24D6F582E43401A2
:10220D00F583E4F0E55C24D9F582E43401F583E44B
:10221D00F0E55C24DCF582E43401F583E4F0E55C63
:10222D0024DFF582E43401F583E4F0055C74FD25CB
:10223D005C4003022166121698E4F53DF53EF53F2C
:10224D00F53BF53CF52F22E582FF6005BF010B80C4
:10225D0003021B1A753E01753F0222AF82BF0202B7
:10226D008005BF030E8006855F82021C33855F8269
:10227D00021C8422AF82BF040985624C85618202F3
:10228D001C8C22AF82BF0300400122EF75F003A426
:10229D002422FFF9A772EF04F8A67374022FF8A693
:1022AD007422AF82BF0300400122EF242BF8A672E7
:1022BD0022AF827E00EE242BF8A6070EBE0300404F
:1022CD00F422121DABE53E600EE53F6004153F8024
:0A22DD0006753E00121B32021EDAE5
:102C0D00C88C645A647D9BB4C8DAE8F2F8FCFEFF08
:1022E7007F08C58233D2B492B4000000000000C258
:1022F700B40000DFEF22E582902C1D93F58222AF18
:1023070082856382C0071222E7D0078F821222E7F5
:102317008564820222E7E582902C1D93FFE5659094
:102327002C1D93F563E566902C1D93F5648F82024F
:0223370023067B
:102C1D0000000000000000000000000000000000A7
:102C2D000000000000000000000000000101010193
:102C3D000101010101010101010202020202020270
:102C4D00020303030303030304040404040505053D
:102C5D000506060606070707070808080909090AF1
:102C6D000A0A0B0B0B0C0C0D0D0D0E0E0F0F101089
:102C7D0011111212131314141515161617181819FD
:102C8D00191A1B1B1C1D1D1E1F202021222323244E
:102C9D002526272728292A2B2C2D2E2F303132326D
:102CAD003334363738393A3B3C3D3E3F404243445E
:102CBD00454648494A4B4D4E4F515253555657591B
:102CCD005A5C5D5F606263656668696B6D6E70729C
:102CDD00737577787A7C7E7F81838587898A8C8EE0
:102CED0090929496989A9C9EA0A2A4A7A9ABADAFE2
:102CFD00B1B4B6B8BABDBFC1C4C6C8CBCDD0D2D59C
:102D0D00D7DADCDFE1E4E7E9ECEFF1F4F7F9FCFF0A
:1000CB009001FA7401F09001FBE4F09001FCF090C8
:1000DB0001FDF09001FEF09001FFF0900200F09016
:1000EB000201F0900202F09002037402F0900204FD
:1000FB00E4F0900205F0900206F0900207F09002F7
:10010B0008F0900209F090020AF090020BF09002B6
:10011B000C7403F090020DE4F090020EF090020FBD
:05012B00F0900210F04D
:10233900AF82E5677001229001FBE042079001FB43
:10234900EFF07F03EF24FAF582E43401F583E0B579
:102359006701220FBF090040EB7F03EF24FAFDE478
:102369003401FE8D828E83E070108D828E83E56745
:10237900F07572099001FA0229CC0FBF090040DB00
:1023890022AF82E5687001229001FBE0FE74FF6FC5
:1023990052069001FBEEF07F03EF24FAFDE43401CD
:1023A900FE8D828E83E0B568068D828E83E4F00F00
:1023B900BF090040E47572099001FA0229CCAF8285
:1023C900856967C007122339D0078569688F82023A
:1023D900238AAE82AF837D018F037C00ED2403F550
:1023E90082E43402F583E07A00B5061CEAB50718E1
:1023F9008D020AEA2403F582E43402F583E07A00C7
:10240900B50305EAB50401228D0274022AFDBD094E
:102419000040C97D01ED2403FBE43402FC8B828C6E
:1024290083E070328D02EA042403F8E43402F98867
:10243900828983E070208E018B828C83E9F00AEA1D
:102449002403F582E43402F5838F04ECF0757209F4
:102459009002030229CC8D0474022CFDBD090040B1
:10246900B42285826A85836B7D01AB6B7C00ED2488
:1024790003F9E43402FA89828A83E07F00B56A2F7E
:10248900EFB56B2B8D07EF042403F582E43402F5D5
:1024990083E0F87E00B50317EEB5041389828A83B9
:1024A900E4F00FEF2403F582E43402F583E4F08DC0
:1024B9000774022FFDBD090040B47572099002032B
:1024C9000229CCAE82AF83C007C0061223DBD00637
:1024D900D0078E828F8302246BAF82E4BF10010480
:1024E900FE7003BF112490020DE4F090020EF090EB
:1024F900020FF0EE60047E0180027EFF900210EE72
:10250900F075720590020C0229CCEF5407602590F2
:10251900020DE0FE74075F420690020DEEF0900294
:102529000EE4F090020FF0900210F075720590021F
:102539000C0229CC22AF82BF10028003BF110E907A
:102549000210E4F075720590020C0229CCEF5407D1
:10255900602690020DE0FE74075FF4520690020DAA
:10256900EEF090020EE4F090020FF0900210F07578
:10257900720590020C0229CC22AF82C0071224E214
:07258900D0078F8202253EFE
:102D1D00120110010000004089119088000201028B
:102D2D000301090249000201008019090400000293
:102D3D0003010104092110012101229500070581DC
:102D4D000310000A0705010310000A09040100021F
:102D5D0003000000092110012101221D00070502B9
:102D6D000320000A0705820320000A05010906A1B8
:102D7D00018501050719E029E7150025019508755D
:102D8D0001810295017508810395067508150026C8
:102D9D00FF000507190029E781000508190129051C
:102DAD001500250195057501910295017503910396
:102DBD00C0050C0901A1018502150026FF031900AC
:102DCD002AFF03950475108100C005010902A101B8
:102DDD0085030901A1000509190129031500250124
:102DED009503750181029501750581030501093072
:102DFD00093109381581257F750895038106C0C0F5
:102E0D00950660FF0961A1010962150026FF009575
:102E1D002075088102096391020964B102C01D0485
:102E2D000309041A034F00700065006E004D006128
:102E3D0000630072006F00500061006400260343C0
:102E4D000048003500350032002000520047004296
:102E5D000020004D006100630072006F00500061A2
:102E6D00006400140343004800350035003200783B
:102E7D00004800490044001A034800490044002D51
:102E8D00004B006500790062006F00610072006404
:012E9D000034
:10259000C007AF8205A290000015A28570828571E8
:1025A00083E493A3A5DFFAD00722AFDBBF08028044
:1025B000030228A5900007E0FE7F00900006E0FDE2
:1025C0007C004FF56CEC4EF56D900001E0F56E90DF
:1025D0000000E0FE54606008122A64AF820228A75F
:1025E000E56E24F450030228A1E56E240B83F582E6
:1025F000E56E241083F583E4738346A1C9A1161107
:10260000A1223DA7A72827282728272628272728CB
:1026100028900003E0FEBE01028012BE0202801874
:10262000BE0302801EBE2202806B0226C375701D8F
:1026300075712D7F120226C575702F75712D7F491A
:102640000226C5900002E0FE24FB4038EE2E9026C4
:1026500052738008800E8014801A802075702C754B
:10266000712E802675703075712E801E75704A75BA
:10267000712E801675707075712E800E7570847550
:10268000712E800675707075712E857082857183CC
:10269000E493FF8030900004E0700E7570787571DF
:1026A0002D902D48E493FF801C900004E0FEBE01B5
:1026B0000E75700E75712E902D68E493FF80067F65
:1026C000FF80027FFFBFFF030228A78F057E00C3A4
:1026D000ED956CEE956D50048D6C8E6DAD6CAE6DA0
:1026E000C3ED9440EE940040047D408002AD6C8DBB
:1026F000078F821225908F057E00AB6CAC6DEBC30B
:102700009DFBEC9EFC8B6C8C6DEF2570F570E435B9
:1027100071F5710228A7900002E0F56C756D00025A
:1027200028A7900000E56FF0AD6CAE6DC3ED94018D
:10273000EE940050030228A77F010228A790000210
:10274000E0F56F0228A7900000E0541F702D900064
:1027500003E0FD7E00900002E07B004206EB4205B4
:10276000BE0113BD0010902D36E49330E50302281E
:10277000A77FFF0228A77FFF0228A7900000E0FEA6
:1027800053061FBE023E900004E0FEBE01028029F7
:10279000BE02028013BE81028014BE822274BC5528
:1027A000D44402F5D40228A753D4730228A774BCDA
:1027B00055D24402F5D20228A753D2730228A77F2C
:1027C000FF0228A77FFF0228A7900000E0541F7097
:1027D0002D900003E0FD7E00900002E07B004206A9
:1027E000EB4205BE0113BD0010902D36E49330E599
:1027F000030228A77FFF0228A77FFF0228A79000D7
:1028000000E0FE53061FBE0276900003E0FD7E004E
:10281000900002E07B004206EB4205EE4D705C90BA
:102820000005E0FD7E00900004E07B004206EB42E4
:1028300005BE0105BD00028034BE0205BD00028058
:1028400018BE8105BD0002801ABE822BBD0028740F
:10285000BF55D44403F5D4804E747F55D4440CF551
:10286000D4804474BF55D24403F5D2803A747F5566
:10287000D2440CF5D280307FFF802C7FFF80287FF0
:10288000FF8024900000E4F0900001F0AD6CAE6D8C
:10289000C3ED9402EE940040047F02800AAF6C8086
:1028A000067FFF80027FFFBFFF07756EFF75DCCFDD
:1028B00022EF24BF40068FDD75DCC02275DD007578
:1028C000DCC0227405B56E0280407406B56E49AE58
:1028D0006CAF6DC3EE9440EF940040047E408002E4
:1028E000AE6C8E821225908E057F00AB6CAC6DEBCA
:1028F000C39DFBEC9FFC8B6C8C6DEE2570F570E43A
:102900003571F5718EDD63DC4022E5E35480FFE52F
:102910006C4FF5E375DC022275DD0075DC022212D6
:102920002ADF75DD0043DC022230D95BE5D9540F84
:10293000FFE5D95430FE600FBE10028048BE200271
:102940008021BE30408038EF600ABF0102800ABF9C
:102950000233800A12291F802C122B848027122B0D
:10296000988022EF600ABF0102800ABF0217800A26
:102970001228C38010122B76800B122BB58006EF25
:1029800070031225AAC2D930D80F75DC02122B6B46
:1029900075E300C2DAC2D9C2D810DA0122E5DA2022
:1029A000E20375D8FF2275E22975D181E4F5ECF5D3
:1029B000ED75DC021229FD43E10743D81FD2EAD2AC
:0529C000AF75DD0022EF
:10013000751E00C204C205900211E4F0900212F094
:04014000900213F026
:1029C5001229A675D30022AE82AF832004FD7D00B7
:1029D500C3ED95725019ED2480FBE43400FCED2E17
:1029E500F582E43FF583E08B828C83F00D80E185F1
:1029F50072D3D20453D2FC2275EE4075EF0075E414
:102A05005275E50075D21275D41275EAC075EB0CD6
:102A150022AE82AF832005FDE57224DF5003757277
:102A2500207D00C3ED9572502DED2452FBE434005A
:102A3500FCED2EF9E43FFA89828A83E08B828C8350
:102A4500F0ED2414FBE43402FC89828A83E08B8256
:102A55008C83F00D80CD8572D5D20553D4FC2275BB
:102A65001E00900001E0FFBF090B900004E004F593
:102A75001E75820022900001E0FFBF0A02800890C7
:102A85000001E0FFBF0B0475820022900001E0FF0A
:102A9500BF0128900004E0FFBF01207F008F057E65
:102AA50000EF2414F582E43402F583E08D828E83F1
:102AB500F00FBF200040E675822022900001E0FF64
:102AC500BF02028008900001E0FFBF0309900000EB
:102AD500E4F0758201227582FF227402B51E31E58C
:102AE500DB24DF402B7F00C3EF95DB5016EF24522C
:102AF500FDE43400FE8F82758300E08D828E83F0C5
:102B05000F80E4900211E5DBF0900213E4F08011F0
:102B15007401B51E0CE5DB6008900000E090021220
:102B2500F0751E0022900211E0F58222900211E458
:102B3500F0900213F053D4F322900211E07003F5E4
:102B45008222900213E02452F582E43400F583E0FA
:102B5500FF900213E004F0900211E014F0E070031E
:102B650053D4F38F822275D21275D412C204C205D2
:102B75002275D30074FC55D24402F5D2C20422302A
:102B8500DE10900040E0FFBF0108900041E0900298
:102B950012F02230DE19900211E5DBF0900213E409
:102BA500F0900211E0600874F355D44408F5D4227E
:102BB50075D50074FC55D44402F5D4C205227A10AB
:102BC500E4FBFCE58225E0F582E58333F583EB3311
:102BD500FBEC33FCEB9572F5F0EC95734006FCAB22
:072BE500F0438201DADD225A
:0600C500E478FFF6D8FD0F
:10008E00C000A88118C0D0B6001B18B64800401595
:10009E00B66F005010C0E0E65407B406005004E6F8
:0A00AE0054F8F6D0E0D0D0D00032B4
:102BEC00E5828572F0A4C582C0F08573F0A4D0F0A4
:0D2BFC0025F0C5838572F0A42583F58322A2
:0D00B800758175122C09E582600302008934
:042C090075820022AE
:00000001FF
