:040000000200B83210
:01000B0032C2
:0100130032BA
:01001B0032B2
:0100230032AA
:01002B0032A2
:01003300329A
:01003B003292
:0300430002013087
:100048000000E2FBEAF2802C0000E0FBEAF08024EA
:10005800E6B50202EBF62200E2B50202EBF222005C
:10006800E0B50202EBF02230F6E0A88220F5D3EAF0
:10007800C6F582228B822230F6E6A88220F5D98046
:01008800CFA8
:03012D0002008944
:05008900120A9B80FE3D
:10013000C021C0E0C0F0C082C083C007C006C005B7
:10014000C004C003C002C001C000C0D075D00012FE
:100150001393D0D0D000D001D002D003D004D0056A
:10016000D006D007D083D082D0F0D0E0D0210200DA
:100170008EAF827585C0EF2FF58475868E858E8251
:1001800022AF82BF800040012275A15575A1AA430C
:10019000B10475A1007585C0EF2FF584900120E0B2
:1001A000F58EE58630E60375869A75A15575A1AA88
:1001B00053B1FB75A10022AF82E54A2443F98706BB
:1001C000E54A2446F9E7FD601E8E047410C39DFDC8
:1001D0003395E0FBED248CF582EB3416F583E49344
:1001E0008CF0A4ABF08B067D0074012EF519E43D74
:1001F000F51A7E008F828E8312164FAF838F822274
:10020000C2AF7F00EF75F003A4243AFEF987828F16
:100210004AC007C0061201B7AD82D006D007EE046F
:10022000F987828F4AC007C006C0051201B7AC82A9
:10023000D005D006D00774022EF987828F4AC007F6
:10024000C005C0041201B7858209D004D0058C080E
:100250008D82120C62D0070FBF030040A7D2AF7F80
:1002600000EF2446F9E7FE6003EE14F70FBF03002A
:1002700040EF227F00EF2F25E02422FEF97700EEE9
:1002800004F8760074032EF876000FBF060040E5F0
:10029000752468752869752C6A752F017530E275AB
:1002A00033017534E97537017538EA753A00753BE5
:1002B00050753CFF753D00753EFF753F507540FF22
:1002C0007541147542007F00EF2443F876A00FBFFC
:1002D000030040F475490722AF827E04C3EE954BBC
:1002E00050158E82C007C006120171AD82D006D0B3
:1002F00007ED62070E80E58F82227582021201717E
:10030000AF82BF01047E20800BBF02047D228002E9
:100310007D238D06758200C007C006120171AD8273
:10032000D006D007BD4D47758201C007C006120137
:1003300071AD82D006D007BD5034BF01028008BF26
:1003400002028003BF0327758203C007C0061201A3
:1003500071AD82D006D0078E4B8F82C007C00512C8
:1003600002D8AE82D005D007EDB5060280030202A6
:10037000737E00EE2E25E02422FDF98E04EC75F04C
:1003800003A4FC2404F582C007C006C005C004C055
:1003900001120171E582D001D004D005F7ED04F916
:1003A00074052CF582C005C004C001120171E582FC
:1003B000D001D004D005F774022DF874062CF58214
:1003C000C005C001C000120171E582D000D001D08B
:1003D00005D006D007F674032DF87600E724FE500A
:1003E0000277000EBE0600408A7E00EE75F003A480
:1003F000243AFDF98E04EC75F003A4FC2416F58272
:10040000C007C006C005C004C001120171E582D05A
:1004100001D004D005F7ED04F974172CF582C0055E
:10042000C004C001120171E582D001D004D005F7EB
:1004300074022DF974182CF582C001120171E58245
:10044000D001D006D007F70EBE0300409E75821F74
:10045000C007120171E582D007F543BF0103EF80A9
:1004600001E4FE6004AD438010758220C007C00621
:10047000120171AD82D006D0078D44EE6004AE4308
:10048000800C758221C007120171AE82D0078E45A3
:10049000BF0300400D758222120171AF825307071E
:1004A00080027F078F49227F03900120744DF075F1
:1004B0008200C0071201819001207450F075820102
:1004C0001201819001207403F0758202120181D023
:1004D000077E008E05ED75F003A4FD2404FCEE2ECE
:1004E00025E02422FBF9900120E7F08C82C007C0B0
:1004F00006C005C003120181D003D00574052DFC90
:10050000EB04F9900120E7F08C82C005C0031201D2
:1005100081D003D00574062DFD74022BF9900120C3
:10052000E7F08D82120181D006D0070EBE06004092
:10053000A27E008E05ED75F003A4FD2416FCEE7579
:10054000F003A4243AFBF9900120E7F08C82C00765
:10055000C006C005C003120181D003D00574172D59
:10056000FCEB04F9900120E7F08C82C005C0031277
:100570000181D003D00574182DFD74022BF9900170
:1005800020E7F08D82120181D006D0070EBE030055
:1005900040A17E008E05741F2DFDEE2443F99001CD
:1005A00020E7F08D82C007C006120181D006D00777
:1005B0000EBE030040DEE5499001205407F075822D
:1005C00022C007120181D0077E048E82C007C006B8
:1005D000120171AD82D006D007ED62070EBE230076
:1005E00040E8900120EFF07582030201818582507E
:1005F000AC4CAD4DAE4E74032CF551E43DF5528E2E
:10060000538551828552838553F012166CFBB55089
:100610000122E550603EEB703B74FD254F4035C034
:1006200004C005C006854FF005F07A017B00800606
:10063000EA2AFAEB33FBD5F0F7AE497F00EE52021F
:10064000EF5203D006D005D004EA4B6007E54F24F3
:1006500046F876108551828552838553F0E5501215
:100660001634605B74012CFAE43DFB8E078A828BA2
:10067000838FF012166C702B8C028D038E078A828A
:100680008B838FF012166CF55174022CFAE43DFB4B
:100690008E078A828B838FF012166CF50B85518240
:1006A000020E3174022CFAE43DFB8E078A828B83A2
:1006B0008FF012166CFA7F008A828F83020ED37439
:1006C000012CFAE43DFB8E078A828B838FF0121691
:1006D0006C702B8C028D038E078A828B838FF012B5
:1006E000166CF55174022CFAE43DFB8E078A828B5E
:1006F000838FF012166CF50C855182020E82740203
:100700002CFCE43DFD8C828D838EF012166CFC7FF8
:10071000008C828F83020F63AF827E00EE2400F58F
:1007200082E43401F583E4F00EBE200040EE43077E
:1007300080900100EFF0900101E519F0221215946C
:10074000E582FF7001227E00C3EE9F502BBE200089
:100750005026EE2400FCE43401FDC007C006C005AD
:10076000C0041215AFAB82D004D005D006D0078CE0
:10077000828D83EBF00E80D0C0071215A2D00790B7
:100780000100E0FEBE016CBF0A00500F7519028E19
:1007900082C006120718D006020A797D00ED75F0B6
:1007A00003A4243AFCF98D03EB75F003A4FB0424A5
:1007B00000F582E43401F583E0F7EC04F974022BD0
:1007C0002400F582E43401F583E0F774022CF90B80
:1007D0000B0BEB2400F582E43401F583E0F70DBD4B
:1007E000030040B97519008E82C006120718D006A2
:1007F000020A79BE0556BF0200500F7519028E829B
:10080000C006120718D006020A79BF0400401D7DF9
:1008100000ED2443F98D040CEC2400F582E434014E
:10082000F583E0F70DBD030040E780117D00ED2466
:1008300043F9900101E0F70DBD030040F175190087
:100840008E82C006120718D006020A79BE03028003
:10085000030208E0BF1300500F7519028E82C00614
:10086000120718D006020A797D00ED2D25E024221A
:10087000FCF98D03EB75F003A4FB042400F582E47E
:100880003401F583E0F7EC04F974022B2400F582BF
:10089000E43401F583E024FE50047C00800E0B0B51
:1008A000EB2400F582E43401F583E0FCA704ED2D90
:1008B00025E024222402F98D04EC75F003A424031E
:1008C0002400F582E43401F583E0F70DBD06004015
:1008D000997519008E82C006120718D006020A798F
:1008E000BE0416C0061204A7D0067519008E82C079
:1008F00006120718D006020A79BE02028003020916
:10090000AD7519008E82C006120718D0069001023C
:100910007401F0900103E543F07D008D04EC75F067
:1009200003A4FC24042400F582E43401F583ED2DB6
:1009300025E02422FBF9E7F074052C2400F582E47D
:100940003401F583EB04F9E7F074062C2400F582FA
:10095000E43401F58374022BF9E7F00DBD06004085
:10096000BA7D008D04EC75F003A4FC24162400F578
:1009700082E43401F583ED75F003A4243AFBF9E732
:10098000F074172C2400F582E43401F583EB04F9AC
:10099000E7F074182C2400F582E43401F583740226
:1009A0002BF9E7F00DBD030040B9020A79BE0873C8
:1009B0007519008E82C006120718D0067D008D04BE
:1009C0000C0CEC2400F582E43401F583ED2443F9AA
:1009D000E7F08D04EC75F003A4FC24052400F582F7
:1009E000E43401F583ED75F003A4243AFBF9E7F054
:1009F00074062C2400F582E43401F583EB04F9E756
:100A0000F074072C2400F582E43401F58374022B82
:100A1000F9E7F00DBD030040A5E549540790010E2C
:100A2000F08056BE092BBF0200500E7519028E824F
:100A3000C006120718D0068040900101E0FF74073D
:100A40005FF5497519008E82C006120718D006801E
:100A500028BE07028003BE06147519008E82C006E8
:100A6000120718D0069001027401F0800C7519016C
:100A70008E82C006120718D006751920900100C09A
:100A800006121480D006BE0611900032120C247596
:100A9000E200C2AF75890012380022C2B45396EF4B
:100AA00043971020911F900119120C057F09758240
:100AB000FFC007120C4CD007DFF475E200C2AF751F
:100AC000890012380075A15575A1AA53B9F843B928
:100AD0000575A100900005120C2412142F75FF005B
:100AE00075A15575A1AA43B10175A1001202FA7F43
:100AF00000EF2446F876000FBF030040F4A291B344
:100B00009200E433F582754C22754D00754E4075A8
:100B10004F001205EDA297B39200E433F582754CB5
:100B200026754D00754E40754F011205EDA296B326
:100B30009200E433F582754C2A754D00754E407570
:100B40004F021205EDA2B3B39200E433F582754C67
:100B50002E754D00754E40754FFF1205EDE4F554AE
:100B6000F555F55620B12530B00774102422FC80CD
:100B70000574142422FC8C54755500755640900061
:100B80000A120C2420B10575FF0080F8E554455584
:100B9000606174012554FAE43555FBAC568A828BAA
:100BA000838CF012166C702DAA54AB55AC568A8209
:100BB0008B838CF012166CFA74022554FBE43555C5
:100BC000FCAF568B828C838FF012166CF50D8A82E7
:100BD000120EBF801E74022554FDE43555FEAF563B
:100BE0008D828E838FF012166CFD7F008D828F8335
:100BF000120FC412073D120200900005120C24755A
:050C0000FF00020AFDE7
:10168C00C88C645A647D9BB4C8DAE8F2F8FCFEFF9F
:100C0500AE82AF83EE4F6016E5A104F5A1E5A10420
:100C1500F5A1E5A104F5A11EBEFF011F80E622AEE8
:100C250082AF83EE4F60159003E8C007C006120C33
:0D0C350005D006D0071EBEFF011F80E7227C
:100C4300C007AF82DFFED007227F08C58233D2B44C
:100C530092B4000000000000C2B40000DFEF22AF36
:100C630082E50890169C93F582C007120C4CD007BE
:100C7300EF90169C93F582120C4CE50990169C9309
:100C8300F582020C4CE582FF23235403FE743F5F7D
:100C9300850AF005F0800225E0D5F0FBFF850AF018
:100CA30005F0743F800225E0D5F0FB8F04C39CFD63
:100CB300EE600ABE0102800FBE022080148F087509
:100CC30009008D82020C628D088F09758200020C67
:0C0CD300627508008D098F82020C6222FD
:10169C00000000000000000000000000000000003E
:1016AC00000000000000000000000000010101012A
:1016BC000101010101010101010202020202020207
:1016CC0002030303030303030404040404050505D4
:1016DC000506060606070707070808080909090A88
:1016EC000A0A0B0B0B0C0C0D0D0D0E0E0F0F101020
:1016FC001111121213131414151516161718181994
:10170C00191A1B1B1C1D1D1E1F20202122232324E4
:10171C002526272728292A2B2C2D2E2F3031323203
:10172C003334363738393A3B3C3D3E3F40424344F4
:10173C00454648494A4B4D4E4F51525355565759B1
:10174C005A5C5D5F606263656668696B6D6E707232
:10175C00737577787A7C7E7F81838587898A8C8E76
:10176C0090929496989A9C9EA0A2A4A7A9ABADAF78
:10177C00B1B4B6B8BABDBFC1C4C6C8CBCDD0D2D532
:10178C00D7DADCDFE1E4E7E9ECEFF1F4F7F9FCFFA1
:1000CB009001217401F0900122E4F0900123F09053
:1000DB000124F0900125F0900126F0900127F0907B
:1000EB000128F0900129F090012A7402F090012B65
:1000FB00E4F090012CF090012DF090012EF0900186
:0E010B002FF0900130F0900131F0900132F0B1
:100CDF00AF82BF880040088F06EE2478FE803EBFAB
:100CEF0080004022900122E0FD8F04EC2480F5F07B
:100CFF0005F07401800225E0D5F0FB42059001223A
:100D0F00EDF07E008017EF90179C93FE700122EE9E
:100D1F0030E70A900122E04402F053067F7F03EF91
:100D2F002421F582E43401F583E0B50601220FBFDB
:100D3F00090040EB7F03EF2421FCE43401FD8C829A
:100D4F008D83E0700F8C828D83EEF0751909900101
:100D5F00210214360FBF090040DC22AF82BF88008A
:100D6F0040088F06EE2478FE803FBF80004023901E
:100D7F000122E0FD8F04EC2480F5F005F074018072
:100D8F000225E0D5F0FBF45205900122EDF07E0034
:100D9F008017EF90179C93FE700122EE30E70A90B8
:100DAF000122E054FDF053067F7F03EF2421FCE482
:100DBF003401FD8C828D83E0B506068C828D83E431
:100DCF00F00FBF090040E475190990012102143694
:100DDF00AF82C007120CDFD0078F82020D6A7F0827
:100DEF00EF2421F582E43401F583E4F0DFF2751985
:100DFF0009900121021436AD82AE83AFF08D828E41
:100E0F00838FF012166CFC60188C820DBD00010EE2
:100E1F00C007C006C005120DDFD005D006D0078071
:100E2F00DC22AF82E50B700122900122E042079095
:100E3F000122EFF07F03EF2421F582E43401F583E3
:100E4F00E0B50B01220FBF090040EB7F03EF242118
:100E5F00FDE43401FE8D828E83E070108D828E83CF
:100E6F00E50BF07519099001210214360FBF090027
:100E7F0040DB22AF82E50C700122900122E0FE746C
:100E8F00FF6F5206900122EEF07F03EF2421FDE465
:100E9F003401FE8D828E83E0B50C068D828E83E445
:100EAF00F00FBF090040E4751909900121021436B3
:100EBF00AF82850D0BC007120E31D007850D0C8F39
:100ECF0082020E82AE82AF837D018F037C00ED2400
:100EDF002AF582E43401F583E07A00B5061CEAB501
:100EEF0007188D020AEA242AF582E43401F583E01B
:100EFF007A00B50305EAB50401228D0274022AFDBA
:100F0F00BD090040C97D01ED242AFBE43401FC8BAF
:100F1F00828C83E070328D02EA04242AF8E43401D3
:100F2F00F988828983E070208E018B828C83E9F0AF
:100F3F000AEA242AF582E43401F5838F04ECF07574
:100F4F00190990012A0214368D0474022CFDBD0973
:100F5F000040B42285820E85830F7D01AB0F7C008C
:100F6F00ED242AF9E43401FA89828A83E07F00B5FF
:100F7F000E2FEFB50F2B8D07EF04242AF582E434E3
:100F8F0001F583E0F87E00B50317EEB504138982EF
:100F9F008A83E4F00FEF242AF582E43401F583E429
:100FAF00F08D0774022FFDBD090040B4751909902B
:100FBF00012A021436AE82AF83C007C006120ED3C9
:100FCF00D006D0078E828F83020F637F08EF242A0B
:100FDF00F582E43401F583E4F0DFF275190990012D
:0B0FEF002A021436900053E0F5822225
:10179C0000000000000000002A2B280000000000C0
:1017AC00000000000000000000000000000000002D
:1017BC002C9EB4A0A1A2A434A6A7A5AE362D373872
:1017CC00271E1F20212223242526B333B62EB7B87B
:1017DC009F8485868788898A8B8C8D8E8F90919239
:1017EC00939495969798999A9B9C9D2F3130A3AD85
:1017FC00350405060708090A0B0C0D0E0F10111203
:10180C00131415161718191A1B1C1DAFB1B0B500FF
:10181C0012011001000000408911908800020102A1
:10182C0003010902490002010080190904000002A9
:10183C0003010104092110012101225F0007058128
:10184C000310000A0705010310000A090401000235
:10185C0003000000092110012101221D00070502CF
:10186C000320000A0705820320000A05010906A1CE
:10187C00018501050719E029E71500250195087573
:10188C0001810295017508810395067508150026DE
:10189C00FF000507190029E7810005081901290532
:1018AC0015002501950575019102950175039103AC
:1018BC00C0050C0901A1018502150026FF031900C2
:1018CC002AFF03950475108100C05F0660FF096153
:1018DC00A1010962150026FF0095207508810209F7
:1018EC006391020964B102C01D040309041A034F79
:1018FC0000700065006E004D006100630072006FA7
:10190C000050006100640026034300480035003598
:10191C00003200200052004700420020004D0061C0
:10192C0000630072006F00500061006400140343F8
:10193C00004800350035003200780048004900446A
:10194C00001A034800490044002D004B0065007943
:0B195C000062006F0061007200640078
:100FFA00C007AF8205A290000015A285148285154C
:10100A0083E493A3A5DFFAD00722AFDBBF080280EF
:10101A000302130F900007E0FE7F00900006E0FD38
:10102A007C004FF510EC4EF511900001E0F512909E
:10103A000000E0FE546060081214CEAF8202131161
:10104A00E51224F4500302130BE512240B83F582F4
:10105A00E512241083F583E473EDB00B330B807B28
:10106A000B8CA71111121113121311101311111352
:10107A0013900003E0FEBE01028012BE0202801835
:10108A00BE0302801EBE2202806B02112D75141C43
:10109A007515187F1202112F75142E7515187F49B0
:1010AA0002112F900002E0FE24FB4038EE2E901031
:1010BA00BC738008800E8014801A80207514F57520
:1010CA00151880267514F9751518801E7514137570
:1010DA0015198016751439751519800E75144D7504
:1010EA0015198006751439751519851482851583A5
:1010FA00E493FF8030900004E0700E751477751544
:10110A0018901847E493FF801C900004E0FEBE018B
:10111A000E7514D7751518901867E493FF80067F2B
:10112A00FF80027FFFBFFF030213118F057E00C3FA
:10113A00ED9510EE951150048D108E11AD10AE1173
:10114A00C3ED9440EE940040047D408002AD108DC2
:10115A00078F82120FFA8F057E00AB10AC11EBC31A
:10116A009DFBEC9EFC8B108C11EF2514F514E435D5
:10117A0015F515021311900002E0F5107511000221
:10118A001311900000E513F0AD10AE11C3ED9401F8
:10119A00EE940050030213117F0102131190000212
:1011AA00E0F513021311900000E0541F702D900017
:1011BA0003E0FD7E00900002E07B004206EB420560
:1011CA00BE0113BD0010901835E49330E5030213F5
:1011DA00117FFF0213117FFF021311900000E0FE3E
:1011EA0053061FBE023E900004E0FEBE01028029A3
:1011FA00BE02028013BE81028014BE822274BC55D4
:10120A00D44402F5D402131153D47302131174BCDB
:10121A0055D24402F5D202131153D2730213117F2D
:10122A00FF0213117FFF021311900000E0541F7098
:10123A002D900003E0FD7E00900002E07B00420654
:10124A00EB4205BE0113BD0010901835E49330E55A
:10125A00030213117FFF0213117FFF021311900083
:10126A0000E0FE53061FBE0276900003E0FD7E00FA
:10127A00900002E07B004206EB4205EE4D705C9066
:10128A000005E0FD7E00900004E07B004206EB4290
:10129A0005BE0105BD00028034BE0205BD00028004
:1012AA0018BE8105BD0002801ABE822BBD002874BB
:1012BA00BF55D44403F5D4804E747F55D4440CF5FD
:1012CA00D4804474BF55D24403F5D2803A747F5512
:1012DA00D2440CF5D280307FFF802C7FFF80287F9C
:1012EA00FF8024900000E4F0900001F0AD10AE11F0
:1012FA00C3ED9402EE940040047F02800AAF10808E
:10130A00067FFF80027FFFBFFF077512FF75DCCFE4
:10131A0022EF24BF40068FDD75DCC02275DD007523
:10132A00DCC0227405B5120280407406B51249AEBB
:10133A0010AF11C3EE9440EF940040047E40800247
:10134A00AE108E82120FFA8E057F00AB10AC11EB35
:10135A00C39DFBEC9FFC8B108C11EE2514F514E455
:10136A003515F5158EDD63DC4022E5E35480FFE593
:10137A00104FF5E375DC022275DD0075DC022212DE
:10138A00154975DD0043DC022230D95BE5D9540FDB
:10139A00FFE5D95430FE600FBE10028048BE20021D
:1013AA008021BE30408038EF600ABF0102800ABF48
:1013BA000233800A121389802C1215F5802712161F
:1013CA00098022EF600ABF0102800ABF0217800A61
:1013DA0012132D80101215E7800B1216268006EFC5
:1013EA007003121014C2D930D80F75DC021215DC42
:1013FA0075E300C2DAC2D9C2D810DA0122E5DA20CE
:10140A00E20375D8FF2275E22975D181E4F5ECF57E
:10141A00ED75DC0212146743E10743D81FD2EAD202
:05142A00AF75DD00229A
:10011900751800C201C202900133E4F0900134F075
:04012900900135F01C
:10142F0012141075D30022AE82AF832001FD7D0010
:10143F00C3ED95195019ED2480FBE43400FCED2E1B
:10144F00F582E43FF583E08B828C83F00D80E1859C
:10145F0019D3D20153D2FC2275EE4075EF0075E41B
:10146F005275E50075D21275D41275EAC075EB0C82
:10147F0022AE82AF832002FDE51924DF50037519D8
:10148F00207D00C3ED9519502DED2452FBE434005F
:10149F00FCED2EF9E43FFA89828A83E08B828C83FC
:1014AF00F0ED2436FBE43401FC89828A83E08B82E1
:1014BF008C83F00D80CD8519D5D20253D4FC2275C3
:1014CF001800900001E0FFBF090B900004E004F545
:1014DF001875820022900001E0FFBF0A0280089079
:1014EF000001E0FFBF0B0475820022900001E0FFB6
:1014FF00BF0128900004E0FFBF01207F008F057E11
:10150F0000EF2436F582E43401F583E08D828E837B
:10151F00F00FBF200040E675822022900001E0FF0F
:10152F00BF02028008900001E0FFBF030990000096
:10153F00E4F0758201227582FF227402B51831E53D
:10154F00DB24DF402B7F00C3EF95DB5016EF2452D7
:10155F00FDE43400FE8F82758300E08D828E83F070
:10156F000F80E4900133E5DBF0900135E4F080115A
:10157F007401B5180CE5DB6008900000E0900134B1
:10158F00F075180022900133E0F58222900134E0CB
:10159F00F58222900133E4F0900135F053D4F32219
:1015AF00900133E07003F58222900135E02452F56B
:1015BF0082E43400F583E0FF900135E004F0900100
:1015CF0033E014F0E0700353D4F38F822275D212FC
:1015DF0075D412C201C2022275D30074FC55D244D5
:1015EF0002F5D2C2012230DE10900040E0FFBF01B1
:1015FF0008900041E0900134F02230DE1990013361
:10160F00E5DBF0900135E4F0900133E0600874F30E
:10161F0055D44408F5D42275D50074FC55D4440232
:05162F00F5D4C2022207
:0600C500E478FFF6D8FD0F
:10008E00C000A88118C0D0B6001B18B64800401595
:10009E00B66F005010C0E0E65407B406005004E6F8
:0A00AE0054F8F6D0E0D0D0D00032B4
:1016340020F71130F6138883A88220F509F6A883D1
:101644007583002280FEF280F5F022E5828519F090
:10165400A4C582C0F0851AF0A4D0F025F0C5838516
:0816640019F0A42583F583228F
:0D00B800758156121688E5826003020089EA
:10166C0020F71430F6148883A88220F507E6A883A7
:10167C0075830022E280F7E49322E0227582002237
:00000001FF
