:040000000200B83210
:01000B0032C2
:0100130032BA
:01001B0032B2
:0100230032AA
:01002B0032A2
:01003300329A
:01003B003292
:0300430002014770
:100048000000E2FBEAF2802C0000E0FBEAF08024EA
:10005800E6B50202EBF62200E2B50202EBF222005C
:10006800E0B50202EBF02230F6E0A88220F5D3EAF0
:10007800C6F582228B822230F6E6A88220F5D98046
:01008800CFA8
:030144000200892D
:0500890012148180FE4D
:10014700C021C0E0C0F0C082C083C007C006C005A0
:10015700C004C003C002C001C000C0D075D00012E7
:100167002FB5D0D0D000D001D002D003D004D00515
:10017700D006D007D083D082D0F0D0E0D0210200C3
:100187008E7E007F008E05ED75F003A4FDC2AF7C67
:10019700008C03EB75F055A48D022AFBBB80005041
:1001A70005EB2BFA800774FFC39B25E0FA8A03EB64
:1001B70075F0CDA4ABF08B01743229F5537554FF5C
:1001C7008A82C007C006C005C0041227C6D004D063
:1001D70005D006D0070CBC030040B6D2AF90000C88
:1001E700C007C0061215B9D006D00775FF000EBEAE
:1001F70000010F8E048F05C3EC94F0ED9400408549
:1002070022AF827585C0EF2FF58475868E858E8225
:1002170022AF82BF800040012275A15575A1AA4374
:10022700B10475A1007585C0EF2FF584900120E01A
:10023700F58EE58630E60375869A75A15575A1AAF0
:1002470053B1FB75A100227F00EF75F012A42421A2
:10025700FD740135F0FE7C00EC75F003A42DFAE483
:100267003EFB8A828B83E4F08A828B83A3F08A82A7
:100277008B83A3A3F00CBC060040DD0FBF05004035
:10028700C89001237468F090012604F090012904B6
:10029700F090012B7401F090012C74E2F090012E84
:1002A7007401F090012F74E9F09001317401F0901E
:1002B700013274EAF0900135746BF090013804F064
:1002C70090013B04F090013D7401F090013E74CD24
:1002D700F09001407401F090014174B5F090014332
:1002E7007401F090014474B6F07F027564018F8247
:1002F700C0071215E1D0070FBF050040EE7F00EFE2
:1003070075F003A4247BFD740135F0FE8D828E8386
:10031700E4F08D828E83A3F08D828E83A3A3F00FEA
:10032700BF060040DA7522007523507524FF752536
:10033700007526FF7527507528FF752914752A0043
:100347007F00EF242BF876A00FBF030040F4752E33
:100357000775170075310075320922AF827E04C315
:10036700EE950850158E82C007C006120208AD82AE
:10037700D006D007ED62070E80E58F8222758202D4
:1003870012020885820B7401B50B0474018001E425
:10039700FE60047D2080387402B50B047D22802F17
:1003A7007403B50B047D2380267404B50B047D36D6
:1003B700801D7405B50B047D6C80147406B50B04A1
:1003C7007D7E800B7407B50B047D8080027D807570
:1003D7008200C006C005120208AC82D005D006BC58
:1003E7004D43758201C006C005120208AC82D005D4
:1003F700D006BC503074FF250B502AE50B24F7407C
:1004070024758203C006C005120208AC82D0058D90
:1004170008850B82C004120362AD82D004D006ECBB
:10042700B50502800302024E750900C006E509758D
:10043700F003A42421FBE43401FC8B028C07E509BB
:1004470075F003A4FD2404F582C007C005C004C0ED
:1004570003C002120208AE82D002D003D004D00536
:10046700D0078A828F83EEF074012BFEE43CFF7481
:10047700052DF582C007C006C005C004C0031202DF
:1004870008AA82D003D004D005D006D0078E828F69
:1004970083EAF074022BFEE43CFF74062DF582C05C
:1004A70007C006C004C003120208AD82D003D004FF
:1004B700D006D0078E828F83EDF08B828C83C006A7
:1004C70012165BD006E50975F003A4247BFE7401C0
:1004D70035F0FF8E828F83E4F08E828F83A3F08EB8
:1004E700828F83A3A3F00509C3E5099406D00650BC
:1004F7000302043274FA250B40030207077509004B
:10050700E50975F003A4247BFC740135F0FD8C0C20
:100517008D0DE50975F003A4FF2416F582C007C009
:1005270005C004120208AB82D004D005D007850CA1
:1005370082850D83EBF074012CF50CE43DF50D7409
:10054700172FF582C007C005C004120208AB82D07E
:1005570004D005D007850C82850D83EBF074022C3F
:10056700FAE43DFB74182FF582C005C004C003C030
:1005770002120208AF82D002D003D004D0058A82CB
:100587008B83EFF08C828D8312165B050974FA2535
:10059700094003020507750A01E50A75F012A4244C
:1005A70021FC740135F0FD750900E50975F003A418
:1005B7002CFAE43DFFC004C0058A0C8F0DE50A75CF
:1005C700F012A4FC2416FDE50975F003A4F50E2D21
:1005D700F582C007C004C002120208AD82D002D063
:1005E70004D007850C82850D83EDF074012AF50C84
:1005F700E43FF50D74172C250EF582C007C004C023
:1006070002120208AD82D002D004D007850C828581
:100617000D83EDF074022AFBE43FFD74182C250EC0
:10062700F582C007C005C003C002120208AC82D021
:1006370002D003D005D0078B828D83ECF08A828F9E
:1006470083C005C00412165BD004D0050509C3E5B5
:10065700099406D005D00450030205B1050A74FBBE
:10066700250A40030205A07F00EF75F003A42422AA
:10067700FBF98F02EA75F003A4FA2470F582C0072C
:10068700C003C002C001120208E582D001D002D027
:1006970003F7EB04F974712AF582C003C002C001A5
:1006A700120208E582D001D002D003F774022BF9B9
:1006B70074722AF582C001120208E582D001D007C0
:1006C700F70FBF030040A2758279120208E582F591
:1006D7002B75827A120208E582F52C75827B12024D
:1006E70008E582F52D75827C120208E5825407F52C
:1006F7002E75827D120208E582540FF517020A76DD
:1007070074FB250B400302085F750A01E50A75F0C3
:1007170012A42421F50C740135F0F50D750900E5D7
:100727000975F003A4250CF50FE4350DF510850FB9
:1007370011851012E50A75F012A4FB2404FFE509E0
:1007470075F003A4F50E2FF582C003120208AF82DD
:10075700D003851182851283EFF07401250FF511FF
:10076700E43510F51274052B250EF582C00312022D
:1007770008AF82D003851182851283EFF0740225BA
:100787000FFAE43510FF74062B250EF582C007C05B
:1007970002120208AB82D002D0078A828F83EBF065
:1007A700850F8285108312165B050974FA250940A7
:1007B70003020726050A74FB250A40030207137F75
:1007C70000EF75F003A42422FBF98F02EA75F0030A
:1007D700A4FA245EF582C007C003C002C00112025A
:1007E70008E582D001D002D003F7EB04F9745F2A41
:1007F700F582C003C002C001120208E582D001D011
:1008070002D003F774022BF974602AF582C0011233
:100817000208E582D001D007F70FBF030040A27599
:100827008267120208E582F52B758268120208E5D5
:1008370082F52C758269120208E582F52D75826AA8
:10084700120208E5825407F52E75826B120208E53D
:1008570082540FF517020A7674FC250B4003020930
:100867009F750900E50975F003A42433F511E434F5
:1008770001F51285110F851210E50975F003A4FA29
:100887002416F582C002120208AF82D002850F82B9
:10089700851083EFF074012511F50FE43512F5107B
:1008A70074172AF582C002120208AF82D002850FA0
:1008B70082851083EFF074022511FBE43512FF7473
:1008C700182AF582C007C003120208AA82D003D0F3
:1008D700078B828F83EAF085118285128312165B5C
:1008E700050974FA2509400302086B7F0275640144
:1008F7008F82C0071215E1D0070FBF050040EE7FBA
:1009070000EF75F003A42422FBF98F02EA75F003C8
:10091700A4FA2428F582C007C003C002C00112024E
:1009270008E582D001D002D003F7EB04F974292A35
:10093700F582C003C002C001120208E582D001D0CF
:1009470002D003F774022BF9742A2AF582C0011228
:100957000208E582D001D007F70FBF030040A27558
:100967008231120208E582F52B758232120208E500
:1009770082F52C758233120208E582F52D758234D3
:10098700120208E5825407F52E758235120208E532
:1009970082540FF517020A76756400758201C00646
:1009A7001215E1D0067F027564018F82C007C00669
:1009B7001215E1D006D0070FBF050040EA7F00EF10
:1009C70075F003A42422FBF98F02EA75F003A4FA59
:1009D7002416F582C007C006C003C002C001120278
:1009E70008E582D001D002D003F7EB04F974172A87
:1009F700F582C003C002C001120208E582D001D00F
:100A070002D003F774022BF974182AF582C0011279
:100A17000208E582D001D006D007F70FBF030040D8
:100A27009E75821FC006120208E582D006F52BEEDE
:100A37006004AF2B800C758220C006120208AF82BB
:100A4700D0068F2CEE6004AF2B800875822112022E
:100A570008AF828F2D74FD250B500D75822212026F
:100A670008AF8253070780027F078F2E7517007420
:100A7700F8250B501E75827E120208E5825401F597
:100A87003175827F120208E582F53224DE50367511
:100A970032212274F9250B502675827E120208E551
:100AA700825401F53175827F120208E58275F00ADA
:100AB700A4FFAEF08F828E83121BA7858232227528
:100AC700310075320922751508900120744DF075B3
:100AD70082001202189001207450F07582011202F0
:100AE700189001207408F07582021202187E008E99
:100AF70005ED75F003A4FD2404FCEE75F003A424B2
:100B070021FAE43401FB8A828B83E0900120F08C88
:100B170082C006C005C003C002120218D002D0036B
:100B2700D00574052DFF8A828B83A3E0900120F006
:100B37008F82C005C003C002120218D002D003D0B2
:100B47000574062DFF8A828B83A3A3E0900120F012
:100B57008F82C005120218D005D00674162DFFEE3D
:100B670075F003A4247BFB740135F0FC8B828C8326
:100B7700E0900120F08F82C006C005C004C00312B8
:100B87000218D003D004D00574172DFF8B828C83F5
:100B9700A3E0900120F08F82C005C004C0031202B9
:100BA70018D003D004D00574182DFD8B828C83A335
:100BB700A3E0900120F08D82120218D0060EBE0627
:100BC700005003020AF6751401E51475F012A42407
:100BD70021FD740135F0FE751300E51475F012A4BC
:100BE700FB2416FAE51375F003A4FF2AF516E5139F
:100BF70075F003A42DFAE43EFC8A828C83C005C0FD
:100C070006E0FE900120F0851682C007C006C005E9
:100C1700C004C003C002120218D002D003D004D00F
:100C270005D006D00774172B2FFE8A828C83A3E08A
:100C3700FD900120F08E82C007C006C005C004C029
:100C470003C002120218D002D003D004D005D00688
:100C5700D00774182B2FFF8A828C83A3A3E0FE9002
:100C67000120F08F82C006C005120218D005D006F9
:100C77000513C3E5139406D006D0055003020BE114
:100C8700051474FB25144003020BD07F008F04EC7E
:100C970075F003A4FC2470FBEF75F003A42422FA7B
:100CA700F9900120E7F08B82C007C004C00212024E
:100CB70018D002D00474712CFBEA04F9900120E7E4
:100CC700F08B82C004C002120218D002D0047472E2
:100CD7002CFC74022AF9900120E7F08C821202188A
:100CE700D0070FBF030040A5900120E52BF07582C8
:100CF70079120218900120E52CF075827A120218F9
:100D0700900120E52DF075827B120218E52E9001E7
:100D1700205407F075827C120218E51790012054C1
:100D27000FF075827D120218E5319001205401F011
:100D370075827E120218E53224DE50047F2180047A
:100D4700AC328C07900120EFF075827F1202187F7A
:100D5700048F82C007120208AC82D007EC62150F1D
:100D6700BF800040EC900120E515F0758203020278
:100D770018AF827E00EE2400F582E43401F583E4A7
:100D8700F00EBE200040EE430780900100EFF09088
:100D97000101E564F0228582667401B5640474017B
:100DA7008001E4FEE56675F012A42421FC74013588
:100DB700F0FD756700E5667015EE6012E56775F082
:100DC70003A4247BF568740135F0F569800DE567A8
:100DD70075F003A42CF568E43DF569E56775F00344
:100DE700A4F8AF652FF93395E0FAE92400F9EA345E
:100DF70001FA856882856983E089828A83F0EF0436
:100E070028FB3395E0FAEB2400FBEA3401FA856806
:100E170082856983A3E08B828A83F074022F28F886
:100E27003395E0FFE82400F8EF3401FF85688285F9
:100E37006983A3A3E088828F83F0056774FA256727
:100E47004003020DBC228582667401B564047401F7
:100E57008001E4FEE56675F012A42421FC740135D7
:100E6700F0FD756700E5667015EE6012E56775F0D1
:100E770003A4247BF568740135F0F569800DE567F7
:100E870075F003A42CF568E43DF569C006A868AFC2
:100E970069E56775F003A4FAA96529FB3395E0FEB8
:100EA700EB2400F582EE3401F583E088828F83F02E
:100EB70074012568F56AE43569F56BE9042AFF339F
:100EC70095E0FEEF2400F582EE3401F583E0FFC3E1
:100ED70074029FD00650047F008014E9042AFA3375
:100EE70095E0FBEA2400F582EB3401F583E0FF850A
:100EF7006A82856B83EFF074022568FBE43569FF2E
:100F07000909E56775F003A429F93395E0FAE9249F
:100F170000F582EA3401F583E08B828F83F0056761
:100F270074FA25674003020E6C221231B6E582FF80
:100F37007001227E00C3EE9F502BBE20005026EE8C
:100F47002400FCE43401FDC007C006C005C004123C
:100F570031D1AB82D004D005D006D0078C828D83E7
:100F6700EBF00E80D0C0071231C4D007900100E02B
:100F7700FEBE010280028079BF0A00500F7564022D
:100F87008E82C006120D78D00602145F7D008D0494
:100F9700EC75F003A4FC042400F582E43401F58326
:100FA700E0F56474022C2400F582E43401F583E053
:100FB700F5650C0C0CEC2400F582E43401F583E0B4
:100FC700F5668D82C006C005122739D005D0060DFB
:100FD700BD030040B9754B01758201C0061226F2A8
:100FE700D0067564008E82C006120D78D0060214F2
:100FF7005FBE0569BF0200500F7564028E82C0068E
:10100700120D78D00602145FBF040040277D008DC3
:10101700040CEC2400F582E43401F583E0F5648DDB
:1010270082C006C005122758D005D0060DBD0300A3
:1010370040DD800D900101E0F582C006122767D0E0
:1010470006754B01758201C0061226F2D00675643B
:10105700008E82C006120D78D00602145FBE0D60A6
:10106700BF0500500F7564028E82C006120D78D03E
:101077000602145F900101E0FDBD0300400F756497
:10108700018E82C006120D78D00602145F9001020D
:10109700E0F564900103E0F565900104E0F5668DE5
:1010A70082C006122739754B017582011226F2D0CC
:1010B700067564008E82C006120D78D00602145F92
:1010C700BE0E54BF0300500F7564028E82C0061215
:1010D7000D78D00602145F900101E0FDBD030040CA
:1010E7000F7564018E82C006120D78D00602145F58
:1010F700900102E0F5648D82C006122758754B01F6
:101107007582011226F2D0067564008E82C006121F
:101117000D78D00602145FBE0F3ABF0200500F755C
:1011270064028E82C006120D78D00602145F900109
:1011370001E0FD74075DF54D754C01758205C0062C
:10114700122706D0067564008E82C006120D78D06D
:101157000602145FBE03028002807B7D007C02BF13
:1011670015004007900102E0FD7C038C0374122BED
:10117700FB8F02C3EA9B500F7564028E82C0061272
:101187000D78D00602145F900101E0FBBB0500401B
:101197000F7564018E82C006120D78D00602145FA7
:1011A700BD02005006ED6012EB600F7564018E8280
:1011B700C006120D78D00602145F8D648C658B8291
:1011C700C006120E4DD0067564008E82C006120D41
:1011D70078D00602145FBE0A028003021265BF03BD
:1011E700004007900102E0FD80027D00BF02005031
:1011F7000F7564028E82C006120D78D00602145F46
:10120700900101E0FCBC0500400F7564018E82C0AF
:1012170006120D78D00602145FBD02005006ED607D
:1012270012EC600F7564018E82C006120D78D0062D
:1012370002145F7564008E82C006C005C004120DDB
:1012470078D004D005900102ECF0900103EDF08D09
:10125700647565048C82120D9DD00602145FBE0B67
:101267002DBF0200500F7564028E82C006120D78E2
:10127700D00602145F900101E0FD740F5DF517754C
:1012870064008E82C006120D78D00602145FBE0479
:1012970016C006120ACDD0067564008E82C00612EB
:1012A7000D78D00602145FBE02727564008E82C08C
:1012B70006120D789001027406F0E517540F90019D
:1012C70003F0756400756504758200120D9DD006E4
:1012D7007D008D04EC75F003A4FC24162400F58230
:1012E700E43401F583ED75F003A42422FBF9E7F05C
:1012F70074172C2400F582E43401F583EB04F9E735
:10130700F074182C2400F582E43401F58374022B61
:10131700F9E7F00DBD030040B902145FBE08028073
:10132700030213C27564008E82C006120D78D006C0
:101337007D008D040C0CEC2400F582E43401F58368
:10134700ED242BF9E7F08D04EC75F003A4FC2405DC
:101357002400F582E43401F583ED75F003A424221B
:10136700FBF9E7F074062C2400F582E43401F583D9
:10137700EB04F9E7F074072C2400F582E43401F557
:101387008374022BF9E7F00DBD030040A5E52E5449
:101397000790010EF0E531540190010FF0E532247A
:1013A700DE50047D218004AC328C05900110EDF0F5
:1013B700E52F5407900111F002145FBE0935BF02F3
:1013C70000500F7564028E82C006120D78D0060297
:1013D700145F900101E0F54D754C01758203C0065D
:1013E700122706D0067564008E82C006120D78D0CB
:1013F700068065BE0C3ABF0300500E7564028E82EC
:10140700C006120D78D006804F900101E0F54F908D
:101417000102E0F550754E01758204C00612272AB5
:10142700D0067564008E82C006120D78D00680281B
:10143700BE07028003BE06147564008E82C00612C2
:101447000D78D0069001027406F0800C7564018E49
:1014570082C006120D78D006756420900100C00680
:101467001230A2D006BE06119000321215B975E2ED
:1014770000C2AF75890012380022C2B45396EF43F9
:10148700971020911F90011912159A7F097582FFF5
:10149700C007122790D007DFF475E200C2AF758945
:1014A7000012380075A15575A1AA53B9F843B905BB
:1014B70075A1009000051215B975FF0075A1557546
:1014C700A1AA43B10175A10012018812305112027D
:1014D7004E120384121B32122677754B0275820057
:1014E7001226F2A291B39200E433F51C751D007524
:1014F7008200121A69A297B39200E433F51C751D96
:1015070001758201121A69A296B39200E433F51CA1
:10151700751D02758202121A69A2B3B39200E433F1
:10152700F51C751DFF758203121A6920B153754B9F
:10153700007582001226F21217B7AF8230B0047E10
:101547000480027E0590000AC007C0061215B9D0B4
:1015570006D00720B10575FF0080F8EF70078E826F
:10156700121761801CEF75F012A42421FD74013558
:10157700F0FFEE75F003A42DF582E43FF583121614
:10158700EE120F311227789000051215B975FF007A
:101597000214EAAE82AF83EE4F6016E5A104F5A10F
:1015A700E5A104F5A1E5A104F5A11EBEFF011F8079
:1015B700E622AE82AF83EE4F60159003E8C007C006
:1015C7000612159AD006D0071EBEFF011F80E7221C
:1015D800C007AF82DFFED00722E58275F012A4248F
:1015E80021FE740135F0FFE56475F012A42421F59D
:1015F80066740135F0F567756500E56575F003A457
:10160800FA2EF8E43FF9C006C00788038907EA25DF
:1016180066FAE43567FE8A828E83E08B828F83F0D8
:10162800740128FDE439FF8A828E83A3E08D828FBE
:1016380083F0740228F8E439F98A828E83A3A3E040
:1016480088828983F00565C3E5659406D007D006CE
:1016580040A822AE82AF830EBE00010F8E828F8318
:10166800E024FD50068E828F83E4F022AE82AF83A1
:10167800A3E0FD70148E828F83E0FC8E828F83A39B
:10168800A3E0F5568C8202298BBD01118E828F83CF
:10169800A3A3E0FD7C008D828C83022A2D8E828F8D
:1016A80083A3A3E0F582022B4DAE82AF83A3E0FDB6
:1016B80070148E828F83E0FC8E828F83A3A3E0F563
:1016C800578C820229DCBD01118E828F83A3A3E08F
:1016D800FD7C008D828C83022ABD8E828F83A3A31A
:1016E800E0F582022BA9AE82AF83A3E0FD70148ED1
:1016F800828F83E0FC8E828F83A3A3E0F5588C82CF
:10170800022A19BD01118E828F83A3A3E0FD7C00FC
:101718008D828C83022B1E8E828F83A3A3E0F58299
:10172800022BEDAE82AF8374022EFCE43FFD8C8267
:101738008D83E0701B8E048F058C828D83E0701082
:101748000EBE00010F8E828F83E07004C2018002FA
:10175800D201A201E433F58222E582FF75F003A4E9
:101768002421F582E43401F583C0071216EED00770
:10177800EF75F003A4FEAFF0247BF582EF3401F59A
:1017880083C007C00612172BE582D006D007601E5B
:10179800900028C007C0061215B9D006D00775FFFB
:1017A80000EE247BF582EF3401F5830216EE227FEA
:1017B800007E008EF005F07C017D008006EC2CFC9C
:1017C800ED33FDD5F0F7AA187B00EA5204EB520579
:1017D800EC4D60068F050D8D82220E8E07BE04002B
:1017E80040D175820022900193E0701A900194E034
:1017F8007014900195E0700E900196E07008E5185D
:101808007004C2028002D202A202E433F582228569
:10181800821A74FA251A500122E51A248DFDE4343F
:1018280001FE8D828E83E0FC74FC251A4022851A05
:10183800F005F07A017B008006EA2AFAEB33FBD543
:10184800F0F7A8177900E85202E95203EA4B70044E
:10185800C2038002D203A203E433FBEC6003021943
:101868006BE519600302196BE51A24B5F582E434B7
:1018780001F583E0FA754B00758200C006C005C00B
:1018880003C0021226F2D002754C008A4D758202FE
:10189800122706D003D005D006EB601DE51A24A553
:1018A800F582E43401F583E4F0E51A24AFF582E427
:1018B8003401F583E4F0021963E51A24A9F9E43444
:1018C80001FAC006C005C002C0011217B7A882D02D
:1018D80001D002D005D00689828A83E8F0E87045F5
:1018E800E51A75F003A4247BF582740135F0F583BD
:1018F800C006C005C002C00112172BE582D001D076
:1019080002D005D006601E851A82C006C0051217CF
:1019180061D005D006E51A24AFF582E43401F583D9
:101928007401F0803689828A83E075F012A424213C
:10193800F9740135F0FAE51A75F003A429F582E483
:101948003AF583C006C005121674D005D006E51A0C
:1019580024AFF582E43401F583E4F08D828E83743C
:1019680001F022BC0103EC8001E4FA60487402B57E
:101978001943EB603FE51A24A5F8E43401F988829D
:101988008983E0F51BC394FF5008E51B048882890E
:1019980083F088828983E0F8B828004017851AF018
:1019A80005F07401800225E0D5F0FB42188D828E87
:1019B800837402F022EA7006BC02028001227401DC
:1019C800B51902800122EB6045BC0213851AF005A7
:1019D800F07401800225E0D5F0FBF452188020E570
:1019E8001A24A5F582E43401F583E0FFBF04004022
:1019F8000E851A82C006C005121761D005D006E50B
:101A08001A24A5F582E43401F583E4F08040E51A50
:101A180024AFFCE43401FF8C828F83E07030E51A38
:101A280024A9F582E43401F583E075F012A4242199
:101A3800FC740135F0FFE51A75F003A42CF582E477
:101A48003FF583C006C0051216B1D005D006E51AC9
:101A580024AFF582E43401F583E4F08D828E83F0BF
:101A680022AF82BF0600400122EF24B5F582E4349C
:101A780001F583E51DF0EF2499FDE43401FE8D8224
:101A88008E83E0B51C0280148D828E83E51CF0EFF6
:101A9800249FF582E43401F583E4F022EF249FFDCE
:101AA800E43401FE8D828E83E0FCBC0200500D0CF4
:101AB8008D828E83ECF0BC0200500122E51C601C74
:101AC800EF2493FDE43401FE8D828E83E0700DF5E2
:101AD800198F82C007121817D0078040E51C601DB7
:101AE800EF2493FDE43401FE8D828E83E0600E7551
:101AF80019028F82C007121817D007801FE51C70C3
:101B08001BEF2493FDE43401FE8D828E83E0600C8C
:101B18007519018F82C007121817D007EF2493F5A3
:101B280082E43401F583E51CF0227518007F00EF8C
:101B3800248DF582E43401F583E4F0EF2493F582F3
:101B4800E43401F583E4F0EF2499F582E43401F5F7
:101B580083E4F0EF249FF582E43401F583E4F0EFA9
:101B680024A9F582E43401F583E4F0EF24AFF5828B
:101B7800E43401F583E4F0EF24B5F582E43401F5AB
:101B88008374FFF00FBF060040A57F00EF24A5F582
:101B980082E43401F583E4F00FBF040040EE22AE86
:101BA80082AF837D007C00EC75F002A424CCF58222
:101BB800743235F0F583E493FAA3E493FBC3EA9E09
:101BC800EB9F40038D82220C8C05BC220040D87507
:101BD800822122E52C452BFFE52D4FF58222E58257
:101BE800FF75F003A424DFF582740135F0F583EF67
:101BF80075F003A42422F9E7F0EF75F003A424DFBD
:101C0800FD740135F0FE8D828E83A3EF75F003A479
:101C1800242204F9E7F0EF75F003A424DFFD740132
:101C280035F0FE8D828E83A3A3EF75F003A42422E2
:101C38002402F9E7F0EF24E8F582E43401F583EFB4
:101C4800242BF9E7F0227F008F82C007121BE6D011
:101C5800070FBF030040F122AF82C3E5649F50071E
:101C6800EFC39564FE8005E564C39FFE8E8222E57E
:101C780082FF24E8F582E43401F583E0FEEF242BAB
:101C8800F987648E82C007121C60AE82D007EF7598
:101C9800F003A424DFF582740135F0F583E0FDEF4D
:101CA80075F003A42422F987648D82C007C0061248
:101CB8001C60AD82D006D007C3EE9D50028D06EFA2
:101CC80075F003A424DFFC740135F0FD8C828D834C
:101CD800A3E0FDEF75F003A4242204F987648D8244
:101CE800C007C006121C60AD82D006D007C3EE9DA7
:101CF80050028D06EF75F003A424DFFC740135F063
:101D0800FD8C828D83A3A3E0FDEF75F003A424224C
:101D18002402F987648D82C006121C60AF82D00647
:101D2800C3EE9F50028F068E8222E582FF24C7FDF4
:101D3800E43401FE8D828E83E0B5381EEF24D0FB9B
:101D4800E43401FC8B828C83E0700EEF24C4F582AE
:101D5800E43401F583E0B53801228D828E83E538BD
:101D6800F0EF24C4F582E43401F583E0FEB5380DC4
:101D7800EF24D0F582E43401F583E4F022EF24D394
:101D8800FCE43401FD8C828D83EEF0EF24D6F582DD
:101D9800E43401F583E538F08C828D83E0FC8538E6
:101DA800648C82C007121C60AE82D007EF24DCFC72
:101DB800E43401FDEE75F03CA4FEABF08E828B831B
:101DC8007564FF756500C007C005C004123256ABC4
:101DD80082D004D005D0078C828D83EBF0EB70079E
:101DE8008C828D837401F0EF24D9F582E43401F5F7
:101DF80083E4F0EF24D0F582E43401F5837401F034
:101E080022AF827E008EF005F07C017D008006EC1A
:101E18002CFCED33FDD5F0F7AA357B00EA5204EB34
:101E28005205EC4D701EEE24D0FCE43401FD8C828A
:101E38008D83E0700F8F388E82C007C006121D3266
:101E4800D006D0070EBE030040BB22AF82C00712E7
:101E58001BE6D0078FF005F07401800225E0D5F06D
:101E6800FBF45235EF24CDF582E43401F583E0F537
:101E7800388F82021D32AF82E53924E8F582E434D6
:101E880001F583E0FE7D0074012EF564E43DF565FF
:101E98007E008F828E8312327FAF838F8222AF8241
:101EA800E53A24C4F582E43401F583E0FE7003F5D5
:101EB8008222BEFF038F82227D0074012EF564E426
:101EC8003DF5657E008F828E8312327FAF838F82CD
:101ED80022AF82BF800050048F06800574FFC39F25
:101EE800FE8E0774FFC39E8FF0A4FFE5F0A2E7CF34
:101EF80033CF33CF5401EF75F0CEA4FFAEF074406A
:101F08002FFFE43EA2E7CF33CF33CF540174FFC392
:101F18009FF58222AF8274FFB53B038F8222AD3BCF
:101F28007E0074012DF564E43EF5658F828E831280
:101F3800327FAF838F8222753C00E53C24D0FDE4DC
:101F48003401FE8D828E83E0700302204DE53C242F
:101F5800D9FBE43401FC8B828C83E0FA0A8B828CF7
:101F680083EAF0E53C24DCF582E43401F583E0F90A
:101F7800C3EA994023E53C24C4F8E43401FAE53C7B
:101F880024D6F582E43401F583E088828A83F08DD3
:101F9800828E83E4F002204DE53C24D6F582E434B9
:101FA80001F583E0FFE53C24D3F582E43401F583B1
:101FB800E0FEC3EF9E404BE53C24C4F53DE434010C
:101FC800F53E8F3F7540008E027D00E53FC39AFACB
:101FD800E5409DFD8B828C83E0F5647565008A82FF
:101FE8008D83C006C00112327FD0018964756500F7
:101FF800123256AA82D006EA2E853D82853E83F0AB
:102008008043E53C24C4F53FE43401F5408E00E408
:10201800FDFAE8C39FF8ED9AFD8B828C83E0F564A6
:102028008A6588828D83C006C00112327FD00189FB
:1020380064756500123256AD82D006EEC39D853FA9
:1020480082854083F0853CF005F07E017F008006A4
:10205800EE2EFEEF33FFD5F0F7AC357D00EC5206DF
:10206800ED5207EE4F6034E53C24D0FEE43401FF26
:102078008E828F83E07024E53C24C4F582E4340129
:10208800F583E0FFE53C24CAF582E43401F583E0FA
:10209800FEEFB50606853C82121E53053C74FD25ED
:1020A8003C4003021F4222E4F533F534121BDBE502
:1020B8008260067582FF021E09758200021E09E40D
:1020C800F533F534FF8F82C007121C77E582D007FD
:1020D80070308FF005F07D017E008006ED2DFDEE5D
:1020E80033FED5F0F7AB357C00EB5205EC5206ED2C
:1020F8004E60030221BE8F82C007121BE6D0070282
:1021080021BE8FF005F07401800225E0D5F0FB4276
:1021180035EF242BF9E7701AEF24CAF582E434016D
:10212800F583E4F0EF24CDF582E43401F583E4F09F
:102138008045EF24C4F582E43401F583E0FE701B8A
:10214800EF24CAF582E43401F583E4F0EF24CDF5F9
:1021580082E43401F58374FFF0801CEF24CDF5820E
:10216800E43401F583EEF0EF24CAF582E43401F596
:102178008375F003EE84F0EF24CAFDE43401FE8D8C
:10218800828E83E0F5388F82C007C006C005121D15
:1021980032D005D006D007EF24C4F582E43401F527
:1021A80083E0FC8D828E83E0FDECB505098F82C04B
:1021B80007121E53D0070FBF030050030220CD2281
:1021C800AF82BF030050498FF005F07D017E00808B
:1021D80006ED2DFDEE33FED5F0F7AB2E7C00ED526B
:1021E80003EE5204EB4C6028AB2F7C00ED5203EE5B
:1021F8005204EB4C701AAB18FCEB5205EC5206ED8E
:102208004E700DEF24BBF582E43401F5837410F0B1
:1022180022AF8274075FF52E22AF82530701E54192
:10222800FE24DE50027E21EFB53105EEB5320122E3
:102238008F318E320220AFAF827E005307077D00B8
:102248008DF005F07401800225E0D5F0FBFC5F609D
:1022580034EC552F702FED24BEF582E43401F5835C
:10226800ED242BF9E7F0EC422FED24BBF582E434A2
:1022780001F583E4F0ED24C1F582E43401F583E44B
:10228800F07E018038EC5F7034EC552F602F74FFBE
:102298006C522FED24BBF582E43401F583E4F0EDB4
:1022A80024C1F582E43401F583E4F0ED242BF9ED43
:1022B80024BEF582E43401F583E0F77E010DBD0309
:1022C800005003022248EE60067536017537022277
:1022D800121BDBE5827005F582021E09E52F600BF3
:1022E800E4F533F5347582FF021E09E5317069FFA4
:1022F8008FF005F07D017E008006ED2DFDEE33FEAA
:10230800D5F0F7AB357C00EB5205EC5206ED4E707C
:1023180040EF24D0FDE43401FE8D828E83E07031DD
:10232800EF242BF9E7602AEF24C4FDE43401FE8D85
:10233800828E83E0701BEF24C7FDE43401FE8D829A
:102348008E83E0700C7538FF8F82C007121D32D063
:10235800070FBF03004099221217EEE582600BE4D5
:10236800F533F5347582FF021E097F008FF005F002
:102378007D017E008006ED2DFDEE33FED5F0F7AB36
:10238800357C00EB5205EC5206ED4E701EEF24D062
:10239800FDE43401FE8D828E83E0700FEF24C7FDCB
:1023A800E43401FE8D828E83E070060FBF03004087
:1023B800BBBF0300400122E53224DE50067E217FA8
:1023C800008004AE327F00EE2EFEEF33FFEE24CC09
:1023D800F582EF3432F583E493FEA3E493FF8E0491
:1023E8008F05EE4F7005F582021E098C648D65908D
:1023F80000C812327FAE82AF83C3E53394FFE53461
:1024080094FF50080533E4B533020534C3E5339E21
:10241800E5349F4006758200021E09227F00EF24E2
:10242800C4FDE43401FE8D828E83E07015EF2442F2
:10243800F87600EF2445F87600EF2448F876000295
:1024480025DE8FF005F07D017E008006ED2DFDEE86
:1024580033FED5F0F7AB187C00ED5203EE5204EBD7
:102468004C60268F3A7582FFC007121EA61227A657
:10247800AC82D007EF2442F8A604EF2445F8A6045E
:10248800EF2448F8A6040225DEAB2F7C00EB5205AA
:10249800EC5206ED4E6018EF24C1F582E43401F5E4
:1024A80083E0F582C007121ED9AE82D0078028EFDC
:1024B80024BBF582E43401F583E0FD60187410C391
:1024C8009DFD3395E0FCED24BCF582EC3432F583B8
:1024D800E493FE80027EFFEF2442F9EF75F003A437
:1024E80024DFFC740135F0FD8C828D83E0FB8F398D
:1024F8008B82C007C006C005C004C001121E7ED072
:1025080001D004D005D006D0078F3AC007C006C056
:1025180005C004C001121EA61227A6D001D004D0FF
:1025280005D0068E3BC006C005C004C001121F1CA2
:10253800E582D001D004D005D006D007F7EF2445B6
:10254800F98C828D83A3E0FB8F398B82C007C0068C
:10255800C005C004C001121E7ED001D004D005D031
:1025680006D0078F3AC007C006C005C004C00112D4
:102578001EA61227A6D001D004D005D0068E3BC0D7
:1025880006C005C004C001121F1CE582D001D0049A
:10259800D005D006D007F7EF2448F98C828D83A3A5
:1025A800A3E0FD8F398D82C007C006C001121E7ED0
:1025B800D001D006D0078F3AC007C006C001121E4E
:1025C800A61227A6D001D0068E3BC001121F1CE51B
:1025D80082D001D007F70FBF03005003022426C2A0
:1025E800AF7F00EF2442F98782EF2445F98751EF46
:1025F8002448F98752C0071227AFD0070FBF03003E
:1026080040E1D2AF7F00EF24BBFDE43401FE8D82B0
:102618008E83E0FC60071C8D828E83ECF00FBF0375
:102628000040E3053074FE253050417530007F00CE
:102638008FF005F07D017E008006ED2DFDEE33FE66
:10264800D5F0F7AB2F7C00EB5205EC5206ED4E604F
:1026580015EF24C1FDE43401FE8D828E83E0FC0C6D
:102668008D828E83ECF00FBF030040C4021F3F7FB2
:1026780000EF24BBF582E43401F583E4F0EF24BED7
:10268800F582E43401F583E4F0EF24C1F582E43403
:1026980001F583E4F0EF24C4F582E43401F583E422
:1026A800F0EF24C7F582E43401F583E4F0EF24CA9F
:1026B800F582E43401F583E4F0EF24CDF582E434C7
:1026C80001F583E4F0EF24D0F582E43401F583E4E6
:1026D800F00FBF0300409A121C4EE4F535F536F5AD
:1026E80037F533F534F52FF53022E582FF6005BF65
:1026F800010B80030220AF75360175370222AF82C5
:10270800BF0202800ABF0302800BBF0514800C853C
:102718004D820221C8854D82022219854D820222EE
:102728003F22AF82BF0409855041854F8202222192
:1027380022AF82BF0300400122EF75F003A42422D8
:10274800FFF9A764EF04F8A66574022FF8A66622BD
:10275800AF82BF0300400122EF242BF8A66422AF0A
:10276800827E00EE242BF8A6070EBE030040F4225A
:102778001222D8E536600EE53760041537800675F5
:0827880036001220C7022424D0
:1032BC00C88C645A647D9BB4C8DAE8F2F8FCFEFF53
:1032CC0000000100030005000A0014001E00280085
:1032DC0032003C00460050005A0064006E0078003A
:1032EC0082008C009600A000AA00B400BE00C800AA
:1032FC00D200DC00E600F000FA0004010E01180117
:04330C0022012C016D
:102790007F08C58233D2B492B4000000000000C2AA
:1027A000B40000DFEF22E58290331093F58222AF70
:1027B00082855182C007122790D0078F82122790FE
:1027C000855282022790E58290331093FFE5539063
:1027D000331093F551E55490331093F5528F8202E4
:1027E00027AFE582FF23235403FE743F5F8555F036
:1027F00005F0800225E0D5F0FBFF8555F005F0746B
:102800003F800225E0D5F0FB8F04C39CFDEE600AFB
:10281000BE0102800FBE022080148F537554008DBC
:10282000820227C68D538F547582000227C67553C6
:09283000008D548F820227C6229C
:1033100000000000000000000000000000000000AD
:103320000000000000000000000000000101010199
:103330000101010101010101010202020202020276
:103340000203030303030303040404040405050543
:103350000506060606070707070808080909090AF7
:103360000A0A0B0B0B0C0C0D0D0D0E0E0F0F10108F
:103370001111121213131414151516161718181903
:10338000191A1B1B1C1D1D1E1F2020212223232454
:103390002526272728292A2B2C2D2E2F3031323273
:1033A0003334363738393A3B3C3D3E3F4042434464
:1033B000454648494A4B4D4E4F5152535556575921
:1033C0005A5C5D5F606263656668696B6D6E7072A2
:1033D000737577787A7C7E7F81838587898A8C8EE6
:1033E00090929496989A9C9EA0A2A4A7A9ABADAFE8
:1033F000B1B4B6B8BABDBFC1C4C6C8CBCDD0D2D5A2
:10340000D7DADCDFE1E4E7E9ECEFF1F4F7F9FCFF10
:1000CB009001EB7401F09001ECE4F09001EDF090F5
:1000DB0001EEF09001EFF09001F0F09001F1F09053
:1000EB0001F2F09001F3F09001F47402F09001F53D
:1000FB00E4F09001F6F09001F7F09001F8F0900128
:10010B00F9F09001FAF09001FBF09001FCF09001F6
:10011B00FD7403F09001FEE4F09001FFF0900200FB
:05012B00F0900201F05C
:10283900AF82BF880040088F06EE2478FE803EBF35
:10284900800040229001ECE0FD8F04EC2480F5F03B
:1028590005F07401800225E0D5F0FB42059001ECFA
:10286900EDF07E008017EF90341093FE700122EE98
:1028790030E70A9001ECE04402F053067F7F03EF52
:1028890024EBF582E43401F583E0B50601220FBF9C
:10289900090040EB7F03EF24EBFCE43401FD8C825B
:1028A9008D83E0700F8C828D83EEF0756409900141
:1028B900EB0230580FBF090040DC22AF82BF88000D
:1028C90040088F06EE2478FE803FBF8000402390A9
:1028D90001ECE0FD8F04EC2480F5F005F074018033
:1028E9000225E0D5F0FBF452059001ECEDF07E00F5
:1028F9008017EF90341093FE700122EE30E70A90B2
:1029090001ECE054FDF053067F7F03EF24EBFCE478
:102919003401FD8C828D83E0B506068C828D83E4BB
:10292900F00FBF090040E47564099001EB023058CB
:10293900AF82C007122839D0078F820228C47F08C6
:10294900EF24EBF582E43401F583E4F0DFF27564FA
:10295900099001EB023058AD82AE83AFF08D828EC3
:10296900838FF012329CFC60188C820DBD00010E21
:10297900C007C006C005122939D005D006D0078086
:10298900DC22AF82E5567001229001ECE04207900B
:1029990001ECEFF07F03EF24EBF582E43401F583DA
:1029A900E0B55601220FBF090040EB7F03EF24EB8E
:1029B900FDE43401FE8D828E83E070108D828E835A
:1029C900E556F07564099001EB0230580FBF090014
:1029D90040DB22AF82E5577001229001ECE0FE74E2
:1029E900FF6F52069001ECEEF07F03EF24EBFDE45C
:1029F9003401FE8D828E83E0B557068D828E83E485
:102A0900F00FBF090040E47564099001EB023058EA
:102A1900AF82855856C00712298BD0078558578F22
:102A2900820229DCAE82AF837D018F037C00ED2415
:102A3900F4F582E43401F583E07A00B5061CEAB5C1
:102A490007188D020AEA24F4F582E43401F583E0DB
:102A59007A00B50305EAB50401228D0274022AFD44
:102A6900BD090040C97D01ED24F4FBE43401FC8B70
:102A7900828C83E070328D02EA0424F4F8E4340194
:102A8900F988828983E070208E018B828C83E9F03A
:102A99000AEA24F4F582E43401F5838F04ECF07535
:102AA90064099001F40230588D0474022CFDBD09AB
:102AB9000040B42285825985835A7D01AB5A7C0036
:102AC900ED24F4F9E43401FA89828A83E07F00B5C0
:102AD900592FEFB55A2B8D07EF0424F4F582E4340E
:102AE90001F583E0F87E00B50317EEB5041389827A
:102AF9008A83E4F00FEF24F4F582E43401F583E4EA
:102B0900F08D0774022FFDBD090040B4756409906A
:102B190001F4023058AE82AF83C007C006122A2DD5
:102B2900D006D0078E828F83022ABD7F08EF24F456
:102B3900F582E43401F583E4F0DFF275640990016C
:102B4900F4023058AF82E4BF100104FE7003BF11D4
:102B5900249001FEE4F09001FFF0900200F0EE6095
:102B6900047E0180027EFF900201EEF075640590FB
:102B790001FD023058EF540760259001FEE0FE7414
:102B8900075F42069001FEEEF09001FFE4F090022B
:102B990000F0900201F07564059001FD02305822A1
:102BA900AF82BF10028003BF110E900201E4F075DD
:102BB90064059001FD023058EF540760269001FE2C
:102BC900E0FE74075FF452069001FEEEF09001FFFB
:102BD900E4F0900200F0900201F07564059001FDA7
:102BE90002305822AF82C007122B4DD0078F8202C4
:102BF9002BA99001FEE4F09001FFF0900200F09003
:102C09000201F07564059001FD023058900053E00F
:032C1900F582221F
:1034100000000000000000002A2B2800000000002F
:10342000000000000000000000000000000000009C
:103430002C9EB4A0A1A2A434A6A7A5AE362D3738E1
:10344000271E1F20212223242526B333B62EB7B8EA
:103450009F8485868788898A8B8C8D8E8F909192A8
:10346000939495969798999A9B9C9D2F3130A3ADF4
:10347000350405060708090A0B0C0D0E0F10111272
:10348000131415161718191A1B1C1DAFB1B0B5006F
:103490001201100100000040891190880002010211
:1034A0000301090249000201008019090400000219
:1034B0000301010409211001210122950007058162
:1034C0000310000A0705010310000A0904010002A5
:1034D00003000000092110012101221D000705023F
:1034E0000320000A0705820320000A05010906A13E
:1034F000018501050719E029E715002501950875E3
:10350000018102950175088103950675081500264D
:10351000FF000507190029E78100050819012905A1
:10352000150025019505750191029501750391031B
:10353000C0050C0901A1018502150026FF03190031
:103540002AFF03950475108100C005010902A1013D
:1035500085030901A10005091901290315002501A9
:1035600095037501810295017505810305010930F7
:10357000093109381581257F750895038106C0C07A
:10358000950660FF0961A1010962150026FF0095FB
:103590002075088102096391020964B102C01D040B
:1035A0000309041A034F00700065006E004D0061AE
:1035B00000630072006F0050006100640026034346
:1035C000004800350035003200200052004700421C
:1035D0000020004D006100630072006F0050006128
:1035E00000640014034300480035003500320078C1
:1035F000004800490044001A034800490044002DD7
:10360000004B006500790062006F00610072006489
:0136100000B9
:102C1C00C007AF8205A290000015A2855F82856077
:102C2C0083E493A3A5DFFAD00722AFDBBF080280B1
:102C3C0003022F31900007E0FE7F00900006E0FDBC
:102C4C007C004FF55BEC4EF55C900001E0F55D907F
:102C5C000000E0FE546060081230F0AF82022F33A7
:102C6C00E55D24F45003022F2DE55D240B83F582E2
:102C7C00E55D241083F583E4730FD22D552DA29DB1
:102C8C002DAEC933332F2D2F2E2F2D2C2F2D2D2F35
:102C9C002F900003E0FEBE01028012BE02028018DB
:102CAC00BE0302801EBE2202806B022D4F755F9008
:102CBC007560347F12022D51755FA27560347F49A7
:102CCC00022D51900002E0FE24FB4038EE2E902C99
:102CDC00DE738008800E8014801A8020755F9F75CB
:102CEC0060358026755FA3756035801E755FBD7578
:102CFC0060358016755FE3756035800E755FF7750E
:102D0C0060358006755FE3756035855F828560830D
:102D1C00E493FF8030900004E0700E755FEB7560FB
:102D2C00349034BBE493FF801C900004E0FEBE01A1
:102D3C000E755F817560359034DBE493FF80067F00
:102D4C00FF80027FFFBFFF03022F338F057E00C37E
:102D5C00ED955BEE955C50048D5B8E5CAD5BAE5C73
:102D6C00C3ED9440EE940040047D408002AD5B8D39
:102D7C00078F82122C1C8F057E00AB5BAC5CEBC307
:102D8C009DFBEC9EFC8B5B8C5CEF255FF55FE4356B
:102D9C0060F560022F33900002E0F55B755C000279
:102DAC002F33900000E55EF0AD5BAE5CC3ED94019B
:102DBC00EE94005003022F337F01022F3390000258
:102DCC00E0F55E022F33900000E0541F702D900050
:102DDC0003E0FD7E00900002E07B004206EB420522
:102DEC00BE0113BD00109034A9E49330E503022F0B
:102DFC00337FFF022F337FFF022F33900000E0FE62
:102E0C0053061FBE023E900004E0FEBE0102802964
:102E1C00BE02028013BE81028014BE822274BC5595
:102E2C00D44402F5D4022F3353D473022F3374BC21
:102E3C0055D24402F5D2022F3353D273022F337F73
:102E4C00FF022F337FFF022F33900000E0541F70DE
:102E5C002D900003E0FD7E00900002E07B00420616
:102E6C00EB4205BE0113BD00109034A9E49330E58C
:102E7C0003022F337FFF022F337FFF022F3390008B
:102E8C0000E0FE53061FBE0276900003E0FD7E00BC
:102E9C00900002E07B004206EB4205EE4D705C9028
:102EAC000005E0FD7E00900004E07B004206EB4252
:102EBC0005BE0105BD00028034BE0205BD000280C6
:102ECC0018BE8105BD0002801ABE822BBD0028747D
:102EDC00BF55D44403F5D4804E747F55D4440CF5BF
:102EEC00D4804474BF55D24403F5D2803A747F55D4
:102EFC00D2440CF5D280307FFF802C7FFF80287F5E
:102F0C00FF8024900000E4F0900001F0AD5BAE5C1B
:102F1C00C3ED9402EE940040047F02800AAF5B8004
:102F2C00067FFF80027FFFBFFF07755DFF75DCCF5B
:102F3C0022EF24BF40068FDD75DCC02275DD0075E5
:102F4C00DCC0227405B55D0280407406B55D49AEE7
:102F5C005BAF5CC3EE9440EF940040047E40800273
:102F6C00AE5B8E82122C1C8E057F00AB5BAC5CEBD7
:102F7C00C39DFBEC9FFC8B5B8C5CEE255FF55FE4EB
:102F8C003560F5608EDD63DC4022E5E35480FFE5BF
:102F9C005B4FF5E375DC022275DD0075DC02221255
:102FAC00316B75DD0043DC022230D95BE5D9540F5F
:102FBC00FFE5D95430FE600FBE10028048BE2002DF
:102FCC008021BE30408038EF600ABF0102800ABF0A
:102FDC000233800A122FAB802C1232178027123248
:102FEC002B8022EF600ABF0102800ABF0217800A01
:102FFC00122F4F8010123209800B1232488006EFCC
:10300C007003122C36C2D930D80F75DC021231FE87
:10301C0075E300C2DAC2D9C2D810DA0122E5DA208F
:10302C00E20375D8FF2275E22975D181E4F5ECF540
:10303C00ED75DC0212308943E10743D81FD2EAD286
:05304C00AF75DD00225C
:10013000756300C204C205900202E4F0900203F06D
:04014000900204F035
:1030510012303275D30022AE82AF832004FD7D0091
:10306100C3ED95645019ED2480FBE43400FCED2E92
:10307100F582E43FF583E08B828C83F00D80E1855E
:1030810064D3D20453D2FC2275EE4075EF0075E48F
:103091005275E50075D21275D41275EAC075EB0C44
:1030A10022AE82AF832005FDE56424DF5003756401
:1030B100207D00C3ED9564502DED2452FBE43400D6
:1030C100FCED2EF9E43FFA89828A83E08B828C83BE
:1030D100F0ED2405FBE43402FC89828A83E08B82D3
:1030E1008C83F00D80CD8564D5D20553D4FC227537
:1030F1006300900001E0FFBF090B900004E004F5BC
:103101006375820022900001E0FFBF0A02800890EF
:103111000001E0FFBF0B0475820022900001E0FF77
:10312100BF0128900004E0FFBF01207F008F057ED2
:1031310000EF2405F582E43402F583E08D828E836D
:10314100F00FBF200040E675822022900001E0FFD1
:10315100BF02028008900001E0FFBF030990000058
:10316100E4F0758201227582FF227402B56331E5B4
:10317100DB24DF402B7F00C3EF95DB5016EF245299
:10318100FDE43400FE8F82758300E08D828E83F032
:103191000F80E4900202E5DBF0900204E4F080117C
:1031A1007401B5630CE5DB6008900000E090020358
:1031B100F075630022900202E0F58222900203E0A2
:1031C100F58222900202E4F0900204F053D4F3223B
:1031D100900202E07003F58222900204E02452F58D
:1031E10082E43400F583E0FF900204E004F09002F1
:1031F10002E014F0E0700353D4F38F822275D212EF
:1032010075D412C204C2052275D30074FC55D24490
:1032110002F5D2C2042230DE10900040E0FFBF016F
:1032210008900041E0900203F02230DE1990020282
:10323100E5DBF0900204E4F0900202E0600874F330
:1032410055D44408F5D42275D50074FC55D44402F4
:10325100F5D4C205227A10E4FBFCE58225E0F58273
:10326100E58333F583EB33FBEC33FCEB9564F5F04D
:0E327100EC95654006FCABF0438201DADD22ED
:0600C500E478FFF6D8FD0F
:10008E00C000A88118C0D0B6001B18B64800401595
:10009E00B66F005010C0E0E65407B406005004E6F8
:0A00AE0054F8F6D0E0D0D0D00032B4
:10327F00E5828564F0A4C582C0F08565F0A4D0F026
:0D328F0025F0C5838564F0A42583F5832216
:0D00B80075816B1232B8E582600302008989
:10329C0020F71430F6148883A88220F507E6A8835B
:1032AC0075830022E280F7E49322E02275820022EB
:00000001FF
