:040000000200B83210
:01000B0032C2
:0100130032BA
:01001B0032B2
:0100230032AA
:01002B0032A2
:01003300329A
:01003B003292
:0300430002014770
:100048000000E2FBEAF2802C0000E0FBEAF08024EA
:10005800E6B50202EBF62200E2B50202EBF222005C
:10006800E0B50202EBF02230F6E0A88220F5D3EAF0
:10007800C6F582228B822230F6E6A88220F5D98046
:01008800CFA8
:030144000200892D
:05008900121A4180FE87
:10014700C021C0E0C0F0C082C083C007C006C005A0
:10015700C004C003C002C001C000C0D075D00012E7
:1001670023EFD0D0D000D001D002D003D004D005E7
:10017700D006D007D083D082D0F0D0E0D0210200C3
:100187008E7E007F008E05ED75F003A4FDC2AF7C67
:10019700008C03EB75F055A48D022AFBBB80005041
:1001A70005EB2BFA800774FFC39B25E0FA8A03EB64
:1001B70075F0CDA4ABF08B01743229F5087509FFF2
:1001C7008A82C007C006C005C004121BF6D004D03F
:1001D70005D006D0070CBC030040B6D2AF90000C88
:1001E700C007C006121BB8D006D00775FF000EBEA9
:1001F70000010F8E048F05C3EC94F0ED9400408549
:1002070022AF827585C0EF2FF58475868E858E8225
:1002170022AF82BF800040012275A15575A1AA4374
:10022700B10475A1007585C0EF2FF58490018CE0AE
:10023700F58EE58630E60375869A75A15575A1AAF0
:1002470053B1FB75A10022AE82AF837D007C00EC29
:1002570075F002A424DDF582742635F0F583E49366
:10026700FAA3E493FBC3EA9EEB9F40038D82220C23
:100277008C05BC220040D875822122E52C452BFF36
:10028700E52D4FF58222AF82E560242BF98706E53D
:1002970060242EF9E7FD601E8E047410C39DFD33A4
:1002A70095E0FBED24CDF582EB3426F583E4938CC2
:1002B700F0A4ABF08B067D0074012EF575E43DF5D7
:1002C700767E008F828E83122690AF838F8222AF35
:1002D70082E5347003F5822274FFB534038F8222DE
:1002E700AD347E0074012DF575E43EF5768F828E70
:1002F70083122690AF838F8222C3E534953550153C
:10030700E535C3953424F6400485353422AF34747B
:10031700092FF53422C3E53595345013E534C395D9
:100327003524F6400485353422E53424F7F53422A4
:10033700C2AF7F00E5347010F508F509F582C007F4
:10034700121BF6D0070203FA8FF005F07D017E003D
:100357008006ED2DFDEE33FED5F0F7AB397C00EBD3
:100367005205EC5206ED4E602E7582FFC007120251
:10037700D6AE827582FFC0061202D6AD827582FFA5
:10038700C0051202D6858209D005D0068D088E8257
:10039700121BF6D007805CEF75F003A42422FEF948
:1003A70087828F60C007C00612028D1202D6AD8207
:1003B700D006D007EE04F987828F60C007C006C059
:1003C7000512028D1202D6AC82D005D006D0077472
:1003D700022EF987828F60C007C005C00412028D04
:1003E7001202D6858209D004D0058C088D82121B93
:1003F700F6D0070FBF0300500302033BD2AF7F00C5
:10040700EF242EF9E7FE6003EE14F70FBF03004059
:10041700EF020300E4F536F537120282E582600445
:100427007535FF2275350022E4F536F5371202825D
:10043700E58260047535FF2275350022120282E5D8
:10044700827003F53522E53270047535FF22E53AEF
:100457007010E53B700CE53C7008E53D7004E5392C
:100467006009E4F536F5377535FF22E53570012269
:10047700E53324DE50067E217F008004AE337F0003
:10048700EE2EFEEF33FFEE24DDF582EF3426F58303
:10049700E493FEA3E493FF8E048F05EE4F7003F5FC
:1004A70035228C758D769000C8122690AE82AF8368
:1004B700C3E53694FFE53794FF50080536E4B536B3
:1004C700020537C3E5369EE5379F400375350022A1
:1004D700E58275F012A42400FE740135F0FFE5757E
:1004E70075F012A42400F577740135F0F578757668
:1004F70000E57675F003A4FA2EF8E43FF9C006C0CC
:100507000788038907EA2577FAE43578FE8A828E19
:1005170083E08B828F83F0740128FDE439FF8A82A0
:100527008E83A3E08D828F83F0740228F8E439F973
:100537008A828E83A3A3E088828983F00576C3E548
:10054700769406D007D00640A8227F00EF75F012F8
:10055700A42400FD740135F0FE7C00EC75F003A4C3
:100567002DFAE43EFB8A828B83E4F08A828B83A395
:10057700F08A828B83A3A3F00CBC060040DD0FBF7B
:10058700050040C89001027468F090010504F090DE
:10059700010804F090010A7401F090010B74E2F075
:1005A70090010D7401F090010E74E9F09001107440
:1005B70001F090011174EAF0900114746BF090014E
:1005C7001704F090011A04F090011C7401F09001D7
:1005D7001D74CDF090011F7401F090012074B5F0E7
:1005E7009001227401F090012374B6F07F027575B3
:1005F700018F82C0071204D7D0070FBF050040EE56
:100607007F00EF75F003A4245AFD740135F0FE8DC9
:10061700828E83E4F08D828E83A3F08D828E83A3F6
:10062700A3F00FBF060040DA75220075235075242A
:10063700FF7525007526FF7527507528FF75291446
:10064700752A007F00EF242BF876A00FBF03004028
:10065700F475310775380075320075330922AF829A
:100667007E04C3EE956150158E82C007C006120244
:1006770008AD82D006D007ED62070E80E58F822293
:10068700AE82AF830EBE00010F8E828F83E024FD02
:1006970050068E828F83E4F022758202120208854B
:1006A70082647401B5640474018001E4FE60047D12
:1006B7002080387402B564047D22802F7403B564EA
:1006C700047D2380267404B564047D36801D74057B
:1006D700B564047D6C80147406B564047D7E800B5C
:1006E7007407B564047D8080027D80758200C00632
:1006F700C005120208AC82D005D006BC4D437582F6
:1007070001C006C005120208AC82D005D006BC5055
:100717003074FF2564502AE56424F740247582036A
:10072700C006C005120208AC82D0058D61856482BF
:10073700C004120665AD82D004D006ECB505028070
:1007470003020551756200C006E56275F003A42433
:1007570000FBE43401FC8B028C07E56275F003A40F
:10076700FD2404F582C007C005C004C003C00212FF
:100777000208AE82D002D003D004D005D0078A8207
:100787008F83EEF074012BFEE43CFF74052DF58298
:10079700C007C006C005C004C003120208AA82D061
:1007A70003D004D005D006D0078E828F83EAF07479
:1007B700022BFEE43CFF74062DF582C007C006C07D
:1007C70004C003120208AD82D003D004D006D007BC
:1007D7008E828F83EDF08B828C83C006120687D0C2
:1007E70006E56275F003A4245AFE740135F0FF8E06
:1007F700828F83E4F08E828F83A3F08E828F83A310
:10080700A3F00562C3E5629406D006500302074EC3
:1008170074FA25644003020A23756200E56275F0E5
:1008270003A4245AFC740135F0FD8C658D66E562DE
:1008370075F003A4FF2416F582C007C005C0041293
:100847000208AB82D004D005D00785658285668310
:10085700EBF074012CF565E43DF56674172FF5820E
:10086700C007C005C004120208AB82D004D005D06F
:1008770007856582856683EBF074022CFAE43DFBFD
:1008870074182FF582C005C004C003C00212020805
:10089700AF82D002D003D004D0058A828B83EFF0D9
:1008A7008C828D83120687056274FA2562400302E3
:1008B7000823756301E56375F012A42400FC740135
:1008C70035F0FD756200E56275F003A42CFAE43D8E
:1008D700FFC004C0058A658F66E56375F012A4FC46
:1008E7002416FDE56275F003A4F5672DF582C007B0
:1008F700C004C002120208AD82D002D004D007851E
:100907006582856683EDF074012AF565E43FF56637
:1009170074172C2567F582C007C004C002120208AD
:10092700AD82D002D004D007856582856683EDF05D
:1009370074022AFBE43FFD74182C2567F582C00773
:10094700C005C003C002120208AC82D002D003D097
:1009570005D0078B828D83ECF08A828F83C005C018
:1009670004120687D004D0050562C3E5629406D059
:1009770005D00450030208CD056374FB25634003CB
:100987000208BC7F00EF75F003A42422FBF98F0255
:10099700EA75F003A4FA2470F582C007C003C00209
:1009A700C001120208E582D001D002D003F7EB04A0
:1009B700F974712AF582C003C002C001120208E56A
:1009C70082D001D002D003F774022BF974722AF592
:1009D70082C001120208E582D001D007F70FBF03DA
:1009E7000040A2758279120208E582F52B75827A9A
:1009F700120208E582F52C75827B120208E582F562
:100A07002D75827C120208E5825407F53175827DC7
:100A1700120208E582540FF538020D9274FB256423
:100A27004003020B7B756301E56375F012A4240094
:100A3700F565740135F0F566756200E56275F003DA
:100A4700A42565F568E43566F56985686A85696B87
:100A5700E56375F012A4FB2404FFE56275F003A4B7
:100A6700F5672FF582C003120208AF82D003856AAB
:100A770082856B83EFF074012568F56AE43569F5C3
:100A87006B74052B2567F582C003120208AF82D06D
:100A970003856A82856B83EFF074022568FAE43573
:100AA70069FF74062B2567F582C007C0021202088A
:100AB700AB82D002D0078A828F83EBF0856882856C
:100AC7006983120687056274FA25624003020A42A7
:100AD700056374FB25634003020A2F7F00EF75F05F
:100AE70003A42422FBF98F02EA75F003A4FA245E1B
:100AF700F582C007C003C002C001120208E582D018
:100B070001D002D003F7EB04F9745F2AF582C00322
:100B1700C002C001120208E582D001D002D003F75B
:100B270074022BF974602AF582C001120208E5826B
:100B3700D001D007F70FBF030040A27582671202EA
:100B470008E582F52B758268120208E582F52C7597
:100B57008269120208E582F52D75826A120208E59C
:100B6700825407F53175826B120208E582540FF53E
:100B770038020D9274FC25644003020CBB756200B9
:100B8700E56275F003A42412F56AE43401F56B8578
:100B97006A68856B69E56275F003A4FA2416F58225
:100BA700C002120208AF82D002856882856983EF8E
:100BB700F07401256AF568E4356BF56974172AF551
:100BC70082C002120208AF82D002856882856983DB
:100BD700EFF07402256AFBE4356BFF74182AF5827F
:100BE700C007C003120208AA82D003D0078B828FE6
:100BF70083EAF0856A82856B83120687056274FA39
:100C070025624003020B877F027575018F82C0073B
:100C17001204D7D0070FBF050040EE7F00EF75F035
:100C270003A42422FBF98F02EA75F003A4FA24280F
:100C3700F582C007C003C002C001120208E582D0D6
:100C470001D002D003F7EB04F974292AF582C00317
:100C5700C002C001120208E582D001D002D003F71A
:100C670074022BF9742A2AF582C001120208E58260
:100C7700D001D007F70FBF030040A27582311202DF
:100C870008E582F52B758232120208E582F52C758C
:100C97008233120208E582F52D758234120208E5C7
:100CA700825407F531758235120208E582540FF533
:100CB70038020D92757500758201C0061204D7D0EF
:100CC700067F027575018F82C007C0061204D7D050
:100CD70006D0070FBF050040EA7F00EF75F003A4B9
:100CE7002422FBF98F02EA75F003A4FA2416F58291
:100CF700C007C006C003C002C001120208E582D0C7
:100D070001D002D003F7EB04F974172AF582C00368
:100D1700C002C001120208E582D001D002D003F759
:100D270074022BF974182AF582C001120208E582B1
:100D3700D001D006D007F70FBF0300409E75821F72
:100D4700C006120208E582D006F52BEE6004AF2B31
:100D5700800C758220C006120208AF82D0068F2C45
:100D6700EE6004AF2B8008758221120208AF828FD4
:100D77002D74FD2564500D758222120208AF82532F
:100D8700070780027F078F3175380074F825645094
:100D97001E75827E120208E5825401F53275827F44
:100DA700120208E582F53324DE50367533212274AA
:100DB700F92564502675827E120208E5825401F5F2
:100DC7003275827F120208E58275F00AA4FFAEF041
:100DD7008F828E8312024E858233227532007533DD
:100DE7000922756E0890018C744DF075820012020D
:100DF7001890018C7450F075820112021890018CC2
:100E07007408F07582021202187E008E05ED75F0E7
:100E170003A4FD2404FCEE75F003A42400FAE434D3
:100E270001FB8A828B83E090018CF08C82C006C024
:100E370005C003C002120218D002D003D005740502
:100E47002DFF8A828B83A3E090018CF08F82C005EF
:100E5700C003C002120218D002D003D00574062DB9
:100E6700FF8A828B83A3A3E090018CF08F82C00559
:100E7700120218D005D00674162DFFEE75F003A4E4
:100E8700245AFB740135F0FC8B828C83E090018C33
:100E9700F08F82C006C005C004C003120218D00339
:100EA700D004D00574172DFF8B828C83A3E09001AB
:100EB7008CF08F82C005C004C003120218D003D083
:100EC70004D00574182DFD8B828C83A3A3E09001B9
:100ED7008CF08D82120218D0060EBE060050030257
:100EE7000E12756D01E56D75F012A42400FD7401F5
:100EF70035F0FE756C00E56D75F012A4FB2416FA4B
:100F0700E56C75F003A4FF2AF56FE56C75F003A493
:100F17002DFAE43EFC8A828C83C005C006E0FE9071
:100F2700018CF0856F82C007C006C005C004C003EE
:100F3700C002120218D002D003D004D005D006D0C8
:100F47000774172B2FFE8A828C83A3E0FD90018CF8
:100F5700F08E82C007C006C005C004C003C00212DD
:100F67000218D002D003D004D005D006D0077418D9
:100F77002B2FFF8A828C83A3A3E0FE90018CF08F36
:100F870082C006C005120218D005D006056CC3E55D
:100F97006C9406D006D0055003020EFD056D74FB58
:100FA700256D4003020EEC7F008F04EC75F003A45F
:100FB700FC2470FBEF75F003A42422FAF990018C4E
:100FC700E7F08B82C007C004C002120218D002D01B
:100FD7000474712CFBEA04F990018CE7F08B82C052
:100FE70004C002120218D002D00474722CFC7402DE
:100FF7002AF990018CE7F08C82120218D0070FBFF4
:10100700030040A590018CE52BF075827912021838
:1010170090018CE52CF075827A12021890018CE50C
:101027002DF075827B120218E53190018C5407F080
:1010370075827C120218E53890018C540FF0758286
:101047007D120218E53290018C5401F075827E12F0
:101057000218E53324DE50047F218004AC338C076B
:1010670090018CEFF075827F1202187F048F82C087
:1010770007120208AC82D007EC626E0FBF800040F7
:10108700EC90018CE56EF07582030202187F007EFA
:10109700008EF005F07C017D008006EC2CFCED3322
:1010A700FDD5F0F7AA397B00EA5204EB5205EC4D67
:1010B70060068F050D8D82220E8E07BE040040D17B
:1010C70075820022AE82AF83A3E0FD70148E828FFB
:1010D70083E0FC8E828F83A3A3E0F50B8C82021D35
:1010E700C5BD01118E828F83A3A3E0FD7C008D8295
:1010F7008C83021E678E828F83A3A3E0F582021F73
:1011070087AE82AF83A3E0FD70148E828F83E0FCED
:101117008E828F83A3A3E0F50C8C82021E16BD017D
:10112700118E828F83A3A3E0FD7C008D828C8302C6
:101137001EF78E828F83A3A3E0F582021FE3AE82A0
:10114700AF83A3E0FD70148E828F83E0FC8E828FC5
:1011570083A3A3E0F50D8C82021E53BD01118E827D
:101167008F83A3A3E0FD7C008D828C83021F588EA2
:10117700828F83A3A3E0F582022027AE82AF837418
:10118700022EFCE43FFD8C828D83E0701B8E048F62
:10119700058C828D83E070100EBE00010F8E828F4A
:1011A70083E07004C2008002D200A200E433F5821B
:1011B70022E582FF75F003A42400F582E43401F5EB
:1011C70083C007121145D007EF75F003A4FEAFF0F7
:1011D700245AF582EF3401F583C007C00612118245
:1011E700E582D006D007601E900028C007C006120F
:1011F7001BB8D006D00775FF00EE245AF582EF34EE
:1012070001F58302114522E582FF243AF98706BFDB
:10121700040050218FF005F07C017D008006EC2C46
:10122700FCED33FDD5F0F7AA387B00EA5204EB5208
:1012370005EC4D7004C2018002D201A201E433F52E
:1012470072E5707003021335EE6003021335C007B1
:10125700C00112041BD001D00774FD2571403785EA
:1012670071F005F07B017C008006EB2BFBEC33FC77
:10127700D5F0F7AA317D00EB5202EC5205EA4D603A
:1012870015AA397D00EA5203ED5204EB4C7007E5CD
:1012970071242EF87610E5726015EF244CF876006D
:1012A700EF2450F87600EF245AF8760002141AEF6C
:1012B7002454F8C007C001C000121094AD82D000BA
:1012C700D001D007A605ED7038EF75F003A4245AB6
:1012D700F582740135F0F583C007C001C000121113
:1012E70082E582D000D001D00760168F82C007C088
:1012F700011211B8D001D007EF245AF87601021471
:101307001AE675F012A42400FC740135F0FDEF75A0
:10131700F003A42CF582E43DF583C007C001121049
:10132700CBD001D007EF245AF8760002141AE570E3
:101337006052EE604FE572700302141AEF2450F802
:10134700E6600302141AEF244CFDC000A8058604CA
:10135700D000BCFF005009EC04C000A805F6D0007F
:10136700C000A8058605D000BD2800500302141A46
:1013770076018FF005F07401800225E0D5F0FB427D
:101387003902141AE570600302141AEE700302148E
:101397001AE5726049EF2450F8E660128FF005F005
:1013A7007401800225E0D5F0FBF452398022EF2446
:1013B7004CFEC000A8068606D000BE040040118F70
:1013C70082C007C001C0001211B8D000D001D007F9
:1013D700EF244CC000F87600D0007600802FEF2471
:1013E7005AF8E67028EF2454F8E675F012A42400A2
:1013F700FD740135F0FEEF75F003A42DF582E43E90
:10140700F583C007C001121108D001D007EF245A95
:10141700F87600A77022E582FF2440F9E7B573024A
:101427008009A773EF2446F8760022EF2446F98750
:1014370006BE020050090EA706BE02005001228513
:1014470073708574718F8202120EAF827E00EE2454
:101457006CF582E43401F583E4F00EBE200040EE23
:1014670043078090016CEFF090016DE575F02285E0
:1014770082777401B5750474018001E4FEE5777520
:10148700F012A42400FC740135F0FD757800E577AF
:101497007015EE6012E57875F003A4245AF5797497
:1014A7000135F0F57A800DE57875F003A42CF57910
:1014B700E43DF57AE57875F003A4F8AF762FF933B4
:1014C70095E0FAE9246CF9EA3401FA857982857A9C
:1014D70083E089828A83F0EF0428FB3395E0FAEBF7
:1014E700246CFBEA3401FA857982857A83A3E08B41
:1014F700828A83F074022F28F83395E0FFE8246C82
:10150700F8EF3401FF857982857A83A3A3E0888287
:101517008F83F0057874FA257840030214952285A5
:1015270082777401B5750474018001E4FEE577756F
:10153700F012A42400FC740135F0FD757800E577FE
:101547007015EE6012E57875F003A4245AF57974E6
:101557000135F0F57A800DE57875F003A42CF5795F
:10156700E43DF57AC006A879AF7AE57875F003A46B
:10157700FAA97629FB3395E0FEEB246CF582EE346D
:1015870001F583E088828F83F074012579F57BE488
:10159700357AF57CE9042AFF3395E0FEEF246CF5F4
:1015A70082EE3401F583E0FFC374029FD006500436
:1015B7007F008014E9042AFA3395E0FBEA246CF5EE
:1015C70082EB3401F583E0FF857B82857C83EFF036
:1015D70074022579FBE4357AFF0909E57875F0038C
:1015E700A429F93395E0FAE9246CF582EA3401F588
:1015F70083E08B828F83F0057874FA2578400302A5
:101607001545221225F0E582FF7001227E00C3EE08
:101617009F502BBE20005026EE246CFCE43401FDC5
:10162700C007C006C005C00412260BAB82D004D089
:1016370005D006D0078C828D83EBF00E80D0C007D3
:101647001225FED00790016CE0FEBE0173BF0A00B1
:10165700500F7575028E82C006121451D006021AF9
:101667001F7D00ED75F003A42422FCF98D03EB75B3
:10167700F003A4FB04246CF582E43401F583E0F75E
:10168700EC04F974022B246CF582E43401F583E051
:10169700F774022CF90B0B0BEB246CF582E4340185
:1016A700F583E0F70DBD030040B9C00612042FD043
:1016B700067575008E82C006121451D006021A1FD5
:1016C700BE055DBF0200500F7575028E82C00612FF
:1016D7001451D006021A1FBF0400401D7D00ED24DF
:1016E7002BF98D040CEC246CF582E43401F583E0CE
:1016F700F70DBD030040E780117D00ED242BF99025
:10170700016DE0F70DBD030040F1C00612042FD0B4
:10171700067575008E82C006121451D006021A1F74
:10172700BE03028002807B7D007C02BF150040075C
:1017370090016EE0FD7C038C0374122BFB8F02C3B8
:10174700EA9B500F7575028E82C006121451D0069F
:10175700021A1F90016DE0FBBB0500400F75750174
:101767008E82C006121451D006021A1FBD02005005
:1017770006ED6012EB600F7575018E82C0061214BC
:1017870051D006021A1F8D758C768B82C0061215F2
:1017970026D0067575008E82C006121451D0060237
:1017A7001A1FBE0A028003021831BF0300400790C8
:1017B700016EE0FD80027D00BF0200500F757502CB
:1017C7008E82C006121451D006021A1F90016DE0D6
:1017D700FCBC0500400F7575018E82C006121451BE
:1017E700D006021A1FBD02005006ED6012EC600F12
:1017F7007575018E82C006121451D006021A1F7524
:1018070075008E82C006C005C004121451D004D0E2
:101817000590016EECF090016FEDF08D7575760413
:101827008C82121476D006021A1FBE0B2DBF02003F
:10183700500F7575028E82C006121451D006021A17
:101847001F90016DE0FD740F5DF5387575008E8290
:10185700C006121451D006021A1FBE0416C0061283
:101867000DE9D0067575008E82C006121451D00698
:10187700021A1FBE02727575008E82C006121451BD
:1018870090016E7405F0E538540F90016FF075758F
:1018970000757604758200121476D0067D008D04DB
:1018A700EC75F003A4FC2416246CF582E43401F5EE
:1018B70083ED75F003A42422FBF9E7F074172C24B9
:1018C7006CF582E43401F583EB04F9E7F074182C26
:1018D700246CF582E43401F58374022BF9E7F00DEB
:1018E700BD030040B9021A1FBE0802800302198611
:1018F7007575008E82C006121451D0067D008D04C6
:101907000C0CEC246CF582E43401F583ED242BF9FF
:10191700E7F08D04EC75F003A4FC2405246CF58234
:10192700E43401F583ED75F003A42422FBF9E7F015
:1019370074062C246CF582E43401F583EB04F9E793
:10194700F074072C246CF582E43401F58374022BC0
:10195700F9E7F00DBD030040A5E531540790017A82
:10196700F0E532540190017BF0E53324DE50047D2D
:10197700218004AC338C0590017CEDF0021A1FBE68
:10198700092CBF0200500F7575028E82C006121413
:1019970051D006021A1F90016DE0FD74075DF53105
:1019A7007575008E82C006121451D006806ABE0C6F
:1019B7003FBF0300500E7575028E82C00612145188
:1019C700D006805490016DE0FF74015FF5329001FD
:1019D7006EE0F53324DE5003753321C00612041B75
:1019E700D0067575008E82C006121451D006802865
:1019F700BE07028003BE06147575008E82C00612EC
:101A07001451D00690016E7405F0800C7575018E27
:101A170082C006121451D00675752090016CC0065D
:101A27001224DCD006BE0611900032121BB875E2F4
:101A370000C2AF75890012380022C2B45396EF4333
:101A4700971020911F900119121B997F097582FF2A
:101A5700C007121BE0D007DFF475E200C2AF75893B
:101A67000012380075A15575A1AA53B9F843B905F5
:101A770075A100900005121BB875FF0075A155757B
:101A8700A1AA43B10175A10012018812248B120586
:101A9700511206A07539007F00EF243AF87600EF5F
:101AA7002440F87600EF2446F87600EF2454F876C1
:101AB70000EF245AF876000FBF060040DC7F00EFE6
:101AC700244CF87600EF2450F876000FBF0400404E
:101AD700EE7F00EF242EF876000FBF030040F47569
:101AE700340012041BA291B39202E433F5737574A8
:101AF7000075820012141DA297B39202E433F573A6
:101B070075740175820112141DA296B39202E43313
:101B1700F57375740275820212141DA2B3B3920293
:101B2700E433F5737574FF75820312141D20B14DEC
:101B370012041B121094AF8230B0047E0480027E20
:101B47000590000AC007C006121BB8D006D00720B0
:101B5700B10575FF0080F8EF70078E821211B8800B
:101B67001CEF75F012A42400FD740135F0FFEE752B
:101B7700F003A42DF582E43FF58312114512160AEE
:101B8700120443120337900005121BB875FF0002B9
:021B97001AEC46
:1026CD00C88C645A647D9BB4C8DAE8F2F8FCFEFF4E
:1026DD0000000100030005000A0014001E00280080
:1026ED0032003C00460050005A0064006E00780035
:1026FD0082008C009600A000AA00B400BE00C800A5
:10270D00D200DC00E600F000FA0004010E01180111
:04271D0022012C0168
:101B9900AE82AF83EE4F6016E5A104F5A1E5A1047D
:101BA900F5A1E5A104F5A11EBEFF011F80E622AE45
:101BB90082AF83EE4F60159003E8C007C006121B81
:0D1BC90099D006D0071EBEFF011F80E72245
:101BD700C007AF82DFFED007227F08C58233D2B4A9
:101BE70092B4000000000000C2B40000DFEF22AF93
:101BF70082E50890272193F582C007121BE0D007E2
:101C0700EF90272193F582121BE0E5099027219396
:101C1700F582021BE0E582FF23235403FE743F5F36
:101C2700850AF005F0800225E0D5F0FBFF850AF074
:101C370005F0743F800225E0D5F0FB8F04C39CFDBF
:101C4700EE600ABE0102800FBE022080148F087565
:101C570009008D82021BF68D088F09758200021B11
:0C1C6700F67508008D098F82021BF62222
:1027210000000000000000000000000000000000A8
:102731000000000000000000000000000101010194
:102741000101010101010101010202020202020271
:10275100020303030303030304040404040505053E
:102761000506060606070707070808080909090AF2
:102771000A0A0B0B0B0C0C0D0D0D0E0E0F0F10108A
:1027810011111212131314141515161617181819FE
:10279100191A1B1B1C1D1D1E1F202021222323244F
:1027A1002526272728292A2B2C2D2E2F303132326E
:1027B1003334363738393A3B3C3D3E3F404243445F
:1027C100454648494A4B4D4E4F515253555657591C
:1027D1005A5C5D5F606263656668696B6D6E70729D
:1027E100737577787A7C7E7F81838587898A8C8EE1
:1027F10090929496989A9C9EA0A2A4A7A9ABADAFE3
:10280100B1B4B6B8BABDBFC1C4C6C8CBCDD0D2D59C
:10281100D7DADCDFE1E4E7E9ECEFF1F4F7F9FCFF0B
:1000CB0090018D7401F090018EE4F090018FF0900F
:1000DB000190F0900191F0900192F0900193F090CB
:1000EB000194F0900195F09001967402F0900197B5
:1000FB00E4F0900198F0900199F090019AF0900142
:10010B009BF090019CF090019DF090019EF090016E
:10011B009F7403F09001A0E4F09001A1F09001A274
:05012B00F09001A3F0BB
:101C7300AF82BF880040088F06EE2478FE803EBF07
:101C83008000402290018EE0FD8F04EC2480F5F06B
:101C930005F07401800225E0D5F0FB420590018E2A
:101CA300EDF07E008017EF90282193FE700122EE65
:101CB30030E70A90018EE04402F053067F7F03EF82
:101CC300248DF582E43401F583E0B50601220FBFCC
:101CD300090040EB7F03EF248DFCE43401FD8C828B
:101CE3008D83E0700F8C828D83EEF0757509900102
:101CF3008D0224920FBF090040DC22AF82BF88000F
:101D030040088F06EE2478FE803FBF80004023907A
:101D1300018EE0FD8F04EC2480F5F005F074018062
:101D23000225E0D5F0FBF4520590018EEDF07E0024
:101D33008017EF90282193FE700122EE30E70A907E
:101D4300018EE054FDF053067F7F03EF248DFCE406
:101D53003401FD8C828D83E0B506068C828D83E48D
:101D6300F00FBF090040E475750990018D022492BC
:101D7300AF82C007121C73D0078F82021CFE7F083C
:101D8300EF248DF582E43401F583E4F0DFF2757519
:101D93000990018D022492AD82AE83AFF08D828EC5
:101DA300838FF01226ADFC60188C820DBD00010EEE
:101DB300C007C006C005121D73D005D006D007802A
:101DC300DC22AF82E50B70012290018EE042079086
:101DD300018EEFF07F03EF248DF582E43401F58368
:101DE300E0B50B01220FBF090040EB7F03EF248D09
:101DF300FDE43401FE8D828E83E070108D828E832C
:101E0300E50BF075750990018D0224920FBF09004F
:101E130040DB22AF82E50C70012290018EE0FE745C
:101E2300FF6F520690018EEEF07F03EF248DFDE4E9
:101E33003401FE8D828E83E0B50C068D828E83E4A1
:101E4300F00FBF090040E475750990018D022492DB
:101E5300AF82850D0BC007121DC5D007850D0C8FF2
:101E630082021E16AE82AF837D018F037C00ED24B8
:101E730096F582E43401F583E07A00B5061CEAB5F1
:101E830007188D020AEA2496F582E43401F583E00B
:101E93007A00B50305EAB50401228D0274022AFD16
:101EA300BD090040C97D01ED2496FBE43401FC8BA0
:101EB300828C83E070328D02EA042496F8E43401C4
:101EC300F988828983E070208E018B828C83E9F00C
:101ED3000AEA2496F582E43401F5838F04ECF07565
:101EE30075099001960224928D0474022CFDBD099C
:101EF3000040B42285820E85830F7D01AB0F7C00E9
:101F0300ED2496F9E43401FA89828A83E07F00B5EF
:101F13000E2FEFB50F2B8D07EF042496F582E434D3
:101F230001F583E0F87E00B50317EEB5041389824B
:101F33008A83E4F00FEF2496F582E43401F583E419
:101F4300F08D0774022FFDBD090040B4757509902B
:101F53000196022492AE82AF83C007C006121E67A9
:101F6300D006D0078E828F83021EF77F08EF249658
:101F7300F582E43401F583E4F0DFF275750990012D
:101F830096022492AF82E4BF100104FE7003BF11D6
:101F9300249001A0E4F09001A1F09001A2F0EE6082
:101FA300047E0180027EFF9001A3EEF0757505901B
:101FB300019F022492EF540760259001A0E0FE7474
:101FC300075F42069001A0EEF09001A1E4F09001BA
:101FD300A2F09001A3F075750590019F022492224F
:101FE300AF82BF10028003BF110E9001A3E4F0750E
:101FF300750590019F022492EF540760269001A07B
:10200300E0FE74075FF452069001A0EEF09001A188
:10201300E4F09001A2F09001A3F075750590019F83
:1020230002249222AF82C007121F87D0078F820239
:102033001FE39001A0E4F09001A1F09001A2F090C1
:1020430001A3F075750590019F022492900053E05F
:03205300F58222F1
:1028210000000000000000002A2B2800000000002A
:102831000000000000000000000000000000000097
:102841002C9EB4A0A1A2A434A6A7A5AE362D3738DC
:10285100271E1F20212223242526B333B62EB7B8E5
:102861009F8485868788898A8B8C8D8E8F909192A3
:10287100939495969798999A9B9C9D2F3130A3ADEF
:10288100350405060708090A0B0C0D0E0F1011126D
:10289100131415161718191A1B1C1DAFB1B0B5006A
:1028A100120110010000004089119088000201020C
:1028B1000301090249000201008019090400000214
:1028C100030101040921100121012295000705815D
:1028D1000310000A0705010310000A0904010002A0
:1028E10003000000092110012101221D000705023A
:1028F1000320000A0705820320000A05010906A139
:10290100018501050719E029E715002501950875DD
:102911000181029501750881039506750815002648
:10292100FF000507190029E781000508190129059C
:102931001500250195057501910295017503910316
:10294100C0050C0901A1018502150026FF0319002C
:102951002AFF03950475108100C005010902A10138
:1029610085030901A10005091901290315002501A4
:1029710095037501810295017505810305010930F2
:10298100093109381581257F750895038106C0C075
:10299100950660FF0961A1010962150026FF0095F6
:1029A1002075088102096391020964B102C01D0406
:1029B1000309041A034F00700065006E004D0061A9
:1029C10000630072006F0050006100640026034341
:1029D1000048003500350032002000520047004217
:1029E1000020004D006100630072006F0050006123
:1029F10000640014034300480035003500320078BC
:102A0100004800490044001A034800490044002DD1
:102A1100004B006500790062006F00610072006484
:012A210000B4
:10205600C007AF8205A290000015A28514828515DF
:1020660083E493A3A5DFFAD00722AFDBBF08028083
:102076000302236B900007E0FE7F00900006E0FD60
:102086007C004FF510EC4EF511900001E0F5129032
:102096000000E0FE5460600812252AAF8202236D1C
:1020A600E51224F45003022367E512240B83F5821C
:1020B600E512241083F583E473490C678F67DCD738
:1020C60067E8036D6D232223222321202321222367
:1020D60023900003E0FEBE01028012BE02028018B9
:1020E600BE0302801EBE2202806B0221897514A1E6
:1020F6007515287F1202218B7514B37515287F4933
:1021060002218B900002E0FE24FB4038EE2E902147
:1021160018738008800E8014801A80207514B0759C
:10212600152980267514B4751529801E7514CE756B
:10213600152980167514F4751529800E7514087501
:10214600152A80067514F47515298514828515835C
:10215600E493FF8030900004E0700E7514FC751552
:10216600289028CCE493FF801C900004E0FEBE017A
:102176000E7514927515299028ECE493FF80067F5E
:10218600FF80027FFFBFFF0302236D8F057E00C322
:10219600ED9510EE951150048D108E11AD10AE1107
:1021A600C3ED9440EE940040047D408002AD108D56
:1021B600078F821220568F057E00AB10AC11EBC341
:1021C6009DFBEC9EFC8B108C11EF2514F514E43569
:1021D60015F51502236D900002E0F5107511000249
:1021E600236D900000E513F0AD10AE11C3ED940120
:1021F600EE9400500302236D7F0102236D900002CE
:10220600E0F51302236D900000E0541F702D90003E
:1022160003E0FD7E00900002E07B004206EB4205F3
:10222600BE0113BD00109028BAE49330E5030223E3
:102236006D7FFF02236D7FFF02236D900000E0FE9D
:1022460053061FBE023E900004E0FEBE0102802936
:10225600BE02028013BE81028014BE822274BC5567
:10226600D44402F5D402236D53D47302236D74BC97
:1022760055D24402F5D202236D53D27302236D7FE9
:10228600FF02236D7FFF02236D900000E0541F7054
:102296002D900003E0FD7E00900002E07B004206E8
:1022A600EB4205BE0113BD00109028BAE49330E559
:1022B6000302236D7FFF02236D7FFF02236D9000D3
:1022C60000E0FE53061FBE0276900003E0FD7E008E
:1022D600900002E07B004206EB4205EE4D705C90FA
:1022E6000005E0FD7E00900004E07B004206EB4224
:1022F60005BE0105BD00028034BE0205BD00028098
:1023060018BE8105BD0002801ABE822BBD0028744E
:10231600BF55D44403F5D4804E747F55D4440CF590
:10232600D4804474BF55D24403F5D2803A747F55A5
:10233600D2440CF5D280307FFF802C7FFF80287F2F
:10234600FF8024900000E4F0900001F0AD10AE1183
:10235600C3ED9402EE940040047F02800AAF108021
:10236600067FFF80027FFFBFFF077512FF75DCCF78
:1023760022EF24BF40068FDD75DCC02275DD0075B7
:10238600DCC0227405B5120280407406B51249AE4F
:1023960010AF11C3EE9440EF940040047E408002DB
:1023A600AE108E821220568E057F00AB10AC11EB5C
:1023B600C39DFBEC9FFC8B108C11EE2514F514E4E9
:1023C6003515F5158EDD63DC4022E5E35480FFE527
:1023D600104FF5E375DC022275DD0075DC02221272
:1023E60025A575DD0043DC022230D95BE5D9540F03
:1023F600FFE5D95430FE600FBE10028048BE2002B1
:102406008021BE30408038EF600ABF0102800ABFDB
:102416000233800A1223E5802C12265180271226C9
:10242600658022EF600ABF0102800ABF0217800A98
:102436001223898010122643800B1226828006EF13
:102446007003122070C2D930D80F75DC02122638FC
:1024560075E300C2DAC2D9C2D810DA0122E5DA2061
:10246600E20375D8FF2275E22975D181E4F5ECF512
:10247600ED75DC021224C343E10743D81FD2EAD22A
:05248600AF75DD00222E
:10013000751800C203C2049001A4E4F09001A5F078
:040140009001A6F094
:10248B0012246C75D30022AE82AF832003FD7D0036
:10249B00C3ED95755019ED2480FBE43400FCED2E53
:1024AB00F582E43FF583E08B828C83F00D80E18530
:1024BB0075D3D20353D2FC2275EE4075EF0075E451
:1024CB005275E50075D21275D41275EAC075EB0C16
:1024DB0022AE82AF832004FDE57524DF50037575B2
:1024EB00207D00C3ED9575502DED2452FBE4340097
:1024FB00FCED2EF9E43FFA89828A83E08B828C8390
:10250B00F0ED24A7FBE43401FC89828A83E08B8203
:10251B008C83F00D80CD8575D5D20453D4FC2275F8
:10252B001800900001E0FFBF090B900004E004F5D8
:10253B001875820022900001E0FFBF0A028008900C
:10254B000001E0FFBF0B0475820022900001E0FF49
:10255B00BF0128900004E0FFBF01207F008F057EA4
:10256B0000EF24A7F582E43401F583E08D828E839E
:10257B00F00FBF200040E675822022900001E0FFA3
:10258B00BF02028008900001E0FFBF03099000002A
:10259B00E4F0758201227582FF227402B51831E5D1
:1025AB00DB24DF402B7F00C3EF95DB5016EF24526B
:1025BB00FDE43400FE8F82758300E08D828E83F004
:1025CB000F80E49001A4E5DBF09001A6E4F080110C
:1025DB007401B5180CE5DB6008900000E09001A5D4
:1025EB00F0751800229001A4E0F582229001A5E07D
:1025FB00F582229001A4E4F09001A6F053D4F322CB
:10260B009001A4E07003F582229001A6E02452F51C
:10261B0082E43400F583E0FF9001A6E004F0900122
:10262B00A4E014F0E0700353D4F38F822275D2121E
:10263B0075D412C203C2042275D30074FC55D24464
:10264B0002F5D2C2032230DE10900040E0FFBF0142
:10265B0008900041E09001A5F02230DE199001A412
:10266B00E5DBF09001A6E4F09001A4E0600874F3C0
:10267B0055D44408F5D42275D50074FC55D44402C6
:05268B00F5D4C2042299
:0600C500E478FFF6D8FD0F
:10008E00C000A88118C0D0B6001B18B64800401595
:10009E00B66F005010C0E0E65407B406005004E6F8
:0A00AE0054F8F6D0E0D0D0D00032B4
:10269000E5828575F0A4C582C0F08576F0A4D0F0FF
:0D26A00025F0C5838575F0A42583F5832200
:0D00B80075817C1226C9E582600302008973
:1026AD0020F71430F6148883A88220F507E6A88356
:1026BD0075830022E280F7E49322E02275820022E6
:00000001FF
