:040000000200B83210
:01000B0032C2
:0100130032BA
:01001B0032B2
:0100230032AA
:01002B0032A2
:01003300329A
:01003B003292
:0300430002013087
:100048000000E2FBEAF2802C0000E0FBEAF08024EA
:10005800E6B50202EBF62200E2B50202EBF222005C
:10006800E0B50202EBF02230F6E0A88220F5D3EAF0
:10007800C6F582228B822230F6E6A88220F5D98046
:01008800CFA8
:03012D0002008944
:0500890012099B80FE3E
:10013000C021C0E0C0F0C082C083C007C006C005B7
:10014000C004C003C002C001C000C0D075D00012FE
:100150001278D0D0D000D001D002D003D004D00586
:10016000D006D007D083D082D0F0D0E0D0210200DA
:100170008EAF827585C0EF2FF58475868E858E8251
:1001800022AF82BF800040012275A15575A1AA430C
:10019000B10475A1007585C0EF2FF584900120E0B2
:1001A000F58EE58630E60375869A75A15575A1AA88
:1001B00053B1FB75A10022AF82E5462443F98706BF
:1001C0007D0074012EF519E43DF51A7E008F828EB4
:1001D00083121534AF838F8222C2AF7F00EF75F098
:1001E00003A4243AFEF987828F46C007C006120195
:1001F000B7AD82D006D007EE04F987828F46C007DC
:10020000C006C0051201B7AC82D005D006D0077475
:10021000022EF987828F46C007C005C0041201B7BD
:10022000858209D004D0058C088D82120B47D00737
:100230000FBF030040A7D2AF227F00EF2F25E0249D
:1002400022FEF97700EE04F8760074032EF87600AB
:100250000FBF060040E5752468752869752C6A751E
:100260002F017530E27533017534E9753701753842
:10027000EA753A00753B50753CFF753D00753EFFD1
:10028000753F507540FF7541147542007F00EF24A3
:1002900043F876A00FBF030040F422AF827E04C370
:1002A000EE954750158E82C007C006120171AD82CF
:1002B000D006D007ED62070E80E58F82227582029C
:1002C000120171AF82BF01047E2080027E227582FE
:1002D00000C007C006120171AD82D006D007BD4D27
:1002E00042758201C007C006120171AD82D006D0EE
:1002F00007BD502FBF01028003BF0227758203C0D4
:1003000007C006120171AD82D006D0078E478F82DA
:10031000C007C00512029BAE82D005D007EDB5061E
:100320000280030202397E00EE2E25E02422FDF930
:100330008E04EC75F003A4FC2404F582C007C0060B
:10034000C005C004C001120171E582D001D004D003
:1003500005F7ED04F974052CF582C005C004C00151
:10036000120171E582D001D004D005F774022DF896
:1003700074062CF582C005C001C000120171E5822F
:10038000D000D001D005D006D007F674032DF87642
:1003900000E724FE500277000EBE0600408A7E0071
:1003A000EE75F003A4243AFDF98E04EC75F003A475
:1003B000FC2416F582C007C006C005C004C00112A7
:1003C0000171E582D001D004D005F7ED04F974176E
:1003D0002CF582C005C004C001120171E582D00174
:1003E000D004D005F774022DF974182CF582C001E1
:1003F000120171E582D001D006D007F70EBE0300CE
:10040000409E75821FC007120171E582D007F54337
:10041000BF0103EF8001E4FF6004AE43800C7582EE
:1004200020C007120171AE82D0078E44EF6004AF86
:10043000438008758221120171AF828F45227F02AD
:10044000900120744DF0758200C007120181900167
:10045000207450F07582011201819001207402F025
:10046000758202120181D0077E008E05ED75F003C2
:10047000A4FD2404FCEE2E25E02422FBF9900120AB
:10048000E7F08C82C007C006C005C003120181D00E
:1004900003D00574052DFCEB04F9900120E7F08CE6
:1004A00082C005C003120181D003D00574062DFD62
:1004B00074022BF9900120E7F08D82120181D006A1
:1004C000D0070EBE060040A27E008E05ED75F0033B
:1004D000A4FD2416FCEE75F003A4243AFBF9900168
:1004E00020E7F08C82C007C006C005C0031201815E
:1004F000D003D00574172DFCEB04F9900120E7F030
:100500008C82C005C003120181D003D00574182D60
:10051000FD74022BF9900120E7F08D82120181D049
:1005200006D0070EBE030040A17E008E05741F2D6D
:10053000FDEE2443F9900120E7F08D82C007C0064C
:10054000120181D006D0070EBE030040DE7E048E6D
:1005500082C007C006120171AD82D006D007ED62DD
:10056000070EBE220040E8900120EFF075820302E2
:100570000181AF82AC48AD49AE4A74032CF9E43D29
:10058000FA8E0389828A838BF0121551F8EFB50039
:10059000012289828A838BF0EF1215196059740148
:1005A0002CFAE43DFB8E078A828B838FF012155163
:1005B00070298C028D038E078A828B838FF012152F
:1005C00051FA74022CF9E43DFB8E0789828B838FEC
:1005D000F0121551F50B8A82020D1674022CFAE402
:1005E0003DFB8E078A828B838FF0121551FA7F00B4
:1005F0008A828F83020DB874012CFAE43DFB8E07CA
:100600008A828B838FF012155170298C028D038E94
:10061000078A828B838FF0121551FA74022CF9E449
:100620003DFB8E0789828B838FF0121551F50C8A62
:1006300082020D6774022CFCE43DFD8C828D838E5A
:10064000F0121551FC7F008C828F83020E48AF821E
:100650007E00EE2400F582E43401F583E4F00EBE62
:10066000200040EE430780900100EFF0900101E58B
:1006700019F022121479E582FF7001227E00C3EE88
:100680009F502BBE20005026EE2400FCE43401FDD8
:10069000C007C006C005C004121494AB82D004D0B9
:1006A00005D006D0078C828D83EBF00E80D0C0077A
:1006B000121487D007900100E0FEBE016CBF0A0053
:1006C000500F7519028E82C00612064ED00602091E
:1006D000797D00ED75F003A4243AFCF98D03EB75E8
:1006E000F003A4FB042400F582E43401F583E0F771
:1006F000EC04F974022B2400F582E43401F583E064
:10070000F774022CF90B0B0BEB2400F582E4340197
:10071000F583E0F70DBD030040B97519008E82C066
:100720000612064ED006020979BE0556BF020050D9
:100730000F7519028E82C00612064ED00602097984
:10074000BF0400401D7D00ED2443F98D040CEC2412
:1007500000F582E43401F583E0F70DBD030040E7C6
:1007600080117D00ED2443F9900101E0F70DBD03F8
:100770000040F17519008E82C00612064ED00602A6
:100780000979BE03028003020816BF1300500F75DB
:1007900019028E82C00612064ED0060209797F0029
:1007A000EF2F25E02422FDF98F04EC75F003A4FC63
:1007B000042400F582E43401F583E0F7ED04F974D4
:1007C000022C2400F582E43401F583E024FE500479
:1007D0007D00800E0C0CEC2400F582E43401F583DE
:1007E000E0FDA705EF2F25E024222402F98F05ED77
:1007F00075F003A424032400F582E43401F583E0BA
:10080000F70FBF060040997519008E82C0061206C8
:100810004ED006020979BE0416C00612043ED00668
:100820007519008E82C00612064ED006020979BEE6
:10083000020280030208E37519008E82C0061206C8
:100840004ED0069001027401F0900103E543F07F61
:10085000008F05ED75F003A4FD24042400F582E467
:100860003401F583EF2F25E02422FCF9E7F074052D
:100870002D2400F582E43401F583EC04F9E7F074EB
:10088000062D2400F582E43401F58374022CF9E787
:10089000F00FBF060040BA7F008F05ED75F003A48E
:1008A000FD24162400F582E43401F583EF75F0038E
:1008B000A4243AFCF9E7F074172D2400F582E434FF
:1008C00001F583EC04F9E7F074182D2400F582E4B7
:1008D0003401F58374022CF9E7F00FBF030040B92F
:1008E000020979BE086B7519008E82C00612064E89
:1008F000D0067F008F050D0DED2400F582E4340154
:10090000F583EF2443F9E7F08F05ED75F003A4FDBF
:1009100024052400F582E43401F583EF75F003A487
:10092000243AFCF9E7F074062D2400F582E4340142
:10093000F583EC04F9E7F074072D2400F582E43424
:1009400001F58374022CF9E7F00FBF030040A58086
:1009500028BE07028003BE06147519008E82C006E9
:1009600012064ED0069001027401F0800C75190138
:100970008E82C00612064ED006751920900100C066
:1009800006121365D006BE0611900032120B0975CF
:10099000E200C2AF75890012380022C2B45396EF4C
:1009A00043971020911F900119120AEA7F0975825E
:1009B000FFC007120B31D007DFF475E200C2AF753C
:1009C000890012380075A15575A1AA53B9F843B929
:1009D0000575A100900005120B0912131475FF0094
:1009E00075A15575A1AA43B10175A1001202BDA25E
:1009F00091B39200E433F582754822754900754A37
:100A000040120572A297B39200E433F5827548262E
:100A1000754900754A40120572A296B39200E433FC
:100A2000F58275482A754900754A40120572A2B3CD
:100A3000B39200E433F58275482E754900754A403B
:100A40001205727D007E007F0020B12F30B0077448
:100A5000102422FC800574142422FC8C057E007F67
:100A60004090000AC007C006C005120B09D005D08F
:100A700006D00720B10575FF0080F8ED4E6059746F
:100A8000012DFAE43EFB8F048A828B838CF01215D1
:100A900051702B8D028E038F048A828B838CF0120F
:100AA0001551FA74022DF9E43EFB8F0489828B8381
:100AB0008CF0121551F50D8A82120DA4801A740261
:100AC0002DFDE43EFE8D828E838FF0121551FD7F49
:100AD000008D828F83120EA91206731201D9900025
:100AE00005120B0975FF000209EFAE82AF83EE4FCE
:100AF0006016E5A104F5A1E5A104F5A1E5A104F5C1
:100B0000A11EBEFF011F80E622AE82AF83EE4F60C2
:100B1000159003E8C007C006120AEAD006D0071EE7
:070B2000BEFF011F80E72268
:100B2800C007AF82DFFED007227F08C58233D2B468
:100B380092B4000000000000C2B40000DFEF22AF52
:100B480082E50890157193F582C007120B31D00722
:100B5800EF90157193F582120B31E5099015719399
:100B6800F582020B31E582FF23235403FE743F5FB5
:100B7800850AF005F0800225E0D5F0FBFF850AF034
:100B880005F0743F800225E0D5F0FB8F04C39CFD7F
:100B9800EE600ABE0102800FBE022080148F087525
:100BA80009008D82020B478D088F09758200020BA0
:0C0BB800477508008D098F82020B472250
:10157100000000000000000000000000000000006A
:101581000000000000000000000000000101010156
:101591000101010101010101010202020202020233
:1015A1000203030303030303040404040405050500
:1015B1000506060606070707070808080909090AB4
:1015C1000A0A0B0B0B0C0C0D0D0D0E0E0F0F10104C
:1015D10011111212131314141515161617181819C0
:1015E100191A1B1B1C1D1D1E1F2020212223232411
:1015F1002526272728292A2B2C2D2E2F3031323230
:101601003334363738393A3B3C3D3E3F4042434420
:10161100454648494A4B4D4E4F51525355565759DD
:101621005A5C5D5F606263656668696B6D6E70725E
:10163100737577787A7C7E7F81838587898A8C8EA2
:1016410090929496989A9C9EA0A2A4A7A9ABADAFA4
:10165100B1B4B6B8BABDBFC1C4C6C8CBCDD0D2D55E
:10166100D7DADCDFE1E4E7E9ECEFF1F4F7F9FCFFCD
:1000CB009001217401F0900122E4F0900123F09053
:1000DB000124F0900125F0900126F0900127F0907B
:1000EB000128F0900129F090012A7402F090012B65
:1000FB00E4F090012CF090012DF090012EF0900186
:0E010B002FF0900130F0900131F0900132F0B1
:100BC400AF82BF880040088F06EE2478FE803EBFC7
:100BD40080004022900122E0FD8F04EC2480F5F097
:100BE40005F07401800225E0D5F0FB420590012256
:100BF400EDF07E008017EF90167193FE700122EEE7
:100C040030E70A900122E04402F053067F7F03EFAD
:100C14002421F582E43401F583E0B50601220FBFF7
:100C2400090040EB7F03EF2421FCE43401FD8C82B6
:100C34008D83E0700F8C828D83EEF075190990011D
:100C44002102131B0FBF090040DC22AF82BF8800C2
:100C540040088F06EE2478FE803FBF80004023903A
:100C64000122E0FD8F04EC2480F5F005F07401808E
:100C74000225E0D5F0FBF45205900122EDF07E0050
:100C84008017EF90167193FE700122EE30E70A9000
:100C94000122E054FDF053067F7F03EF2421FCE49E
:100CA4003401FD8C828D83E0B506068C828D83E44D
:100CB400F00FBF090040E475190990012102131BCC
:100CC400AF82C007120BC4D0078F82020C4F7F087B
:100CD400EF2421F582E43401F583E4F0DFF27519A1
:100CE4000990012102131BAD82AE83AFF08D828E79
:100CF400838FF0121551FC60188C820DBD00010E1B
:100D0400C007C006C005120CC4D005D006D00780A9
:100D1400DC22AF82E50B700122900122E0420790B1
:100D24000122EFF07F03EF2421F582E43401F583FF
:100D3400E0B50B01220FBF090040EB7F03EF242134
:100D4400FDE43401FE8D828E83E070108D828E83EB
:100D5400E50BF075190990012102131B0FBF09005F
:100D640040DB22AF82E50C700122900122E0FE7488
:100D7400FF6F5206900122EEF07F03EF2421FDE481
:100D84003401FE8D828E83E0B50C068D828E83E461
:100D9400F00FBF090040E475190990012102131BEB
:100DA400AF82850D0BC007120D16D007850D0C8F71
:100DB40082020D67AE82AF837D018F037C00ED2438
:100DC4002AF582E43401F583E07A00B5061CEAB51D
:100DD40007188D020AEA242AF582E43401F583E037
:100DE4007A00B50305EAB50401228D0274022AFDD6
:100DF400BD090040C97D01ED242AFBE43401FC8BCC
:100E0400828C83E070328D02EA04242AF8E43401EF
:100E1400F988828983E070208E018B828C83E9F0CB
:100E24000AEA242AF582E43401F5838F04ECF07590
:100E3400190990012A02131B8D0474022CFDBD09AB
:100E44000040B42285820E85830F7D01AB0F7C00A8
:100E5400ED242AF9E43401FA89828A83E07F00B51B
:100E64000E2FEFB50F2B8D07EF04242AF582E434FF
:100E740001F583E0F87E00B50317EEB5041389820B
:100E84008A83E4F00FEF242AF582E43401F583E445
:100E9400F08D0774022FFDBD090040B47519099047
:100EA400012A02131BAE82AF83C007C006120DB81D
:100EB400D006D0078E828F83020E487F08EF242A43
:100EC400F582E43401F583E4F0DFF2751909900149
:0B0ED4002A02131B900053E0F582225D
:1016710000000000000000002A2B280000000000EC
:101681000000000000000000000000000000000059
:101691002C9EB4A0A1A2A434A6A7A5AE362D37389E
:1016A100271E1F20212223242526B333B62EB7B8A7
:1016B1009F8485868788898A8B8C8D8E8F90919265
:1016C100939495969798999A9B9C9D2F3130A3ADB1
:1016D100350405060708090A0B0C0D0E0F1011122F
:1016E100131415161718191A1B1C1DAFB1B0B5002C
:1016F10012011001000000408911908800020102CE
:1017010003010902490002010080190904000002D5
:1017110003010104092110012101225F0007058154
:101721000310000A0705010310000A090401000261
:1017310003000000092110012101221D00070502FB
:101741000320000A0705820320000A05010906A1FA
:10175100018501050719E029E7150025019508759F
:10176100018102950175088103950675081500260A
:10177100FF000507190029E781000508190129055E
:1017810015002501950575019102950175039103D8
:10179100C0050C0901A1018502150026FF031900EE
:1017A1002AFF03950475108100C05F0660FF09617F
:1017B100A1010962150026FF009520750881020923
:1017C1006391020964B102C01D040309041A034FA5
:1017D10000700065006E004D006100630072006FD3
:1017E10000500061006400260343004800350035C5
:1017F100003200200052004700420020004D0061ED
:1018010000630072006F0050006100640014034324
:101811000048003500350032007800480049004496
:10182100001A034800490044002D004B006500796F
:0B1831000062006F00610072006400A4
:100EDF00C007AF8205A290000015A2851482851568
:100EEF0083E493A3A5DFFAD00722AFDBBF0802800C
:100EFF00030211F4900007E0FE7F00900006E0FD72
:100F0F007C004FF510EC4EF511900001E0F51290BA
:100F1F000000E0FE546060081213B3AF820211F6B6
:100F2F00E51224F450030211F0E512240B83F5822D
:100F3F00E512241083F583E473D295F018F0656001
:100F4F00F0718CF6F61110111111100F1110101104
:100F5F0011900003E0FEBE01028012BE0202801853
:100F6F00BE0302801EBE2202806B0210127514F1A6
:100F7F007515167F120210147514037515177F4916
:100F8F00021014900002E0FE24FB4038EE2E900F6A
:100F9F00A1738008800E8014801A80207514CA7582
:100FAF00151780267514CE751517801E7514E875E4
:100FBF001517801675140E751518800E7514227579
:100FCF001518800675140E751518851482851583EE
:100FDF00E493FF8030900004E0700E75144C75158B
:100FEF001790171CE493FF801C900004E0FEBE01D5
:100FFF000E7514AC75151790173CE493FF80067FA0
:10100F00FF80027FFFBFFF030211F68F057E00C333
:10101F00ED9510EE951150048D108E11AD10AE118F
:10102F00C3ED9440EE940040047D408002AD108DDE
:10103F00078F82120EDF8F057E00AB10AC11EBC352
:10104F009DFBEC9EFC8B108C11EF2514F514E435F1
:10105F0015F5150211F6900002E0F510751100025A
:10106F0011F6900000E513F0AD10AE11C3ED940131
:10107F00EE940050030211F67F010211F690000268
:10108F00E0F5130211F6900000E0541F702D900050
:10109F0003E0FD7E00900002E07B004206EB42057C
:1010AF00BE0113BD001090170AE49330E50302113F
:1010BF00F67FFF0211F67FFF0211F6900000E0FEAF
:1010CF0053061FBE023E900004E0FEBE01028029BF
:1010DF00BE02028013BE81028014BE822274BC55F0
:1010EF00D44402F5D40211F653D4730211F674BC32
:1010FF0055D24402F5D20211F653D2730211F67F84
:10110F00FF0211F67FFF0211F6900000E0541F70EE
:10111F002D900003E0FD7E00900002E07B00420670
:10112F00EB4205BE0113BD001090170AE49330E5A2
:10113F00030211F67FFF0211F67FFF0211F69000F6
:10114F0000E0FE53061FBE0276900003E0FD7E0016
:10115F00900002E07B004206EB4205EE4D705C9082
:10116F000005E0FD7E00900004E07B004206EB42AC
:10117F0005BE0105BD00028034BE0205BD00028020
:10118F0018BE8105BD0002801ABE822BBD002874D7
:10119F00BF55D44403F5D4804E747F55D4440CF519
:1011AF00D4804474BF55D24403F5D2803A747F552E
:1011BF00D2440CF5D280307FFF802C7FFF80287FB8
:1011CF00FF8024900000E4F0900001F0AD10AE110C
:1011DF00C3ED9402EE940040047F02800AAF1080AA
:1011EF00067FFF80027FFFBFFF077512FF75DCCF01
:1011FF0022EF24BF40068FDD75DCC02275DD007540
:10120F00DCC0227405B5120280407406B51249AED7
:10121F0010AF11C3EE9440EF940040047E40800263
:10122F00AE108E82120EDF8E057F00AB10AC11EB6D
:10123F00C39DFBEC9FFC8B108C11EE2514F514E471
:10124F003515F5158EDD63DC4022E5E35480FFE5AF
:10125F00104FF5E375DC022275DD0075DC022212FA
:10126F00142E75DD0043DC022230D95BE5D9540F13
:10127F00FFE5D95430FE600FBE10028048BE200239
:10128F008021BE30408038EF600ABF0102800ABF64
:10129F000233800A12126E802C1214DA8027121475
:1012AF00EE8022EF600ABF0102800ABF0217800A98
:1012BF0012121280101214CC800B12150B8006EF35
:1012CF007003120EF9C2D930D80F75DC021214C197
:1012DF0075E300C2DAC2D9C2D810DA0122E5DA20EA
:1012EF00E20375D8FF2275E22975D181E4F5ECF59B
:1012FF00ED75DC0212134C43E10743D81FD2EAD23B
:05130F00AF75DD0022B6
:10011900751800C201C202900133E4F0900134F075
:04012900900135F01C
:101314001212F575D30022AE82AF832001FD7D0049
:10132400C3ED95195019ED2480FBE43400FCED2E37
:10133400F582E43FF583E08B828C83F00D80E185B8
:1013440019D3D20153D2FC2275EE4075EF0075E437
:101354005275E50075D21275D41275EAC075EB0C9E
:1013640022AE82AF832002FDE51924DF50037519F4
:10137400207D00C3ED9519502DED2452FBE434007B
:10138400FCED2EF9E43FFA89828A83E08B828C8318
:10139400F0ED2436FBE43401FC89828A83E08B82FD
:1013A4008C83F00D80CD8519D5D20253D4FC2275DF
:1013B4001800900001E0FFBF090B900004E004F561
:1013C4001875820022900001E0FFBF0A0280089095
:1013D4000001E0FFBF0B0475820022900001E0FFD2
:1013E400BF0128900004E0FFBF01207F008F057E2D
:1013F40000EF2436F582E43401F583E08D828E8398
:10140400F00FBF200040E675822022900001E0FF2B
:10141400BF02028008900001E0FFBF0309900000B2
:10142400E4F0758201227582FF227402B51831E559
:10143400DB24DF402B7F00C3EF95DB5016EF2452F3
:10144400FDE43400FE8F82758300E08D828E83F08C
:101454000F80E4900133E5DBF0900135E4F0801176
:101464007401B5180CE5DB6008900000E0900134CD
:10147400F075180022900133E0F58222900134E0E7
:10148400F58222900133E4F0900135F053D4F32235
:10149400900133E07003F58222900135E02452F587
:1014A40082E43400F583E0FF900135E004F090011C
:1014B40033E014F0E0700353D4F38F822275D21218
:1014C40075D412C201C2022275D30074FC55D244F1
:1014D40002F5D2C2012230DE10900040E0FFBF01CD
:1014E40008900041E0900134F02230DE199001337D
:1014F400E5DBF0900135E4F0900133E0600874F32B
:1015040055D44408F5D42275D50074FC55D444024E
:05151400F5D4C2022223
:0600C500E478FFF6D8FD0F
:10008E00C000A88118C0D0B6001B18B64800401595
:10009E00B66F005010C0E0E65407B406005004E6F8
:0A00AE0054F8F6D0E0D0D0D00032B4
:1015190020F71130F6138883A88220F509F6A883ED
:101529007583002280FEF280F5F022E5828519F0AC
:10153900A4C582C0F0851AF0A4D0F025F0C5838532
:0815490019F0A42583F58322AB
:0D00B80075814A12156DE582600302008912
:1015510020F71430F6148883A88220F507E6A883C3
:1015610075830022E280F7E49322E0227582002253
:00000001FF
