:040000000200B83210
:01000B0032C2
:0100130032BA
:01001B0032B2
:0100230032AA
:01002B0032A2
:01003300329A
:01003B003292
:0300430002014770
:100048000000E2FBEAF2802C0000E0FBEAF08024EA
:10005800E6B50202EBF62200E2B50202EBF222005C
:10006800E0B50202EBF02230F6E0A88220F5D3EAF0
:10007800C6F582228B822230F6E6A88220F5D98046
:01008800CFA8
:030144000200892D
:0500890012148180FE4D
:10014700C021C0E0C0F0C082C083C007C006C005A0
:10015700C004C003C002C001C000C0D075D00012E7
:100167002FD6D0D0D000D001D002D003D004D005F4
:10017700D006D007D083D082D0F0D0E0D0210200C3
:100187008E7E007F008E05ED75F003A4FDC2AF7C67
:10019700008C03EB75F055A48D022AFBBB80005041
:1001A70005EB2BFA800774FFC39B25E0FA8A03EB64
:1001B70075F0CDA4ABF08B01743229F5527553FF5E
:1001C7008A82C007C006C005C0041227E7D004D042
:1001D70005D006D0070CBC030040B6D2AF90000C88
:1001E700C007C0061215B9D006D00775FF000EBEAE
:1001F70000010F8E048F05C3EC94F0ED9400408549
:1002070022AF827585C0EF2FF58475868E858E8225
:1002170022AF82BF800040012275A15575A1AA4374
:10022700B10475A1007585C0EF2FF584900120E01A
:10023700F58EE58630E60375869A75A15575A1AAF0
:1002470053B1FB75A100227F00EF75F012A42421A2
:10025700FD740135F0FE7C00EC75F003A42DFAE483
:100267003EFB8A828B83E4F08A828B83A3F08A82A7
:100277008B83A3A3F00CBC060040DD0FBF05004035
:10028700C89001237468F090012604F090012904B6
:10029700F090012B7401F090012C74E2F090012E84
:1002A7007401F090012F74E9F09001317401F0901E
:1002B700013274EAF0900135746BF090013804F064
:1002C70090013B04F090013D7401F090013E74CD24
:1002D700F09001407401F090014174B5F090014332
:1002E7007401F090014474B6F07F027563018F8248
:1002F700C0071215E1D0070FBF050040EE7F00EFE2
:1003070075F003A4247BFD740135F0FE8D828E8386
:10031700E4F08D828E83A3F08D828E83A3A3F00FEA
:10032700BF060040DA7522007523507524FF752536
:10033700007526FF7527507528FF752914752A0043
:100347007F00EF242BF876A00FBF030040F4752E33
:100357000775170075300075310922AF827E04C317
:10036700EE950850158E82C007C006120208AD82AE
:10037700D006D007ED62070E80E58F8222758202D4
:1003870012020885820B7401B50B0474018001E425
:10039700FE60047D2080387402B50B047D22802F17
:1003A7007403B50B047D2380267404B50B047D36D6
:1003B700801D7405B50B047D6C80147406B50B04A1
:1003C7007D7E800B7407B50B047D8080027D807570
:1003D7008200C006C005120208AC82D005D006BC58
:1003E7004D43758201C006C005120208AC82D005D4
:1003F700D006BC503074FF250B502AE50B24F7407C
:1004070024758203C006C005120208AC82D0058D90
:1004170008850B82C004120362AD82D004D006ECBB
:10042700B50502800302024E750900C006E509758D
:10043700F003A42421FBE43401FC8B028C07E509BB
:1004470075F003A4FD2404F582C007C005C004C0ED
:1004570003C002120208AE82D002D003D004D00536
:10046700D0078A828F83EEF074012BFEE43CFF7481
:10047700052DF582C007C006C005C004C0031202DF
:1004870008AA82D003D004D005D006D0078E828F69
:1004970083EAF074022BFEE43CFF74062DF582C05C
:1004A70007C006C004C003120208AD82D003D004FF
:1004B700D006D0078E828F83EDF08B828C83C006A7
:1004C70012165BD006E50975F003A4247BFE7401C0
:1004D70035F0FF8E828F83E4F08E828F83A3F08EB8
:1004E700828F83A3A3F00509C3E5099406D00650BC
:1004F7000302043274FA250B40030207077509004B
:10050700E50975F003A4247BFC740135F0FD8C0C20
:100517008D0DE50975F003A4FF2416F582C007C009
:1005270005C004120208AB82D004D005D007850CA1
:1005370082850D83EBF074012CF50CE43DF50D7409
:10054700172FF582C007C005C004120208AB82D07E
:1005570004D005D007850C82850D83EBF074022C3F
:10056700FAE43DFB74182FF582C005C004C003C030
:1005770002120208AF82D002D003D004D0058A82CB
:100587008B83EFF08C828D8312165B050974FA2535
:10059700094003020507750A01E50A75F012A4244C
:1005A70021FC740135F0FD750900E50975F003A418
:1005B7002CFAE43DFFC004C0058A0C8F0DE50A75CF
:1005C700F012A4FC2416FDE50975F003A4F50E2D21
:1005D700F582C007C004C002120208AD82D002D063
:1005E70004D007850C82850D83EDF074012AF50C84
:1005F700E43FF50D74172C250EF582C007C004C023
:1006070002120208AD82D002D004D007850C828581
:100617000D83EDF074022AFBE43FFD74182C250EC0
:10062700F582C007C005C003C002120208AC82D021
:1006370002D003D005D0078B828D83ECF08A828F9E
:1006470083C005C00412165BD004D0050509C3E5B5
:10065700099406D005D00450030205B1050A74FBBE
:10066700250A40030205A07F00EF75F003A42422AA
:10067700FBF98F02EA75F003A4FA2470F582C0072C
:10068700C003C002C001120208E582D001D002D027
:1006970003F7EB04F974712AF582C003C002C001A5
:1006A700120208E582D001D002D003F774022BF9B9
:1006B70074722AF582C001120208E582D001D007C0
:1006C700F70FBF030040A2758279120208E582F591
:1006D7002B75827A120208E582F52C75827B12024D
:1006E70008E582F52D75827C120208E5825407F52C
:1006F7002E75827D120208E582540FF517020A76DD
:1007070074FB250B400302085F750A01E50A75F0C3
:1007170012A42421F50C740135F0F50D750900E5D7
:100727000975F003A4250CF50FE4350DF510850FB9
:1007370011851012E50A75F012A4FB2404FFE509E0
:1007470075F003A4F50E2FF582C003120208AF82DD
:10075700D003851182851283EFF07401250FF511FF
:10076700E43510F51274052B250EF582C00312022D
:1007770008AF82D003851182851283EFF0740225BA
:100787000FFAE43510FF74062B250EF582C007C05B
:1007970002120208AB82D002D0078A828F83EBF065
:1007A700850F8285108312165B050974FA250940A7
:1007B70003020726050A74FB250A40030207137F75
:1007C70000EF75F003A42422FBF98F02EA75F0030A
:1007D700A4FA245EF582C007C003C002C00112025A
:1007E70008E582D001D002D003F7EB04F9745F2A41
:1007F700F582C003C002C001120208E582D001D011
:1008070002D003F774022BF974602AF582C0011233
:100817000208E582D001D007F70FBF030040A27599
:100827008267120208E582F52B758268120208E5D5
:1008370082F52C758269120208E582F52D75826AA8
:10084700120208E5825407F52E75826B120208E53D
:1008570082540FF517020A7674FC250B4003020930
:100867009F750900E50975F003A42433F511E434F5
:1008770001F51285110F851210E50975F003A4FA29
:100887002416F582C002120208AF82D002850F82B9
:10089700851083EFF074012511F50FE43512F5107B
:1008A70074172AF582C002120208AF82D002850FA0
:1008B70082851083EFF074022511FBE43512FF7473
:1008C700182AF582C007C003120208AA82D003D0F3
:1008D700078B828F83EAF085118285128312165B5C
:1008E700050974FA2509400302086B7F0275630145
:1008F7008F82C0071215E1D0070FBF050040EE7FBA
:1009070000EF75F003A42422FBF98F02EA75F003C8
:10091700A4FA2428F582C007C003C002C00112024E
:1009270008E582D001D002D003F7EB04F974292A35
:10093700F582C003C002C001120208E582D001D0CF
:1009470002D003F774022BF9742A2AF582C0011228
:100957000208E582D001D007F70FBF030040A27558
:100967008231120208E582F52B758232120208E500
:1009770082F52C758233120208E582F52D758234D3
:10098700120208E5825407F52E758235120208E532
:1009970082540FF517020A76756300758201C00647
:1009A7001215E1D0067F027563018F82C007C0066A
:1009B7001215E1D006D0070FBF050040EA7F00EF10
:1009C70075F003A42422FBF98F02EA75F003A4FA59
:1009D7002416F582C007C006C003C002C001120278
:1009E70008E582D001D002D003F7EB04F974172A87
:1009F700F582C003C002C001120208E582D001D00F
:100A070002D003F774022BF974182AF582C0011279
:100A17000208E582D001D006D007F70FBF030040D8
:100A27009E75821FC006120208E582D006F52BEEDE
:100A37006004AF2B800C758220C006120208AF82BB
:100A4700D0068F2CEE6004AF2B800875822112022E
:100A570008AF828F2D74FD250B500D75822212026F
:100A670008AF8253070780027F078F2E7517007420
:100A7700F8250B501E75827E120208E5825401F597
:100A87003075827F120208E582F53124DE50367513
:100A970031212274F9250B502675827E120208E552
:100AA700825401F53075827F120208E58275F00ADB
:100AB700A4FFAEF08F828E83121BA7858231227529
:100AC700300075310922751508900120744DF075B5
:100AD70082001202189001207450F07582011202F0
:100AE700189001207408F07582021202187E008E99
:100AF70005ED75F003A4FD2404FCEE75F003A424B2
:100B070021FAE43401FB8A828B83E0900120F08C88
:100B170082C006C005C003C002120218D002D0036B
:100B2700D00574052DFF8A828B83A3E0900120F006
:100B37008F82C005C003C002120218D002D003D0B2
:100B47000574062DFF8A828B83A3A3E0900120F012
:100B57008F82C005120218D005D00674162DFFEE3D
:100B670075F003A4247BFB740135F0FC8B828C8326
:100B7700E0900120F08F82C006C005C004C00312B8
:100B87000218D003D004D00574172DFF8B828C83F5
:100B9700A3E0900120F08F82C005C004C0031202B9
:100BA70018D003D004D00574182DFD8B828C83A335
:100BB700A3E0900120F08D82120218D0060EBE0627
:100BC700005003020AF6751401E51475F012A42407
:100BD70021FD740135F0FE751300E51475F012A4BC
:100BE700FB2416FAE51375F003A4FF2AF516E5139F
:100BF70075F003A42DFAE43EFC8A828C83C005C0FD
:100C070006E0FE900120F0851682C007C006C005E9
:100C1700C004C003C002120218D002D003D004D00F
:100C270005D006D00774172B2FFE8A828C83A3E08A
:100C3700FD900120F08E82C007C006C005C004C029
:100C470003C002120218D002D003D004D005D00688
:100C5700D00774182B2FFF8A828C83A3A3E0FE9002
:100C67000120F08F82C006C005120218D005D006F9
:100C77000513C3E5139406D006D0055003020BE114
:100C8700051474FB25144003020BD07F008F04EC7E
:100C970075F003A4FC2470FBEF75F003A42422FA7B
:100CA700F9900120E7F08B82C007C004C00212024E
:100CB70018D002D00474712CFBEA04F9900120E7E4
:100CC700F08B82C004C002120218D002D0047472E2
:100CD7002CFC74022AF9900120E7F08C821202188A
:100CE700D0070FBF030040A5900120E52BF07582C8
:100CF70079120218900120E52CF075827A120218F9
:100D0700900120E52DF075827B120218E52E9001E7
:100D1700205407F075827C120218E51790012054C1
:100D27000FF075827D120218E5309001205401F012
:100D370075827E120218E53124DE50047F2180047B
:100D4700AC318C07900120EFF075827F1202187F7B
:100D5700048F82C007120208AC82D007EC62150F1D
:100D6700BF800040EC900120E515F0758203020278
:100D770018AF827E00EE2400F582E43401F583E4A7
:100D8700F00EBE200040EE430780900100EFF09088
:100D97000101E563F0228582657401B5630474017E
:100DA7008001E4FEE56575F012A42421FC74013589
:100DB700F0FD756600E5657015EE6012E56675F085
:100DC70003A4247BF567740135F0F568800DE566AB
:100DD70075F003A42CF567E43DF568E56675F00347
:100DE700A4F8AF642FF93395E0FAE92400F9EA345F
:100DF70001FA856782856883E089828A83F0EF0438
:100E070028FB3395E0FAEB2400FBEA3401FA856707
:100E170082856883A3E08B828A83F074022F28F887
:100E27003395E0FFE82400F8EF3401FF85678285FA
:100E37006883A3A3E088828F83F0056674FA25662A
:100E47004003020DBC228582657401B563047401F9
:100E57008001E4FEE56575F012A42421FC740135D8
:100E6700F0FD756600E5657015EE6012E56675F0D4
:100E770003A4247BF567740135F0F568800DE566FA
:100E870075F003A42CF567E43DF568C006A867AFC5
:100E970068E56675F003A4FAA96429FB3395E0FEBB
:100EA700EB2400F582EE3401F583E088828F83F02E
:100EB70074012567F569E43568F56AE9042AFF33A3
:100EC70095E0FEEF2400F582EE3401F583E0FFC3E1
:100ED70074029FD00650047F008014E9042AFA3375
:100EE70095E0FBEA2400F582EB3401F583E0FF850A
:100EF7006982856A83EFF074022567FBE43568FF32
:100F07000909E56675F003A429F93395E0FAE924A0
:100F170000F582EA3401F583E08B828F83F0056662
:100F270074FA25664003020E6C221231D7E582FF60
:100F37007001227E00C3EE9F502BBE20005026EE8C
:100F47002400FCE43401FDC007C006C005C004123C
:100F570031F2AB82D004D005D006D0078C828D83C6
:100F6700EBF00E80D0C0071231E5D007900100E00A
:100F7700FEBE010280028079BF0A00500F7563022E
:100F87008E82C006120D78D00602145F7D008D0494
:100F9700EC75F003A4FC042400F582E43401F58326
:100FA700E0F56374022C2400F582E43401F583E054
:100FB700F5640C0C0CEC2400F582E43401F583E0B5
:100FC700F5658D82C006C00512275AD005D0060DDB
:100FD700BD030040B9754A01758201C00612271387
:100FE700D0067563008E82C006120D78D0060214F3
:100FF7005FBE0569BF0200500F7563028E82C0068F
:10100700120D78D00602145FBF040040277D008DC3
:10101700040CEC2400F582E43401F583E0F5638DDC
:1010270082C006C005122779D005D0060DBD030082
:1010370040DD800D900101E0F582C006122788D0BF
:1010470006754A01758201C006122713D00675631B
:10105700008E82C006120D78D00602145FBE0D60A6
:10106700BF0500500F7563028E82C006120D78D03F
:101077000602145F900101E0FDBD0300400F756398
:10108700018E82C006120D78D00602145F9001020D
:10109700E0F563900103E0F564900104E0F5658DE8
:1010A70082C00612275A754A01758201122713D08A
:1010B700067563008E82C006120D78D00602145F93
:1010C700BE0E54BF0300500F7563028E82C0061216
:1010D7000D78D00602145F900101E0FDBD030040CA
:1010E7000F7563018E82C006120D78D00602145F59
:1010F700900102E0F5638D82C006122779754A01D7
:10110700758201122713D0067563008E82C00612FE
:101117000D78D00602145FBE0F3ABF0200500F755C
:1011270063028E82C006120D78D00602145F90010A
:1011370001E0FD74075DF54C754B01758205C0062E
:10114700122727D0067563008E82C006120D78D04D
:101157000602145FBE03028002807B7D007C02BF13
:1011670015004007900102E0FD7C038C0374122BED
:10117700FB8F02C3EA9B500F7563028E82C0061273
:101187000D78D00602145F900101E0FBBB0500401B
:101197000F7563018E82C006120D78D00602145FA8
:1011A700BD02005006ED6012EB600F7563018E8281
:1011B700C006120D78D00602145F8D638C648B8293
:1011C700C006120E4DD0067563008E82C006120D42
:1011D70078D00602145FBE0A028003021265BF03BD
:1011E700004007900102E0FD80027D00BF02005031
:1011F7000F7563028E82C006120D78D00602145F47
:10120700900101E0FCBC0500400F7563018E82C0B0
:1012170006120D78D00602145FBD02005006ED607D
:1012270012EC600F7563018E82C006120D78D0062E
:1012370002145F7563008E82C006C005C004120DDC
:1012470078D004D005900102ECF0900103EDF08D09
:10125700637564048C82120D9DD00602145FBE0B69
:101267002DBF0200500F7563028E82C006120D78E3
:10127700D00602145F900101E0FD740F5DF517754C
:1012870063008E82C006120D78D00602145FBE047A
:1012970016C006120ACDD0067563008E82C00612EC
:1012A7000D78D00602145FBE02727563008E82C08D
:1012B70006120D789001027406F0E517540F90019D
:1012C70003F0756300756404758200120D9DD006E6
:1012D7007D008D04EC75F003A4FC24162400F58230
:1012E700E43401F583ED75F003A42422FBF9E7F05C
:1012F70074172C2400F582E43401F583EB04F9E735
:10130700F074182C2400F582E43401F58374022B61
:10131700F9E7F00DBD030040B902145FBE08028073
:10132700030213C27563008E82C006120D78D006C1
:101337007D008D040C0CEC2400F582E43401F58368
:10134700ED242BF9E7F08D04EC75F003A4FC2405DC
:101357002400F582E43401F583ED75F003A424221B
:10136700FBF9E7F074062C2400F582E43401F583D9
:10137700EB04F9E7F074072C2400F582E43401F557
:101387008374022BF9E7F00DBD030040A5E52E5449
:101397000790010EF0E530540190010FF0E531247C
:1013A700DE50047D218004AC318C05900110EDF0F6
:1013B700E52F5407900111F002145FBE0935BF02F3
:1013C70000500F7563028E82C006120D78D0060298
:1013D700145F900101E0F54C754B01758203C0065F
:1013E700122727D0067563008E82C006120D78D0AB
:1013F700068065BE0C3ABF0300500E7563028E82ED
:10140700C006120D78D006804F900101E0F54E908E
:101417000102E0F54F754D01758204C00612274B96
:10142700D0067563008E82C006120D78D00680281C
:10143700BE07028003BE06147563008E82C00612C3
:101447000D78D0069001027406F0800C7563018E4A
:1014570082C006120D78D006756320900100C00681
:101467001230C3D006BE06119000321215B975E2CC
:1014770000C2AF75890012380022C2B45396EF43F9
:10148700971020911F90011912159A7F097582FFF5
:10149700C0071227B1D007DFF475E200C2AF758924
:1014A7000012380075A15575A1AA53B9F843B905BB
:1014B70075A1009000051215B975FF0075A1557546
:1014C700A1AA43B10175A10012018812307212025C
:1014D7004E120384121B32122693754A027582003C
:1014E700122713A291B39200E433F51C751D007502
:1014F7008200121A69A297B39200E433F51C751D96
:1015070001758201121A69A296B39200E433F51CA1
:10151700751D02758202121A69A2B3B39200E433F1
:10152700F51C751DFF758203121A6920B153754AA0
:10153700007582001227131217B7AF8230B0047EEE
:101547000480027E0590000AC007C0061215B9D0B4
:1015570006D00720B10575FF0080F8EF70078E826F
:10156700121761801CEF75F012A42421FD74013558
:10157700F0FFEE75F003A42DF582E43FF583121614
:10158700EE120F311227999000051215B975FF0059
:101597000214EAAE82AF83EE4F6016E5A104F5A10F
:1015A700E5A104F5A1E5A104F5A11EBEFF011F8079
:1015B700E622AE82AF83EE4F60159003E8C007C006
:1015C7000612159AD006D0071EBEFF011F80E7221C
:1015D800C007AF82DFFED00722E58275F012A4248F
:1015E80021FE740135F0FFE56375F012A42421F59E
:1015F80065740135F0F566756400E56475F003A45B
:10160800FA2EF8E43FF9C006C00788038907EA25DF
:1016180065FAE43566FE8A828E83E08B828F83F0DA
:10162800740128FDE439FF8A828E83A3E08D828FBE
:1016380083F0740228F8E439F98A828E83A3A3E040
:1016480088828983F00564C3E5649406D007D006D0
:1016580040A822AE82AF830EBE00010F8E828F8318
:10166800E024FD50068E828F83E4F022AE82AF83A1
:10167800A3E0FD70148E828F83E0FC8E828F83A39B
:10168800A3E0F5558C820229ACBD01118E828F83AF
:10169800A3A3E0FD7C008D828C83022A4E8E828F6C
:1016A80083A3A3E0F582022B6EAE82AF83A3E0FD95
:1016B80070148E828F83E0FC8E828F83A3A3E0F563
:1016C800568C820229FDBD01118E828F83A3A3E06F
:1016D800FD7C008D828C83022ADE8E828F83A3A3F9
:1016E800E0F582022BCAAE82AF83A3E0FD70148EB0
:1016F800828F83E0FC8E828F83A3A3E0F5578C82D0
:10170800022A3ABD01118E828F83A3A3E0FD7C00DB
:101718008D828C83022B3F8E828F83A3A3E0F58278
:10172800022C0EAE82AF8374022EFCE43FFD8C8245
:101738008D83E0701B8E048F058C828D83E0701082
:101748000EBE00010F8E828F83E07004C2018002FA
:10175800D201A201E433F58222E582FF75F003A4E9
:101768002421F582E43401F583C0071216EED00770
:10177800EF75F003A4FEAFF0247BF582EF3401F59A
:1017880083C007C00612172BE582D006D007601E5B
:10179800900028C007C0061215B9D006D00775FFFB
:1017A80000EE247BF582EF3401F5830216EE227FEA
:1017B800007E008EF005F07C017D008006EC2CFC9C
:1017C800ED33FDD5F0F7AA187B00EA5204EB520579
:1017D800EC4D60068F050D8D82220E8E07BE04002B
:1017E80040D175820022900193E0701A900194E034
:1017F8007014900195E0700E900196E07008E5185D
:101808007004C2028002D202A202E433F582228569
:10181800821A74FA251A500122E51A248DFDE4343F
:1018280001FE8D828E83E0FC74FC251A4022851A05
:10183800F005F07A017B008006EA2AFAEB33FBD543
:10184800F0F7A8177900E85202E95203EA4B70044E
:10185800C2038002D203A203E433FBEC6003021943
:101868006BE519600302196BE51A24B5F582E434B7
:1018780001F583E0FA754A00758200C006C005C00C
:1018880003C002122713D002754B008A4C758202DE
:10189800122727D003D005D006EB601DE51A24A532
:1018A800F582E43401F583E4F0E51A24AFF582E427
:1018B8003401F583E4F0021963E51A24A9F9E43444
:1018C80001FAC006C005C002C0011217B7A882D02D
:1018D80001D002D005D00689828A83E8F0E87045F5
:1018E800E51A75F003A4247BF582740135F0F583BD
:1018F800C006C005C002C00112172BE582D001D076
:1019080002D005D006601E851A82C006C0051217CF
:1019180061D005D006E51A24AFF582E43401F583D9
:101928007401F0803689828A83E075F012A424213C
:10193800F9740135F0FAE51A75F003A429F582E483
:101948003AF583C006C005121674D005D006E51A0C
:1019580024AFF582E43401F583E4F08D828E83743C
:1019680001F022BC0103EC8001E4FA60487402B57E
:101978001943EB603FE51A24A5F8E43401F988829D
:101988008983E0F51BC394FF5008E51B048882890E
:1019980083F088828983E0F8B828004017851AF018
:1019A80005F07401800225E0D5F0FB42188D828E87
:1019B800837402F022EA7006BC02028001227401DC
:1019C800B51902800122EB6045BC0213851AF005A7
:1019D800F07401800225E0D5F0FBF452188020E570
:1019E8001A24A5F582E43401F583E0FFBF04004022
:1019F8000E851A82C006C005121761D005D006E50B
:101A08001A24A5F582E43401F583E4F08040E51A50
:101A180024AFFCE43401FF8C828F83E07030E51A38
:101A280024A9F582E43401F583E075F012A4242199
:101A3800FC740135F0FFE51A75F003A42CF582E477
:101A48003FF583C006C0051216B1D005D006E51AC9
:101A580024AFF582E43401F583E4F08D828E83F0BF
:101A680022AF82BF0600400122EF24B5F582E4349C
:101A780001F583E51DF0EF2499FDE43401FE8D8224
:101A88008E83E0B51C0280148D828E83E51CF0EFF6
:101A9800249FF582E43401F583E4F022EF249FFDCE
:101AA800E43401FE8D828E83E0FCBC0200500D0CF4
:101AB8008D828E83ECF0BC0200500122E51C601C74
:101AC800EF2493FDE43401FE8D828E83E0700DF5E2
:101AD800198F82C007121817D0078040E51C601DB7
:101AE800EF2493FDE43401FE8D828E83E0600E7551
:101AF80019028F82C007121817D007801FE51C70C3
:101B08001BEF2493FDE43401FE8D828E83E0600C8C
:101B18007519018F82C007121817D007EF2493F5A3
:101B280082E43401F583E51CF0227518007F00EF8C
:101B3800248DF582E43401F583E4F0EF2493F582F3
:101B4800E43401F583E4F0EF2499F582E43401F5F7
:101B580083E4F0EF249FF582E43401F583E4F0EFA9
:101B680024A9F582E43401F583E4F0EF24AFF5828B
:101B7800E43401F583E4F0EF24B5F582E43401F5AB
:101B88008374FFF00FBF060040A57F00EF24A5F582
:101B980082E43401F583E4F00FBF040040EE22AE86
:101BA80082AF837D007C00EC75F002A424EDF58201
:101BB800743235F0F583E493FAA3E493FBC3EA9E09
:101BC800EB9F40038D82220C8C05BC220040D87507
:101BD800822122E52C452BFFE52D4FF58222E58257
:101BE800FF75F003A424E2F582740135F0F583EF64
:101BF80075F003A42422F9E7F0EF75F003A424E2BA
:101C0800FD740135F0FE8D828E83A3EF75F003A479
:101C1800242204F9E7F0EF75F003A424E2FD74012F
:101C280035F0FE8D828E83A3A3EF75F003A42422E2
:101C38002402F9E7F0EF24EBF582E43401F583EFB1
:101C4800242BF9E7F0227F008F82C007121BE6D011
:101C5800070FBF030040F122AF82C3E5639F50071F
:101C6800EFC39563FE8005E563C39FFE8E8222E580
:101C780082FF24EBF582E43401F583E0FEEF242BA8
:101C8800F987638E82C007121C60AE82D007EF7599
:101C9800F003A424E2F582740135F0F583E0FDEF4A
:101CA80075F003A42422F987638D82C007C0061249
:101CB8001C60AD82D006D007C3EE9D50028D06EFA2
:101CC80075F003A424E2FC740135F0FD8C828D8349
:101CD800A3E0FDEF75F003A4242204F987638D8245
:101CE800C007C006121C60AD82D006D007C3EE9DA7
:101CF80050028D06EF75F003A424E2FC740135F060
:101D0800FD8C828D83A3A3E0FDEF75F003A424224C
:101D18002402F987638D82C006121C60AF82D00648
:101D2800C3EE9F50028F068E8222E582FF24CAFDF1
:101D3800E43401FE8D828E83E0B5371EEF24D3FB99
:101D4800E43401FC8B828C83E0700EEF24C7F582AB
:101D5800E43401F583E0B53701228D828E83E537BF
:101D6800F0EF24C7F582E43401F583E0FEB5370DC2
:101D7800EF24D3F582E43401F583E4F022EF24D68E
:101D8800FCE43401FD8C828D83EEF0EF24D9F582DA
:101D9800E43401F583E537F08C828D83E0FC8537E8
:101DA800638C82C007121C60AE82D007EF24DFFC70
:101DB800E43401FDEE75F03CA4FEABF08E828B831B
:101DC8007563FF756400C007C005C004123277ABA5
:101DD80082D004D005D0078C828D83EBF0EB70079E
:101DE8008C828D837401F0EF24DCF582E43401F5F4
:101DF80083E4F0EF24D3F582E43401F5837401F031
:101E080022AF827E008EF005F07C017D008006EC1A
:101E18002CFCED33FDD5F0F7AA347B00EA5204EB35
:101E28005205EC4D701EEE24D3FCE43401FD8C8287
:101E38008D83E0700F8F378E82C007C006121D3267
:101E4800D006D0070EBE030040BB22AF82C00712E7
:101E58001BE6D0078FF005F07401800225E0D5F06D
:101E6800FBF45234EF24D0F582E43401F583E0F535
:101E7800378F82021D32AF82E53824EBF582E434D5
:101E880001F583E0FE7D0074012EF563E43DF56401
:101E98007E008F828E831232A0AF838F8222AF8220
:101EA800E53924C7F582E43401F583E0FE7003F5D3
:101EB8008222BEFF038F82227D0074012EF563E427
:101EC8003DF5647E008F828E831232A0AF838F82AD
:101ED80022AF82BF800050048F06800574FFC39F25
:101EE800FE8E0774FFC39E8FF0A4FFE5F0A2E7CF34
:101EF80033CF33CF5401EF75F0F5A4FFAEF0744043
:101F08002FFFE43EA2E7CF33CF33CF540174FFC392
:101F18009FF58222AF8274FFB53A038F8222AD3AD1
:101F28007E0074012DF563E43EF5648F828E831282
:101F380032A0AF838F8222753B00E53B24D3FDE4BA
:101F48003401FE8D828E83E0700302204DE53B2430
:101F5800DCFBE43401FC8B828C83E0FA0A8B828CF4
:101F680083EAF0E53B24DFF582E43401F583E0F908
:101F7800C3EA994023E53B24C7F8E43401FAE53B7A
:101F880024D9F582E43401F583E088828A83F08DD0
:101F9800828E83E4F002204DE53B24D9F582E434B7
:101FA80001F583E0FFE53B24D6F582E43401F583AF
:101FB800E0FEC3EF9E404BE53B24C7F53CE434010B
:101FC800F53D8F3E753F008E027D00E53EC39AFACF
:101FD800E53F9DFD8B828C83E0F5637564008A8202
:101FE8008D83C006C0011232A0D0018963756400D8
:101FF800123277AA82D006EA2E853C82853D83F08C
:102008008043E53B24C7F53EE43401F53F8E00E408
:10201800FDFAE8C39FF8ED9AFD8B828C83E0F563A7
:102028008A6488828D83C006C0011232A0D00189DB
:1020380063756400123277AD82D006EEC39D853E8B
:1020480082853F83F0853BF005F07E017F008006A6
:10205800EE2EFEEF33FFD5F0F7AC347D00EC5206E0
:10206800ED5207EE4F6034E53B24D3FEE43401FF24
:102078008E828F83E07024E53B24C7F582E4340127
:10208800F583E0FFE53B24CDF582E43401F583E0F8
:10209800FEEFB50606853B82121E53053B74FD25EF
:1020A8003B4003021F4222E4F532F533121BDBE505
:1020B8008260067582FF021E09758200021E09E40D
:1020C800F532F533FF8F82C007121C77E582D007FF
:1020D80070308FF005F07D017E008006ED2DFDEE5D
:1020E80033FED5F0F7AB347C00EB5205EC5206ED2D
:1020F8004E60030221BE8F82C007121BE6D0070282
:1021080021BE8FF005F07401800225E0D5F0FB4276
:1021180034EF242BF9E7701AEF24CDF582E434016B
:10212800F583E4F0EF24D0F582E43401F583E4F09C
:102138008045EF24C7F582E43401F583E0FE701B87
:10214800EF24CDF582E43401F583E4F0EF24D0F5F3
:1021580082E43401F58374FFF0801CEF24D0F5820B
:10216800E43401F583EEF0EF24CDF582E43401F593
:102178008375F003EE84F0EF24CDFDE43401FE8D89
:10218800828E83E0F5378F82C007C006C005121D16
:1021980032D005D006D007EF24C7F582E43401F524
:1021A80083E0FC8D828E83E0FDECB505098F82C04B
:1021B80007121E53D0070FBF030050030220CD2281
:1021C800AF82BF030050498FF005F07D017E00808B
:1021D80006ED2DFDEE33FED5F0F7AB2E7C00ED526B
:1021E80003EE5204EB4C6028AB2F7C00ED5203EE5B
:1021F8005204EB4C701AAB18FCEB5205EC5206ED8E
:102208004E700DEF24BBF582E43401F5837410F0B1
:1022180022AF8274075FF52E22AF82530701E54093
:10222800FE24DE50027E21EFB53005EEB5310122E5
:102238008F308E310220AFAF827E005307077D00BA
:102248008DF005F07401800225E0D5F0FBFC5F609D
:102258003BEC552F7036ED24BEF582E43401F5834E
:10226800ED242BF9E7F0EC422FED24BBF582E434A2
:1022780001F583E4F0ED75F002A424C1F582740140
:1022880035F0F583E4F0A3F07E01803FEC5F703B0E
:10229800EC552F603674FF6C522FED24BBF582E4A9
:1022A8003401F583E4F0ED75F002A424C1F58274DD
:1022B8000135F0F583E4F0A3F0ED242BF9ED24BE0D
:1022C800F582E43401F583E0F77E010DBD0300508B
:1022D80003022248EE600675350175360222121B8C
:1022E800DBE5827005F582021E09E52F600BE4F537
:1022F80032F5337582FF021E09E5307069FF8FF0F1
:1023080005F07D017E008006ED2DFDEE33FED5F053
:10231800F7AB347C00EB5205EC5206ED4E7040EF03
:1023280024D3FDE43401FE8D828E83E07031EF24E6
:102338002BF9E7602AEF24C7FDE43401FE8D828E75
:1023480083E0701BEF24CAFDE43401FE8D828E8386
:10235800E0700C7537FF8F82C007121D32D0070F4F
:10236800BF03004099221217EEE582600BE4F532B4
:10237800F5337582FF021E097F008FF005F07D019D
:102388007E008006ED2DFDEE33FED5F0F7AB347CF4
:1023980000EB5205EC5206ED4E701EEF24D3FDE41F
:1023A8003401FE8D828E83E0700FEF24CAFDE43481
:1023B80001FE8D828E83E070060FBF030040BBBF15
:1023C8000300400122E53124DE50067E217F008093
:1023D80004AE317F00EE2EFEEF33FFEE24EDF582E2
:1023E800EF3432F583E493FEA3E493FF8E048F0564
:1023F800EE4F7005F582021E098C638D649000C84B
:102408001232A0AE82AF83C3E53294FFE53394FF66
:1024180050080532E4B532020533C3E5329EE53390
:102428009F4006758200021E09227F00EF24C7FD27
:10243800E43401FE8D828E83E07015EF2441F87636
:1024480000EF2444F87600EF2447F876000225F3DD
:102458008FF005F07D017E008006ED2DFDEE33FE48
:10246800D5F0F7AB187C00ED5203EE5204EB4C604C
:10247800268F397582FFC007121EA61227C7AC82A5
:10248800D007EF2441F8A604EF2444F8A604EF246B
:1024980047F8A6040225F3AB2F7C00EB5205EC525B
:1024A80006ED4E601FEF75F002A424C1F582740199
:1024B80035F0F583E0A3E0F582C007121ED9AE829D
:1024C800D0078028EF24BBF582E43401F583E0FDD2
:1024D80060187410C39DFD3395E0FCED24DDF58292
:1024E800EC3432F583E493FE80027EFFEF2441F959
:1024F800EF75F003A424E2FC740135F0FD8C828DA5
:1025080083E0FB8F388B82C007C006C005C004C0BB
:1025180001121E7ED001D004D005D006D0078F3915
:10252800C007C006C005C004C001121EA61227C7F6
:10253800D001D004D005D0068E3AC006C005C0042C
:10254800C001121F1CE582D001D004D005D006D0EE
:1025580007F7EF2444F98C828D83A3E0FB8F388B37
:1025680082C007C006C005C004C001121E7ED0018B
:10257800D004D005D006D0078F39C007C006C005E3
:10258800C004C001121EA61227C7D001D004D0056E
:10259800D0068E3AC006C005C004C001121F1CE553
:1025A80082D001D004D005D006D007F7EF2447F930
:1025B8008C828D83A3A3E0FD8F388D82C007C0066F
:1025C800C001121E7ED001D006D0078F39C007C0C7
:1025D80006C001121EA61227C7D001D0068E3AC027
:1025E80001121F1CE582D001D007F70FBF0300506E
:1025F80003022434C2AF7F00EF2441F98782EF241D
:1026080044F98750EF2447F98751C0071227D0D0E3
:10261800070FBF030040E1D2AF7F00EF24BBFDE40A
:102628003401FE8D828E83E0FC60071C8D828E83D0
:10263800ECF00FBF030040E37F008FF005F07D0151
:102648007E008006ED2DFDEE33FED5F0F7AB2F7C36
:1026580000EB5205EC5206ED4E6027EF75F002A430
:1026680024C1FD740135F0FE8D828E83E0FBA3E06A
:10267800FC748F2BFB74023CFC8D828E83EBF0EC98
:10268800A3F00FBF030040B2021F3F7F00EF24BB3F
:10269800F582E43401F583E4F0EF24BEF582E434F6
:1026A80001F583E4F0EF75F002A424C1F58274010A
:1026B80035F0F583E4F0A3F0EF24C7F582E43401A4
:1026C800F583E4F0EF24CAF582E43401F583E4F0FD
:1026D800EF24CDF582E43401F583E4F0EF24D0F55E
:1026E80082E43401F583E4F0EF24D3F582E4340185
:1026F800F583E4F00FBF03004093121C4EE4F53459
:10270800F535F536F532F533F52F22E582FF60050C
:10271800BF010B80030220AF75350175360222AF69
:1027280082BF0202800ABF0302800BBF0514800C1F
:10273800854C820221C8854C82022219854C82026E
:10274800223F22AF82BF0409854F40854E82022274
:102758002122AF82BF0300400122EF75F003A424B9
:1027680022FFF9A763EF04F8A66474022FF8A665A0
:1027780022AF82BF0300400122EF242BF8A6632278
:10278800AF827E00EE242BF8A6070EBE030040F4AD
:10279800221222E6E535600EE5366004153680061D
:0927A8007535001220C70224322D
:1032DD00C88C645A647D9BB4C8DAE8F2F8FCFEFF32
:1032ED0000000100030005000A0014001E00280064
:1032FD0032003C00460050005A0064006E00780019
:10330D0082008C009600A000AA00B400BE00C80088
:10331D00D200DC00E600F000FA0004010E011801F5
:04332D0022012C014C
:1027B1007F08C58233D2B492B4000000000000C289
:1027C100B40000DFEF22E58290333193F58222AF2E
:1027D10082855082C0071227B1D0078F821227B19C
:1027E1008551820227B1E58290333193FFE5529002
:1027F100333193F550E55390333193F5518F820284
:1028010027D0E582FF23235403FE743F5F8554F0F4
:1028110005F0800225E0D5F0FBFF8554F005F0744A
:102821003F800225E0D5F0FB8F04C39CFDEE600ADA
:10283100BE0102800FBE022080148F527553008D9D
:10284100820227E78D528F537582000227E7755266
:09285100008D538F820227E7225B
:10333100000000000000000000000000000000008C
:103341000000000000000000000000000101010178
:103351000101010101010101010202020202020255
:103361000203030303030303040404040405050522
:103371000506060606070707070808080909090AD6
:103381000A0A0B0B0B0C0C0D0D0D0E0E0F0F10106E
:1033910011111212131314141515161617181819E2
:1033A100191A1B1B1C1D1D1E1F2020212223232433
:1033B1002526272728292A2B2C2D2E2F3031323252
:1033C1003334363738393A3B3C3D3E3F4042434443
:1033D100454648494A4B4D4E4F5152535556575900
:1033E1005A5C5D5F606263656668696B6D6E707281
:1033F100737577787A7C7E7F81838587898A8C8EC5
:1034010090929496989A9C9EA0A2A4A7A9ABADAFC6
:10341100B1B4B6B8BABDBFC1C4C6C8CBCDD0D2D580
:10342100D7DADCDFE1E4E7E9ECEFF1F4F7F9FCFFEF
:1000CB009001EE7401F09001EFE4F09001F0F090EC
:1000DB0001F1F09001F2F09001F3F09001F4F09047
:1000EB0001F5F09001F6F09001F77402F09001F831
:1000FB00E4F09001F9F09001FAF09001FBF090011F
:10010B00FCF09001FDF09001FEF09001FFF09002E9
:10011B00007403F0900201E4F0900202F0900203ED
:05012B00F0900204F059
:10285A00AF82BF880040088F06EE2478FE803EBF14
:10286A00800040229001EFE0FD8F04EC2480F5F017
:10287A0005F07401800225E0D5F0FB42059001EFD6
:10288A00EDF07E008017EF90343193FE700122EE56
:10289A0030E70A9001EFE04402F053067F7F03EF2E
:1028AA0024EEF582E43401F583E0B50601220FBF78
:1028BA00090040EB7F03EF24EEFCE43401FD8C8237
:1028CA008D83E0700F8C828D83EEF0756309900121
:1028DA00EE0230790FBF090040DC22AF82BF8800C8
:1028EA0040088F06EE2478FE803FBF800040239088
:1028FA0001EFE0FD8F04EC2480F5F005F07401800F
:10290A000225E0D5F0FBF452059001EFEDF07E00D0
:10291A008017EF90343193FE700122EE30E70A906F
:10292A0001EFE054FDF053067F7F03EF24EEFCE451
:10293A003401FD8C828D83E0B506068C828D83E49A
:10294A00F00FBF090040E47563099001EE02307987
:10295A00AF82C00712285AD0078F820228E57F0863
:10296A00EF24EEF582E43401F583E4F0DFF27563D7
:10297A00099001EE023079AD82AE83AFF08D828E7E
:10298A00838FF01232BDFC60188C820DBD00010EDF
:10299A00C007C006C00512295AD005D006D0078044
:1029AA00DC22AF82E5557001229001EFE0420790E8
:1029BA0001EFEFF07F03EF24EEF582E43401F583B3
:1029CA00E0B55501220FBF090040EB7F03EF24EE6B
:1029DA00FDE43401FE8D828E83E070108D828E8339
:1029EA00E555F07563099001EE0230790FBF0900D1
:1029FA0040DB22AF82E5567001229001EFE0FE74BF
:102A0A00FF6F52069001EFEEF07F03EF24EEFDE434
:102A1A003401FE8D828E83E0B556068D828E83E464
:102A2A00F00FBF090040E47563099001EE023079A6
:102A3A00AF82855755C0071229ACD0078557568FE4
:102A4A00820229FDAE82AF837D018F037C00ED24D3
:102A5A00F7F582E43401F583E07A00B5061CEAB59D
:102A6A0007188D020AEA24F7F582E43401F583E0B7
:102A7A007A00B50305EAB50401228D0274022AFD23
:102A8A00BD090040C97D01ED24F7FBE43401FC8B4C
:102A9A00828C83E070328D02EA0424F7F8E4340170
:102AAA00F988828983E070208E018B828C83E9F019
:102ABA000AEA24F7F582E43401F5838F04ECF07511
:102ACA0063099001F70230798D0474022CFDBD0967
:102ADA000040B4228582588583597D01AB597C0018
:102AEA00ED24F7F9E43401FA89828A83E07F00B59C
:102AFA00582FEFB5592B8D07EF0424F7F582E434EC
:102B0A0001F583E0F87E00B50317EEB50413898258
:102B1A008A83E4F00FEF24F7F582E43401F583E4C5
:102B2A00F08D0774022FFDBD090040B4756309904A
:102B3A0001F7023079AE82AF83C007C006122A4E6F
:102B4A00D006D0078E828F83022ADE7F08EF24F711
:102B5A00F582E43401F583E4F0DFF275630990014C
:102B6A00F7023079AF82E4BF100104FE7003BF118F
:102B7A0024900201E4F0900202F0900203F0EE6069
:102B8A00047E0180027EFF900204EEF075630590D8
:102B9A000200023079EF54076025900201E0FE74CA
:102BAA00075F4206900201EEF0900202E4F0900202
:102BBA0003F0900204F07563059002000230792256
:102BCA00AF82BF10028003BF110E900204E4F075B9
:102BDA006305900200023079EF54076026900201E3
:102BEA00E0FE74075FF45206900201EEF0900202D2
:102BFA00E4F0900203F0900204F07563059002007D
:102C0A0002307922AF82C007122B6ED0078F820260
:102C1A002BCA900201E4F0900202F0900203F090B5
:102C2A000204F0756305900200023079900053E0C7
:032C3A00F58222FE
:1034310000000000000000002A2B2800000000000E
:10344100000000000000000000000000000000007B
:103451002C9EB4A0A1A2A434A6A7A5AE362D3738C0
:10346100271E1F20212223242526B333B62EB7B8C9
:103471009F8485868788898A8B8C8D8E8F90919287
:10348100939495969798999A9B9C9D2F3130A3ADD3
:10349100350405060708090A0B0C0D0E0F10111251
:1034A100131415161718191A1B1C1DAFB1B0B5004E
:1034B10012011001000000408911908800020102F0
:1034C10003010902490002010080190904000002F8
:1034D1000301010409211001210122950007058141
:1034E1000310000A0705010310000A090401000284
:1034F10003000000092110012101221D000705021E
:103501000320000A0705820320000A05010906A11C
:10351100018501050719E029E715002501950875C1
:10352100018102950175088103950675081500262C
:10353100FF000507190029E7810005081901290580
:1035410015002501950575019102950175039103FA
:10355100C0050C0901A1018502150026FF03190010
:103561002AFF03950475108100C005010902A1011C
:1035710085030901A1000509190129031500250188
:1035810095037501810295017505810305010930D6
:10359100093109381581257F750895038106C0C059
:1035A100950660FF0961A1010962150026FF0095DA
:1035B1002075088102096391020964B102C01D04EA
:1035C1000309041A034F00700065006E004D00618D
:1035D10000630072006F0050006100640026034325
:1035E10000480035003500320020005200470042FB
:1035F1000020004D006100630072006F0050006107
:10360100006400140343004800350035003200789F
:10361100004800490044001A034800490044002DB5
:10362100004B006500790062006F00610072006468
:013631000098
:102C3D00C007AF8205A290000015A2855E82855F58
:102C4D0083E493A3A5DFFAD00722AFDBBF08028090
:102C5D0003022F52900007E0FE7F00900006E0FD7A
:102C6D007C004FF55AEC4EF55B900001E0F55C9061
:102C7D000000E0FE54606008123111AF82022F5443
:102C8D00E55C24F45003022F4EE55C240B83F582A2
:102C9D00E55C241083F583E47330F34E764EC3BEAA
:102CAD004ECFEA54542F2D2F2E2F2D2C2F2D2D2F6F
:102CBD002F900003E0FEBE01028012BE02028018BA
:102CCD00BE0302801EBE2202806B022D70755EB1A6
:102CDD00755F347F12022D72755EC3755F347F4947
:102CED00022D72900002E0FE24FB4038EE2E902C57
:102CFD00FF738008800E8014801A8020755EC07569
:102D0D005F358026755EC4755F35801E755EDE7518
:102D1D005F358016755E04755F36800E755E1875AD
:102D2D005F368006755E04755F36855E82855F83CE
:102D3D00E493FF8030900004E0700E755E0C755FBB
:102D4D00359034DCE493FF801C900004E0FEBE015E
:102D5D000E755EA2755F359034FCE493FF80067F9F
:102D6D00FF80027FFFBFFF03022F548F057E00C33C
:102D7D00ED955AEE955B50048D5A8E5BAD5AAE5B58
:102D8D00C3ED9440EE940040047D408002AD5A8D19
:102D9D00078F82122C3D8F057E00AB5AAC5BEBC3C7
:102DAD009DFBEC9EFC8B5A8C5BEF255EF55EE4354E
:102DBD005FF55F022F54900002E0F55A755B00023B
:102DCD002F54900000E55DF0AD5AAE5BC3ED94015C
:102DDD00EE94005003022F547F01022F54900002F5
:102DED00E0F55D022F54900000E0541F702D90000F
:102DFD0003E0FD7E00900002E07B004206EB420501
:102E0D00BE0113BD00109034CAE49330E503022FC8
:102E1D00547FFF022F547FFF022F54900000E0FEDD
:102E2D0053061FBE023E900004E0FEBE0102802943
:102E3D00BE02028013BE81028014BE822274BC5574
:102E4D00D44402F5D4022F5453D473022F5474BCBE
:102E5D0055D24402F5D2022F5453D273022F547F10
:102E6D00FF022F547FFF022F54900000E0541F707B
:102E7D002D900003E0FD7E00900002E07B004206F5
:102E8D00EB4205BE0113BD00109034CAE49330E54A
:102E9D0003022F547FFF022F547FFF022F54900007
:102EAD0000E0FE53061FBE0276900003E0FD7E009B
:102EBD00900002E07B004206EB4205EE4D705C9007
:102ECD000005E0FD7E00900004E07B004206EB4231
:102EDD0005BE0105BD00028034BE0205BD000280A5
:102EED0018BE8105BD0002801ABE822BBD0028745C
:102EFD00BF55D44403F5D4804E747F55D4440CF59E
:102F0D00D4804474BF55D24403F5D2803A747F55B2
:102F1D00D2440CF5D280307FFF802C7FFF80287F3C
:102F2D00FF8024900000E4F0900001F0AD5AAE5BFC
:102F3D00C3ED9402EE940040047F02800AAF5A80E4
:102F4D00067FFF80027FFFBFFF07755CFF75DCCF3B
:102F5D0022EF24BF40068FDD75DCC02275DD0075C4
:102F6D00DCC0227405B55C0280407406B55C49AEC8
:102F7D005AAF5BC3EE9440EF940040047E40800254
:102F8D00AE5A8E82122C3D8E057F00AB5AAC5BEB98
:102F9D00C39DFBEC9FFC8B5A8C5BEE255EF55EE4CE
:102FAD00355FF55F8EDD63DC4022E5E35480FFE5A0
:102FBD005A4FF5E375DC022275DD0075DC02221235
:102FCD00318C75DD0043DC022230D95BE5D9540F1D
:102FDD00FFE5D95430FE600FBE10028048BE2002BE
:102FED008021BE30408038EF600ABF0102800ABFE9
:102FFD000233800A122FCC802C12323880271232E5
:10300D004C8022EF600ABF0102800ABF0217800ABE
:10301D00122F70801012322A800B1232698006EF47
:10302D007003122C57C2D930D80F75DC0212321F23
:10303D0075E300C2DAC2D9C2D810DA0122E5DA206E
:10304D00E20375D8FF2275E22975D181E4F5ECF51F
:10305D00ED75DC021230AA43E10743D81FD2EAD244
:05306D00AF75DD00223B
:10013000756200C204C205900205E4F0900206F068
:04014000900207F032
:1030720012305375D30022AE82AF832004FD7D004F
:10308200C3ED95635019ED2480FBE43400FCED2E72
:10309200F582E43FF583E08B828C83F00D80E1853D
:1030A20063D3D20453D2FC2275EE4075EF0075E46F
:1030B2005275E50075D21275D41275EAC075EB0C23
:1030C20022AE82AF832005FDE56324DF50037563E2
:1030D200207D00C3ED9563502DED2452FBE43400B6
:1030E200FCED2EF9E43FFA89828A83E08B828C839D
:1030F200F0ED2408FBE43402FC89828A83E08B82AF
:103102008C83F00D80CD8563D5D20553D4FC227516
:103112006200900001E0FFBF090B900004E004F59B
:103122006275820022900001E0FFBF0A02800890CF
:103132000001E0FFBF0B0475820022900001E0FF56
:10314200BF0128900004E0FFBF01207F008F057EB1
:1031520000EF2408F582E43402F583E08D828E8349
:10316200F00FBF200040E675822022900001E0FFB0
:10317200BF02028008900001E0FFBF030990000037
:10318200E4F0758201227582FF227402B56231E594
:10319200DB24DF402B7F00C3EF95DB5016EF245278
:1031A200FDE43400FE8F82758300E08D828E83F011
:1031B2000F80E4900205E5DBF0900207E4F0801155
:1031C2007401B5620CE5DB6008900000E090020635
:1031D200F075620022900205E0F58222900206E07C
:1031E200F58222900205E4F0900207F053D4F32214
:1031F200900205E07003F58222900207E02452F566
:1032020082E43400F583E0FF900207E004F09002CC
:1032120005E014F0E0700353D4F38F822275D212CA
:1032220075D412C204C2052275D30074FC55D2446F
:1032320002F5D2C2042230DE10900040E0FFBF014E
:1032420008900041E0900206F02230DE199002055B
:10325200E5DBF0900207E4F0900205E0600874F309
:1032620055D44408F5D42275D50074FC55D44402D3
:10327200F5D4C205227A10E4FBFCE58225E0F58252
:10328200E58333F583EB33FBEC33FCEB9563F5F02D
:0E329200EC95644006FCABF0438201DADD22CD
:0600C500E478FFF6D8FD0F
:10008E00C000A88118C0D0B6001B18B64800401595
:10009E00B66F005010C0E0E65407B406005004E6F8
:0A00AE0054F8F6D0E0D0D0D00032B4
:1032A000E5828563F0A4C582C0F08564F0A4D0F007
:0D32B00025F0C5838563F0A42583F58322F6
:0D00B80075816A1232D9E582600302008969
:1032BD0020F71430F6148883A88220F507E6A8833A
:1032CD0075830022E280F7E49322E02275820022CA
:00000001FF
